:10000000803102288731A22F410134084001E800E5
:100010006808E900410135084001E8006808EA0085
:1000200041012F08A3002E08A2002D08A1002C08D2
:10003000A0003108A5003008A4000030A90000305D
:10004000A8000030A7000230A6006930AA000030E6
:10005000AB0099313B210800410138033904031DED
:10006000532805304001EB000030EC009A31A82203
:10007000803100304101A3001130A2000030A10006
:100080000830A0000030A7000030A6000030A50016
:100090000130A400FF30BA003A08A800A901A90A5B
:1000A0009931722108000230410138063904031DDC
:1000B000B9280030A3001130A2000030A1000430A4
:1000C000A0000030A7000030A6000030A5000030DE
:1000D000A400FF30BA003A08A8000330BB003B0878
:1000E000A90099317221803100304101A300113003
:1000F000A2000030A1000830A0000030A7000030AE
:10010000A6000030A5000030A4000030AB00003095
:10011000AA00FE30A900FF30A8000030AF008030F8
:10012000AE000030AD000030AC0093316823803168
:1001300000304101A3001130A2000030A1000830BE
:10014000A0000030A7000030A6000030A50002305B
:10015000A4007F30BA003A08A800A90199317221A1
:10016000803105304001EB000030EC009A31A822CC
:10017000080000304101A3001130A2000030A100AE
:100180000430A0000030A7000030A6000030A50019
:100190000030A400FF30BA003A08A800A901A90A5B
:1001A00099317221803100304101A3001130A20049
:1001B0000030A1000830A0000030A7000030A600E9
:1001C0000030A5000030A4000030AB000030AA00D1
:1001D000FE30A900FF30A8000030AF008030AE0034
:1001E0000030AD000030AC00933168238031003026
:1001F0004101A3001130A2000030A1000830A0008E
:100200000030A7000030A6000030A5000230A40096
:100210007F30BA003A08A800A9019931722108007C
:100220004201DE005E0886000130870001084101BE
:10023000D80058084201DD00D301D30A5E08043E0D
:1002400086000130870019300102031830295E084A
:10025000033E86000130870019300102031CD301E0
:1002600053084101D80058084201D0005E08073EFB
:10027000860001308700010303194129CA01CB011F
:1002800045291030CA000030CB004A084101D8008F
:1002900058084201D100CC01CD01712920305529E7
:1002A00040305529483055298030DB0000306F2917
:1002B0000030DB0001306F290030DB0002306F2995
:1002C0000030DB0004306F290030DB0006306F297E
:1002D0000030DB0008306F290030DB001030DC001C
:1002E00092295E0A8600013087000108013A03194D
:1002F0005029033A03196029063A03194E29013A95
:1003000003195429033A03196429013A031952299C
:100310000E3A03195829033A03196829073A0319B1
:100320005C296C2941016F08103E8600023087006D
:100330001F3081054131FF30810542015E08073ED3
:1003400086000130870001084101D8006F080C3E8B
:10035000860002308700580881000130D800003044
:10036000D90042015E080C3E86000130870001087A
:10037000023E890A4101BE29D835D90D890BBC2915
:1003800058084201D900410159084201DA005908D0
:100390004101D80042015A084101D900DA01DB01CC
:1003A0000330D835D90DDA0DDB0D890BD1295B0867
:1003B000FB005A08FA005908F9005808F800A7315C
:1003C0002B27813178084001A3007908A4007A081E
:1003D000A5006630A0006630A1003F30A200923137
:1003E000B422813140012008B0002108B100220868
:1003F000B20090315720813141016F08123E8600D2
:100400000230870040013008C03F3108C13F42013F
:100410005E080B3E86000130870001084101D800CC
:100420006F08153E860002308700580881000030B2
:10043000A3000030A2000030A1001030A000003066
:10044000A7000030A6000030A5000030A400FF3057
:10045000AB00FC30AA004F30A900CF30A800420109
:1004600051084101D800D901DA01DB0142015E08DF
:10047000083E86000130870001084101DC0004309D
:10048000DC35FF3E031D402A5C352039DD00DE01EE
:10049000DF01E00142015E080B3E8600013087006B
:1004A00001080B394101E100E201610EF039E2007F
:1004B000E1016108E3006208E400E501E6014201B0
:1004C0005E080D3E86000130870001084101E7000B
:1004D000E801E901EA011030E735E80DE90DEA0D20
:1004E000890B6C2A6708E3046808E4046908E504DA
:1004F0006A08E6046308DD046408DE046508DF04B6
:100500006608E00458085D04AC0059085E04AD00BC
:100510005A085F04AE005B086004AF0093316823A3
:100520008131420150080319302B41016F08103E00
:100530008600023087006030810441310030810440
:100540000030A3000B30A2000030A1000830A00052
:100550000030A7000030A6000030A5000030A40045
:100560000030AB000030AA00E730A900FF30A8003F
:100570000030AF000030AE000C30AD000030AC00F9
:1005800093316823813100304101AF000E30AE005D
:100590000030AD000C30AC000030B3000030B200D1
:1005A0000030B1000030B0000030B7000030B600BD
:1005B0000330B5000630B4009B3136238131003062
:1005C0004101AF000E30AE000030AD000E30AC0087
:1005D0000030B3000030B2000030B1000030B00095
:1005E0000030B7000030B6000030B5000030B40075
:1005F0009B313623813100304101AF000E30AE0017
:100600000030AD001230AC000030B3000030B2005A
:100610000030B1000030B0000030B7000C30B60040
:100620005A30B5000A30B4009B3136238131003096
:100630004101AF000E30AE000030AD001630AC000E
:100640000030B3000030B2000030B1000030B00024
:100650007D30D8005808B400A531F3258131252C10
:1006600042015E080B3E8600013087000108031935
:10067000CA2B5E080D3E8600013087000103031976
:10068000492B5E080D3E8600013087000108031DDE
:10069000672B5E080C3E860001308700010841018F
:1006A000D800D901D835D90DE63058078400A830D4
:1006B000593D8500003F4001A000013FA1001030DE
:1006C0004101DA005A084001A2000330842B5E0881
:1006D0000C3E86000130870001084101D800D90195
:1006E000D835D90DE63058078400A830593D85002B
:1006F000003F4001A000013FA10010304101DA009D
:100700005A084001A20004304101DB005B084001AF
:10071000A3009D31A8258131400121084201CF006D
:10072000400120084201CE005A084101D90042018F
:1007300059084101D800D835D90DD835D90DD8354B
:10074000D90D58084201DB07410159084201DC3D3F
:1007500000304101A3000E30A2000030A100123091
:10076000A0000030A7000030A6000030A500023035
:10077000A4008030A800FF30A9007F3042014E0560
:100780004101AA00003042014F054101AB009A31FE
:100790002122813142015C08803A4101D800813038
:1007A0005802031DD62B003042015B02031C012CB2
:1007B00041016F08103E860002308700203081041E
:1007C0004131003081040030A3000B30A200003022
:1007D000A1000830A0000030A7000030A6000030C3
:1007E000A5000030A4000030AB000030AA00E730C4
:1007F000A900FF30A8000030AF000030AE00043088
:100800001F2C00304101A3000B30A2000030A100DA
:100810000830A0000030A7000030A6000030A5007E
:100820000030A4000030AB000030AA00E730A9007F
:10083000FF30A8000030AF000030AE001430AD0033
:100840000030AC0093316823813100304101A300B6
:100850000630A2000030A1000030A0000030A70048
:100860000030A6000030A5000030A400FC30D80005
:100870005808A80042015E08860001308700013058
:10088000423F4101A900993172218131003041017B
:10089000AF000230AE000030AD000030AC000030E0
:1008A000B3000030B2000030B1000030B0004201AF
:1008B0005908FF3E4101D8005808B400A531F3257E
:1008C000813142015E0A860001308700073001064F
:1008D000031D6C2C08306D2C0030A6310F268131A1
:1008E00042015E080B3E860001308700033001059F
:1008F0004101D80003305806031D962C0030AF008C
:100900000630AE000030AD000C30AC000030B3005B
:100910000030B2000030B1000030B000AF30B7009E
:100920005F30B6003530B500CC30AE2C0030410120
:10093000AF000630AE000030AD000C30AC0000302F
:10094000B3000030B2000030B1000030B000AF3072
:10095000B7005F30B6005830B5004C30B4009B3162
:100960003623813100304001EB000130EA000030D5
:10097000E9001430E8000030EF000030EE000030F5
:10098000ED000030EC009E311626813140016B08ED
:100990004201D70040016A084201D60040016908BF
:1009A0004201D500400168084201D4000030D4055E
:1009B000E030D5050030D6050030D70509305D069A
:1009C0000319541400304101D8001F30D900003001
:1009D000DA000030DB0042015E08043E8600013090
:1009E000870001084101DC00DD01DE01DF01083084
:1009F000DC35DD0DDE0DDF0D890BF82C5C08D8052C
:100A00005D08D9055E08DA055F08DB055808420174
:100A1000D404410159084201D50441015A08420158
:100A2000D60441015B084201D7045E08033E8600FC
:100A30000130870001084101D8000230D835FF3E5F
:100A4000031D1E2D5835F839D900DA01DB01DC0110
:100A500059084201D40441015A084201D504410118
:100A60005B084201D60441015C084201D7045E08DC
:100A7000053E860001308700013506394101D80066
:100A8000D901DA01DB0158084201D40441015908B7
:100A90004201D50441015A084201D60441015B08D4
:100AA0004201D70400304101AF000130AE000030F8
:100AB000AD001430AC000030B3000030B2000030A4
:100AC000B1000030B000420157084101B7004201B7
:100AD00056084101B600420155084101B5004201E6
:100AE00054084101B4009B3136238131003041016B
:100AF000A3000030A2000030A1002430A00000308C
:100B0000A7000030A6000030A5000030A40000308F
:100B1000AB000030AA000B30A900FF30A800420152
:100B20005E0A86000130870001084101D800D90122
:100B3000DA01DB010C30D835D90DDA0DDB0D890B6C
:100B40009B2D42015E08063E8600013087000108A9
:100B50004101DC00DD01DE01DF010A30DC35DD0DA5
:100B6000DE0DDF0D890BAE2D58085C04AC00590872
:100B70005D04AD005A085E04AE005B085F04AF0080
:100B800093316823813142015E08093E86000130BD
:100B9000870016000104031DD62D5E08093E86005D
:100BA000013087008130C03F0030C13F003041013B
:100BB000AF000630AE000030AD000030AC000030B9
:100BC000B3000030B2000030B1000230B00042018A
:100BD0005E08093E860001308700403F4101B400B5
:100BE000413FB500803104208131093042015D066A
:100BF000031D4B2E00304101AF000730AE00003026
:100C0000AD001C30AC000030B3000030B20000304A
:100C1000B1000030B0001C30B7000130B600003029
:100C2000B5003430B4009B313623813100304101AE
:100C3000AF000930AE000030AD000030AC00003035
:100C4000B3000030B2000030B1000030B0003C30E2
:100C5000B4000F30B50080310420813100304101F3
:100C6000AF000730AE000030AD001030AC000030F7
:100C7000B3000030B2000030B1000030B0000830E6
:100C8000B700B530B600A830B5003330B4009B31A2
:100C9000362381317F2E00304101AF000730AE0096
:100CA0000030AD001C30AC000030B3000030B200AA
:100CB0000030B1000030B0001C30B7000730B60083
:100CC0001130B5003430B4009B313623813100300F
:100CD0004101AF000930AE000030AD000030AC0083
:100CE0000030B3000030B2000030B1000030B0007E
:100CF0003C30B4001F30B500803104208131003019
:100D00004101AF000730AE000030AD005030AC0004
:100D10000030B3000030B2000030B1000130B0004C
:100D20001430D8005808B400A531F32581310030C3
:100D30004101AF000730AE000030AD001830AC000C
:100D40000030B3000030B2000030B1000230B0001B
:100D50000E30D8005808B400A531F3258131003099
:100D60004101AF000930AE000030AD000830AC00EA
:100D70000030B3000030B2000030B1000030B000ED
:100D80008130D8005808B400A531F32581310030F6
:100D90004101AF000030AE000030AD004430AC0087
:100DA0000030B3000030B2000030B1000030B000BD
:100DB0000230D8005808B400A531F3258131013044
:100DC0004101B8000030B90080312C20813142014E
:100DD000D201D20AD8010630580203181E2F003063
:100DE000F3000030F2000030F1000130F000A731D4
:100DF0005327813100304001EB000030EA00003021
:100E0000E9004430E8000030EF000030EE00003030
:100E1000ED000030EC00A6319C2681310239031927
:100E2000142F4201D2011E2F01304101D800580871
:100E30004201D80706305802031CEF2E520803194E
:100E4000272FFF304101D600FF30D70008004201B4
:100E50005E08043E86000130870009300102031C51
:100E6000722F5E08043E86000130870019300102AF
:100E70000318722F41016F08093E86000230870077
:100E80000103031D492F42015D089B31D0238131AD
:100E9000552F42015D084101D800D9015808B8001A
:100EA0005908B90096318726813100304101A300ED
:100EB0000330A2000030A1001830A0000030A700CD
:100EC0000030A6000030A5000030A400FF30A800CC
:100ED0008130A9000030AA006430AB009A31212291
:100EE00081318B2F00304101A3000330A20000307C
:100EF000A1001830A0000030A7000030A60000308C
:100F0000A5000030A400FE30D8005808A800A901B0
:100F100099317221813101304101CD000030CE0084
:100F20009D31412541014E084201CD0041014D084E
:100F30004201CC004D084101D70042014C0841015B
:100F4000D60008004101883100208731EF001F30B2
:100F50008400A53085005F308600013087000030B6
:100F6000FF000F30A431E824873102308400A5301F
:100F70008500D5308600013087000030FF000E303C
:100F8000A431E8248731E1308400A6308500203088
:100F90008600023087000030FF002430A431E824AE
:100FA0008731F03084002E3085000030FE000130A3
:100FB000FF00A431DC248731EE01203084000130B1
:100FC00085002A30FE000030FF00A431DC24873188
:100FD000A0308400013085003530FE000030FF0075
:100FE000A431DC248731A0308400023085002E300B
:100FF000FE000030FF00A431DC2440019A31ED2ACC
:10100000A0347808790403192828FD01FD0AF91B8A
:1010100013280130F835F90D890B0A280130FC003E
:101020007C08FD07072879087B02031D192878082A
:101030007A02031C1F287808FA027908FB3B01306A
:10104000F936F80C890B20280130FD02031D132806
:101050007B08F9007A08F80008004101C601C701C1
:101060000030CB000030CA000030C9000030C8009A
:101070000030C4000230C3000030C2000130C100A3
:101080000030AF000430AE000030AD000C30AC00DA
:101090000030B3000030B2000030B1000030B000CA
:1010A0004408B7004308B6004208B5004108B40040
:1010B0009B313623883100304101A3000430A20067
:1010C0000030A1000C30A0000030A7000030A600C6
:1010D0000030A5000030A400FF30BF003F08A8008A
:1010E0001030C0004008A9009931722188314101B7
:1010F000C501C50ACC0103304C020318AD280030ED
:10110000F3000030F2000030F1000130F000A731B0
:101110005327883100304001EB000430EA000030F2
:10112000E9002030E8000030EF000030EE00003031
:10113000ED000030EC00A6319C268831013A031DF9
:10114000A4284101C501AD2801304101BF003F087D
:10115000CC0703304C02031C7F2845080319B42830
:10116000FF30C600FF30C7000030AF000430AE00D3
:101170000030AD000C30AC000030B3000030B200E5
:101180000030B1000030B000B401A531F325883142
:1011900000304101AF000430AE000030AD0020301F
:1011A000AC000030B3000030B2000030B1000030BD
:1011B000B000B401B40AA531F325883100304101F3
:1011C000A3000430A2000030A1000C30A0000030C9
:1011D000A7000030A6000030A5000230A400FF30B8
:1011E000BF003F08A800A901A90A993172218831DE
:1011F00000304001EB000430EA000030E900143018
:10120000E8000030EF000030EE000030ED0000306C
:10121000EC009E311626883140016B084101CB005D
:1012200040016A084101CA00400169084101C90042
:10123000400168084101C800480A031D2C29490AD9
:10124000031D2C294A0A1F3003194B06031D2C29A4
:10125000FF30C600FF30C70000304001EB00043013
:10126000EA000030E9001C30E8000030EF000030F8
:10127000EE000030ED000030EC009E311626883183
:1012800040016B084101CB0040016A084101CA00DE
:10129000400169084101C900400168084101C800D6
:1012A000480A031D6029490A031D60294A0A1F30A4
:1012B00003194B06031D6029FF30C600FF30C7002D
:1012C0004708BE004608BD0008004001E601E701EE
:1012D0004708D5004808D6004908D7004A08D80072
:1012E0004B08D9004C08DA00DB01DC015908D507AE
:1012F0005A08D63D5B08D73D5C08D83D1030D8363B
:10130000D70CD60CD50C890B7F291F305505DD0075
:1013100000305605DE0047084B07D50048084C3D15
:10132000D6007F305505E20000305605E30000305E
:101330005E02203003195D02031CAD29DE30C100BE
:101340000030C200F430C300A830C400A730C5008C
:10135000A830C600A531582589310030400163020C
:10136000803003196202031CC429DF30C100003041
:10137000C200F430C300A830C4007230C500A830E9
:10138000C600A5315825893140015008031DCF29D9
:101390004F08031DCF2931304E02031CDE29E030F7
:1013A000C1000030C200F430C300A830C400B8301F
:1013B000C500A830C600A5315825893180304001CC
:1013C0005406530403190B2A5308540403190B2A17
:1013D000530380300319540603190B2A02305306B5
:1013E00080300319540603190B2A0330530680304A
:1013F0000319540603190B2AE530C1000030C2005E
:10140000F430C300A830C4000430C5009830C600D2
:10141000A5315825893140016308D6006208D500FE
:10142000D535D60DD535D60D5E08D8005D08D70068
:101430000930D735D80D890B192A55085704DF0014
:1014400056085804E0005F085304D50060085404AF
:10145000D6005608D7005708E400530803395F0444
:10146000D5005508E50050084F044E044D04031DF7
:10147000542A80305406530403194D2AF130C10018
:101480000030C200F430C300A830C4004330C500AF
:10149000A830C600A531582589314001473581382B
:1014A000D5005508E400612A62086304031D632A1D
:1014B0008030540653040319612A53085404031D51
:1014C000632A0130652A64170230E6000030E70025
:1014D000E32AE10141016F08143E860002308700D3
:1014E00001080319B22A6430F0000030F100400115
:1014F0006708F3006608F200F401A7317C27893100
:101500004001D5005508E1005208F1005108F000F3
:101510004E08F3004D08F2006108D5005508F400AC
:10152000A7317C2789314001D6005608E1006708C1
:10153000A1006608A0006430D5005508A20050083C
:10154000A6004F08A5004E08A4004D08A3005208AD
:10155000A8005108A7006108D6005608A900A731C5
:101560000527080040016708A1006608A000643054
:10157000D5005508A2005008A6004F08A5004E0847
:10158000A4004D08A3005208A8005108A700A531E7
:10159000D825080040016708A1006608A000643053
:1015A000D5005508A2005008A6004F08A5004E0817
:1015B000A4004D08A3005208A8005108A700A531B7
:1015C000BD250800E22A40015408003A0319EC2A1C
:1015D000803A0319F12AE22A5308003A0319CA2A69
:1015E000E22A5308003A0319692A013A0319692AC1
:1015F000033A0319692A013A0319692AE22A080001
:1016000041016F080F3E86000230870081016F089C
:10161000103E8600023087000230C03F0030C13FDC
:101620006F08143E86000230870081016F08153E66
:1016300086000230870081016F080A3E8600023072
:10164000870081016F080B3E860002308700810110
:101650006F08223E8600023087000030C03FC13F45
:101660006F08243E8600023087000030C03FC13F33
:101670006F08263E8600023087000030C03FC13F21
:101680006F08283E8600023087000030C03FC13F0F
:101690006F082C3E8600023087000030C03FC13FFB
:1016A0006F082A3E8600023087000030C03FC13FED
:1016B0000030F3000030F2000030F1000230F000A2
:1016C000A73153278B319931A9218B314101410831
:1016D00042040319772BD730F100A830F200A5316E
:1016E0002E25FF304101C500FF30C60008009831AB
:1016F000A0208B31003A0319772B04304101BD0043
:101700000030BE009F3107278B3141014008CF00D8
:101710003F08CE003E08CD003D08CC000530BD009E
:101720000030BE009F3107278B3141014008D300B4
:101730003F08D2003E08D1003D08D0000A30BD006D
:101740000030BE009F3107278B3141013D08C700A3
:101750003E08C8003F08C9004008CA001030CA3619
:10176000C90CC80CC70C890BAF2B47081F39CB001D
:101770006F08083E8600023087004B0881004F0842
:101780004E044D044C040319D62B53085204510443
:1017900050040319D62B6F08083E860002308700DC
:1017A00001080319D62B9A3164228B312030410174
:1017B000BD000030BE009F3107278B314030410112
:1017C0003D06023003193E061030031940063F045F
:1017D000031DF22B6F08093E86000230870081014D
:1017E000810AF82B6F08093E8600023087008101CC
:1017F000451E0E2C0630BD000030BE009F3107276D
:101800008B3141016F088600023087003D08C03FE0
:101810003E08C13F3F08C23F4008C33FC51E252CBC
:101820000730BD000030BE009F3107278B314101DA
:101830006F08043E8600023087003D08C03F3E0826
:10184000C13F3F08C23F4008C33F451F382C083006
:10185000BD000030BE009F3107278B3141013D089C
:10186000C7006F080A3E86000230870047088100E3
:10187000C51F4B2C0930BD000030BE009F3107272B
:101880008B3141013D08C7006F080B3E86000230D6
:101890008700470881006F080B3E860002308700F2
:1018A0000108031D5C2C8530C7006F080B3E8600C5
:1018B00002308700470881006F080A3E8600023028
:1018C00087000108031D6D2C7430C7006F080A3EA5
:1018D000860002308700470881001F30BD000030BD
:1018E000BE009F3107278B3141013D08C7006F08BB
:1018F0000D3E860002308700470881001E30BD0083
:101900000030BE009F3107278B3141013D087F39F0
:10191000C7006F080E3E860002308700470881002E
:101920006F080E3E8600023087000108031DA12CBF
:101930002E30C7006F080E3E860002308700470831
:1019400081000030AF000930AE000030AD0014302F
:10195000AC000030B3000030B2000030B100003005
:10196000B0006F0886000230870002304E3FB4009E
:10197000A531F3254101C501C60108004001B300AE
:1019800040012108A4002008A300A00A0319A10A0D
:1019900023088400240885000008A5002508B2005B
:1019A00032080319FC2F253032060319FE2C330AA6
:1019B00086008701160001040319EB2C3208A300EE
:1019C0002308F100330A86008701413F8A00403F27
:1019D0000A008C31C02C40013208A3003308860075
:1019E0008701010886008701230881000130A300D8
:1019F00033088600870123088107C02CB001B1019C
:101A0000AF01072D2F150130A0070030A13D2008A0
:101A10008400210885000008303A0319022D102D9A
:101A200020088400210885000008A431F4248C31AA
:101A3000031CF42D4001B001B1010A30F000003068
:101A4000F10040013108F3003008F200A531A22571
:101A50008C3171084001B1007008B000200884008A
:101A6000210885000008D03EA300FF300318003095
:101A7000A4002308B0072408B13D0130A0070030BE
:101A8000A13D20088400210885000008A431F42429
:101A90008C31031CF42D1D2D4001AF17152E22088B
:101AA0008600870101088400850102308107003F1C
:101AB000AB00013FAC002B082C04031D632D5530F7
:101AC000AB00A930AC00A901AA012B0829078400AA
:101AD0002C082A3D850012000319732D0130A90737
:101AE0000030AA3D652D31082A02031D792D3008EA
:101AF00029020318802D2908B0022A08B13B822D43
:101B0000B001B101FF304001B007FF30B13D300AF4
:101B10000319310A0319E92D330A860087011600DB
:101B200001040319A02D2030A3002308F100330A7B
:101B300086008701413F8A00403F0A008D31822D97
:101B400020304001A3003308860087010108860089
:101B50008701230881000130A30033088600870134
:101B600023088107822D330A8600870116000104AD
:101B70000319D02D2B0884002C0885000008A30031
:101B80002308F100330A86008701413F8A00403F65
:101B90000A008D3101304001AB070030AC3DE92D2A
:101BA0002B0884002C0885000008A3003308860059
:101BB0008701010886008701230881000130AB07F7
:101BC0000030AC3D0130A3003308860087012308B4
:101BD00081070130A9020030AA3B290A031DB32D59
:101BE0002A0A0319C02CB32D40012108A4002008A3
:101BF000A300A00A0319A10A230884002408850071
:101C00000008B200003A0319FC2F583A03194C2D72
:101C10003C3A0319152E0D3A0319152E1A3A0319D9
:101C20004F2D0B3A03194C2DC02C4001AF1B302E09
:101C3000220886008701010884008501023081079F
:101C4000003FAD00013FAE00AE1F812E0330A30068
:101C50002308AF04AD09AE09AD0A0319AE0A812EFF
:101C6000220886008701010884008501023081076F
:101C7000003FAD00013FAE00812EB201B20A053037
:101C8000320603198A2E3208A300A401A335A40D3D
:101C90001C3023078400A930243D8500003FA500A7
:101CA000013FA60026082E02031D582E25082D02EE
:101CB000031C8A2E0130A3002308B2073F2EB20175
:101CC000B20A0430320603198A2E3208A300A40196
:101CD000A335A40D4D3023078400A930243D850091
:101CE000003FA500013FA60026082E02031D7A2E04
:101CF00025082D02031C8A2E0130A3002308B207F9
:101D0000612E2F088039003A03193D2E803A0319BD
:101D10005F2E8A2E300831040319962E2F080339BE
:101D20000319962EFF30B007FF30B13D3208A300F3
:101D3000A401A31BA4032408803AA5003108803A1B
:101D40002502031DA52E300823020318B22E4001E0
:101D50003208A300A401A31BA4032308B002240893
:101D6000B13BB52E4001B001B1012F1D122F2F083C
:101D700003390319E12E330A860087011600010496
:101D80000319CF2E2D30A3002308F100330A86005B
:101D90008701413F8A00403F0A008E31E12E2D30FD
:101DA0004001A300330886008701010886008701EF
:101DB000230881000130A30033088600870123082F
:101DC000810740013008310403196F2F330A860060
:101DD0008701160001040319FA2E3030A3002308EE
:101DE000F100330A86008701413F8A00403F0A0024
:101DF0008E310C2F30304001A3003308860087015C
:101E0000010886008701230881000130A300330800
:101E10008600870123088107FF304001B007FF30AB
:101E2000B13DE22E300831040319452F330A8600F4
:101E300087011600010403192A2F2030A30023086C
:101E4000F100330A86008701413F8A00403F0A00C3
:101E50008F313C2F20304001A300330886008701DA
:101E6000010886008701230881000130A3003308A0
:101E70008600870123088107FF304001B007FF304B
:101E8000B13D30083104031D162F2F080339031903
:101E90006F2F330A860087011600010403195D2F96
:101EA0002D30A3002308F100330A86008701413F4B
:101EB0008A00403F0A008F316F2F2D304001A30070
:101EC0003308860087010108860087012308810006
:101ED0000130A300330886008701230881074001F1
:101EE0003208A3002308A800F32F0A30F8000030BE
:101EF000F9002808A300A401A335A40D1C30230772
:101F00008400A930243D8500003FF000013FF1002E
:101F10002E08F3002D08F2009831D3208C3171087F
:101F2000FB007008FA00883101208C317808303EBF
:101F30004001A5002508C22F2808A300A401A3354D
:101F4000A40D4D3023078400A930243D8500003FB7
:101F5000F000013FF1002E08F3002D08F200983147
:101F6000D3208C3170080F394001A5002508A70047
:101F70002708853E8400A8300318013E850000082C
:101F8000A3002308B200CD2F2F088039003A03198F
:101F9000752F803A03199C2FCD2F330A86008701B5
:101FA000160001040319E12F3208A3002308F100F1
:101FB000330A86008701413F8A00403F0A008F3183
:101FC000F32F40013208A30033088600870101087F
:101FD00086008701230881000130A30033088600B2
:101FE000870123088107FF304001A3002308A807C9
:101FF000280A0319C02CC42F4001A001A101080028
:1020020005304101380639043A043B04031D2C28EB
:102012000030A3000730A2000030A1000430A0006D
:102022000030A7000030A6000030A5000030A40058
:10203200FF30AB00FF30AA00FF30A900FF30A8003C
:102042000230AF000030AE003C30AD000030AC00DA
:1020520093316823080009304101380639043A04F3
:102062003B04031D08000030A3000730A20000302B
:10207200A1000430A0000030A7000030A60000300C
:10208200A5000030A400FF30AB00FF30AA00FF30F3
:10209200A900FF30A8000230AF000030AE001C30B3
:1020A200AD000030AC0093316823080040013008D5
:1020B200B4003108B5003208B6000310350D360DF4
:1020C200B7003708BD003D08031D70280030B3007B
:1020D2000030B2000030B1000030B000080030081B
:1020E200B4003108B5003208B6001730B636B50C68
:1020F200B40C890B77283408B7003708B800B11739
:10210200FF30B005FF30B1050030B2053008B9002C
:102112003108BA003208BB00BC018E30BD02BD1FBF
:10212200AE283D08803A8F3E0318A0280030B30045
:102132000030B2000030B1000030B00008000130C1
:10214200BC36BB0CBA0CB90C890BA1280130B40007
:102152003408BD070319C728A02818303D02031C04
:10216200C4280030B3000030B2000030B1000030AB
:10217200B00008000130B935BA0DBB0DBC0D890B9A
:10218200BC280130BD023D08031DBB2838080319D5
:10219200D528B909BA09BB09BC09B90A0319BA0A8F
:1021A2000319BB0A0319BC0A3C08B3003B08B2007E
:1021B2003A08B1003908B00008002630F100A93011
:1021C200F200A5312E259031A531882590310030BD
:1021D2004101C500C6008B31002390314101450AFF
:1021E200031DFE28460A031DFE281030F100A93007
:1021F200F200A5312E259031FD28D53081311021F4
:1022020090314101D71F0929C830F100A8300C29AB
:102212009630F100A830F200A5312E2590316730BA
:102222009E318B26903101304001EB004030EC00B2
:10223200A6314726903101304001EB004030EC00DE
:10224200A631632690315F3084000130850008306A
:102252004101EB006B08031938290530203E860046
:102262000230870012001E004101EB0B332944307B
:10227200F100A930F200A5312E2590310030F30093
:102282000030F2000030F1006430F000A731532733
:10229200903101304101EB006B084401A207243068
:1022A2004101B8000030B9002030EB006B08BA00E1
:1022B2000030BB00BC009F318327903124304101A4
:1022C200B8000030B9000030BA00BB00BC01943144
:1022D20041249031003095311D2590313F29013044
:1022E2004001EB000030EC009A31A822913141010B
:1022F2003F08B8004008B900890D893B8909BA0036
:10230200BB00BC0192310322913141013F08B80068
:102312004008B900890D893B8909BA00BB00903198
:102322000120913100304101AF000830AE00003091
:10233200AD001C30AC000030B3000030B200003001
:10234200B1000030B000FF303D05B4000F303E0553
:10235200B50080310420913100304101A3000830E2
:10236200A2000030A1001030A0000030A700003011
:10237200A6000030A5000030A400FF30C1004108D3
:10238200A8000330C2004208A9009931722191319C
:1023920000304001EB000830EA000030E900103064
:1023A200E8000030EF000030EE000030ED000030B9
:1023B200EC00A6319C2691310139031DC929A631B1
:1023C2002B26913100309C3123249131053040017C
:1023D200EB000030EC009A31A8229131003040012C
:1023E200EB000730EA000030E9001C30E800003062
:1023F200EF000030EE000030ED000030EC00A631BE
:102402009C26080000304101A3000730A2000030E2
:10241200A1004830A0000030A7000030A600003024
:10242200A5000030A400FF30AB00FF30AA00FF304F
:10243200A900FF30A8000830AF000030AE0008301D
:10244200AD000030AC00933168239231003041017D
:10245200A3000730A2000030A1004830A0000030E5
:10246200A7000030A6000030A5000030A400FF3015
:10247200AB00FF30AA00FF30A900FF30A8000030F7
:10248200AF006030AE000030AD006030AC00933180
:102492006823923105304101380639043A043B047D
:1024A200031D712A0030A3000730A2000030A100F2
:1024B2000030A0000030A7000030A6000030A500C8
:1024C2000030A400FF30AB00FF30AA00FF30A900AB
:1024D200FF30A8000230AF000030AE003C308F2A3F
:1024E20000304101A3000730A2000030A1000030FB
:1024F200A0000030A7000030A6000030A500003088
:10250200A400FF30AB00FF30AA00FF30A900FF306B
:10251200A8000230AF000030AE001C30AD00003029
:10252200AC0093316823923141013C080319080041
:102532000030AF000730AE000030AD001430AC0008
:102542000030B3000030B2000030B1000030B00003
:102552000130B7000130B6001130B5000030B400D0
:102562009B313623080040012008A6002108A7005D
:102572002208A8000310270D280DA9002908AA0087
:102582002A08031DCB2A0030A0000030A100003031
:10259200A20008002308A6002408A7002508A80016
:1025A2000310270D280DA9002908AF002F08031DCD
:1025B200E12A0030A0000030A1000030A200080093
:1025C2002F087B3EA6002608AA072008A60021089D
:1025D200A7002208A8001030A836A70CA60C890B69
:1025E200ED2A2608A9002908AF002308A60024081E
:1025F200A7002508A8001030A836A70CA60C890B46
:10260200FD2A2608A9002908AF068030A600260860
:10261200AF05A117A417FF30A305FF30A4050030B2
:10262200A5050030AB000030AC000030AD00073033
:10263200A6002608AE00201C242B2308AB07240882
:10264200AC3D2508AD3D0130A236A10CA00C890B92
:10265200252B0130A335A40DA50D890B2B2B0130A1
:10266200AE02031D1C2B0930A6002608AE00201C5A
:10267200402B2308AB072408AC3D2508AD3D0130B3
:10268200A236A10CA00C890B412B0130AD36AC0C4B
:10269200AB0C890B472B0130AE02031D382B2B08E4
:1026A200F0002C08F1002D08F2002A08A6002608E6
:1026B200F3002F08A7002708F4009C31DD247008DE
:1026C2004001A0007108A1007208A20008004101A7
:1026D20028084001E80068084101B00028084001CC
:1026E200E800410129084001E90041012A084001AE
:1026F200EA0041012B084001EB000830EB36EA0CFE
:10270200E90CE80C890B7F2B6808EC006C0841018E
:10271200B10028084001E800410129084001E90010
:1027220041012A084001EA0041012B084001EB0067
:102732001030EB36EA0CE90CE80C890B9A2B68088E
:10274200EC006C084101B20028084001E800410198
:1027520029084001E90041012A084001EA0041013B
:102762002B084001EB001830EB36EA0CE90CE80CC0
:10277200890BB52B6808EC006C084101B3002C08EA
:102782004001E80068084101B4002C084001E8005B
:1027920041012D084001E90041012E084001EA00F3
:1027A20041012F084001EB000830EB36EA0CE90C3E
:1027B200E80C890BD62B6808EC006C084101B500C7
:1027C2002C084001E80041012D084001E9004101C7
:1027D2002E084001EA0041012F084001EB001030B1
:1027E200EB36EA0CE90CE80C890BF12B6808EC00DB
:1027F2006C084101B6002C084001E80041012D0897
:102802004001E90041012E084001EA0041012F0880
:102812004001EB001830EB36EA0CE90CE80C890BAE
:102822000C2C6808EC006C084101B7002308400139
:10283200CA00410122084001C900410121084001AA
:10284200C800410120084001C7004101250840019C
:10285200CC00410124084001CB000030D000003000
:10286200CF000030CE000830CD00B030D1000030B3
:10287200D2000330D3008030D400893165210800B2
:10288200003041013B02803003193A0203189F2CA9
:102892003C08BD00BE01BF01C0010B30BD35BE0DFD
:1028A200BF0DC00D890B4F2C3A08C1003B08C20076
:1028B200C301C4011030C135C20DC30DC40D890B53
:1028C2005C2C3808C5003908C600C701C801450894
:1028D200C1044608C2044708C3044808C4043D08AA
:1028E2004104CB003E084204CC003F084304CD0023
:1028F20040084404CE000030A3000030A2000030A3
:10290200A1002430A0000030A7000030A600003053
:10291200A5000030A400FC30AB000030AA00F43067
:10292200A9000030A8004E08AF004D08AE004C08C8
:10293200AD004B08AC0093316823080041013C080C
:10294200BD00BE01BF01C0010B30BD35BE0DBF0DC4
:10295200C00D890BA62C3A08803EC10000303B3DD9
:10296200C2004108C3004208C400C501C6011030BC
:10297200C335C40DC50DC60D890BB92C3808C70067
:102982003908C800C901CA014708C3044808C40479
:102992004908C5044A08C6043D084304CB003E0862
:1029A2004404CC003F084504CD0040084604CE0054
:1029B2000030A3000030A2000030A1002430A000AB
:1029C2000030A7000030A6000030A5000030A400AF
:1029D200FC30AB000030AA00F430A9000030A8009F
:1029E2004E08AF004D08AE004C08AD004B08AC00DD
:1029F20093316823943100304001EB000830EA0043
:102A02000030E9000030E8000030EF000030EE0056
:102A12000030ED000030EC00A6319C264101BD00E3
:102A2200BE01BF01C0014008CE003F08CD003E08F4
:102A3200CC003D08CB0008004101C700C301C4011E
:102A4200C501C601471C47192A2DC7192A2D471E41
:102A5200172E471C3F2DC71C362D0030A300003017
:102A6200A2000030A1000D307B2D00304101A300F7
:102A72000030A2000030A10003307B2DC71D542D71
:102A8200C71C4B2D0030A3000030A2000030A10073
:102A92000F307B2D00304101A3000030A200003036
:102AA200A10007307B2D471E692DC71C602D003009
:102AB200A3000030A2000030A1000E307B2D0030B8
:102AC2004101A3000030A2000030A10005307B2D9F
:102AD200C71C732D0030A3000030A2000030A100FB
:102AE20010307B2D00304101A3000030A2000030E5
:102AF200A1000930A0000030A400A5000030A90008
:102B02000030A8000030A7000030A6000030AA0064
:102B12000030AB0099313B21953100304001EB0090
:102B22000030EA000030E9004430E8000030EF00F5
:102B32000030EE000030ED000330EC00A6319C26A0
:102B420095314101BD00BE013D08C5003E08C600E9
:102B5200C519F82D00304001EB000F30EA000030BB
:102B6200E9003030E8000030EF000030EE000030C5
:102B7200ED000030EC009E311626953140016B08C5
:102B82004101C20040016A084101C10040016908D7
:102B92004101C000400168084101BF000D304106FB
:102BA2003F0440044204031DF52D0030A300003011
:102BB200A2000030A1000030A0000030A400A50057
:102BC2000030A9000030A8000030A7000030A600A5
:102BD2000030AA000030AB0099313B21FF304101A7
:102BE200C300FF30C4000800C301C4010800003064
:102BF200A3000030A2000030A1000030A00000308D
:102C0200A400A5000030A9000030A8000030A700F1
:102C12000030A6000030AA000030AB0099313B2101
:102C2200FF304101C300FF30C4000800C71E502E10
:102C3200C71C352E0030A3000030A2000030A100D6
:102C42001130A0000030A400A5000030A90000301F
:102C5200A8000030A7000030A6000030AA00003013
:102C6200AB0099313B21080000304101A300003044
:102C7200A2000030A1000B30A0000030A400A5008B
:102C82000030A9000030A8000030A7000030A600E4
:102C92000030AA000030AB0099313B210800C71C6C
:102CA2006C2E0030A3000030A2000030A1000C30D6
:102CB200A0000030A400A5000030A9000030A80048
:102CC2000030A7000030A6000030AA000030AB00A0
:102CD20099313B21080000304101A3000030A200DD
:102CE2000030A1000130A0000030A400A500003097
:102CF200A9000030A8000030A7000030A600003074
:102D0200AA000030AB0099313B210800003041019C
:102D1200D5000030D4000030D3000030D20005309E
:102D220038063904031DCD2E0030BD000030BC0032
:102D3200C030BB00FD30BA000030C1000030C0001E
:102D4200C430BF003E30BE000030C5000030C400B9
:102D5200C630C300BE30C2000030C9000030C80017
:102D6200C730C7007E30C6000030CD000030CC0036
:102D7200CF30CB003630CA000030D1000030D00056
:102D8200CF30CF00B530CE000030D5000030D400B7
:102D9200CF30D300F530042F0030BD000030BC002E
:102DA200A830BB00FE30BA000030C1000030C000C5
:102DB200AC30BF003630BE000030C5000030C40069
:102DC200A530C300FE30C2000030C9000030C80088
:102DD200AF30C7003E30C6000030CD000030CC001E
:102DE200AF30CB007D30CA000030D1000030D000BF
:102DF200AF30CF00B530CE000030D5000030D40067
:102E0200AF30D300B530D2000030AF000330AE0097
:102E12000030AD003830AC000030B3000030B200FA
:102E22000030B1000030B0003D08B7003C08B600E9
:102E32003B08B5003A08B4009B3136239631003086
:102E42004101AF000330AE000030AD003C30AC00B9
:102E52000030B3000030B2000030B1000030B000EA
:102E62004108B7004008B6003F08B5003E08B4006C
:102E72009B313623963100304101AF000330AE0062
:102E82000030AD004030AC000030B3000030B20082
:102E92000030B1000030B0004508B7004408B60069
:102EA2004308B5004208B4009B3136239631003006
:102EB2004101AF000330AE000030AD004430AC0041
:102EC2000030B3000030B2000030B1000030B0007A
:102ED2004908B7004808B6004708B5004608B400DC
:102EE2009B313623963100304101AF000330AE00F2
:102EF2000030AD004830AC000030B3000030B2000A
:102F02000030B1000030B0004D08B7004C08B600E8
:102F12004B08B5004A08B4009B3136239631003085
:102F22004101AF000330AE000030AD004C30AC00C8
:102F32000030B3000030B2000030B1000030B00009
:102F42005108B7005008B6004F08B5004E08B4004B
:102F52009B313623963100304101AF000330AE0081
:102F62000030AD005030AC000030B3000030B20091
:102F72000030B1000030B0005508B7005408B60068
:102F82005308B5005208B4009B3136239631003005
:102F92004101AF000330AE000030AD001C30AC0088
:102FA2000030B3000030B2000030B1000030B00099
:102FB2001030B7000030B6000230B5004030B40027
:102FC2009B313623963100304101AF000330AE0011
:102FD2000030AD002030AC000030B3000030B20051
:102FE2000030B1000030B0001B30B7006D30B600C9
:102FF200A430B5008930B4009B3136230800003478
:103002004034013400346D346F3464346534203418
:103012003D343D3420344434573433343034303446
:1030220030345F345334503449345F34573452347B
:103032005F3442344934543420347C347C34203478
:103042006D346F346434653420343D343D3420347F
:103052004434573433343034303430345F345334BE
:10306200503449345F34523444345F344234493446
:10307200543420347C347C3420346D346F346434E2
:10308200653420343D343D342034443457343334B1
:103092003034303430345F345334503449345F3454
:1030A20041344E3444345F344F3452345F34383414
:1030B20020347C347C3420346D346F346434653491
:1030C20020343D343D3420344434573433343034A6
:1030D200303430345F345334503449345F34413403
:1030E2004E3444345F344F3452345F3431343634E6
:1030F20020347C347C3420346D346F346434653451
:1031020020343D343D342034443457343334303465
:10311200303430345F345334503449345F344134C2
:103122004E3444345F344F3452345F3433343234A7
:02313200003467
:10313600F000700843018C00080000304001EB00ED
:103146000030EA000030E9004430E8000030EF00CB
:103156000030EE000030ED000230EC009931E02145
:103166009831400168084101B400400169084101F5
:10317600B500B601B7011030B435B50DB60DB70DB3
:10318600890BBF283708BB003608BA003508B900D6
:103196003408B8003B1CD128013008000030080074
:1031A600F501F6017008710403190229F701F70AFF
:1031B600F11BE7280130F035F10D890BDE280130CF
:1031C600F4007408F707DB280130F535F60D890B96
:1031D600E82871087302031DF22870087202031CA6
:1031E600F9287008F2027108F33B75140130F136C4
:1031F600F00C890BFA280130F702031DE728760840
:10320600F1007508F0000800410123084001CA00DA
:10321600410122084001C900410121084001C800BE
:10322600410120084001C700410125084001CC00AA
:10323600410124084001CB00410129084001D0008A
:10324600410128084001CF00410127084001CE0076
:10325600410126084001CD0041012A084001D10064
:103266000030D2000030D300D40089316521080037
:10327600410123084001CA00410122084001C9005A
:10328600410121084001C800410120084001C70052
:10329600410125084001CC00410124084001CB0032
:1032A600410129084001D000410128084001CF0012
:1032B600410127084001CE00410126084001CD000A
:1032C60041012B084001D20041012A084001D100EA
:1032D6000030D3008030D4008931652108004101D7
:1032E60028084001E8006808E90041012908400172
:1032F600E8006808EA00410123084001CA004101CC
:1033060022084001C900410121084001C8004101CD
:1033160020084001C700410125084001CC004101B9
:1033260024084001CB000030D0000030CF00003030
:10333600CE000230CD006930D1000030D20001301D
:10334600D3008030D400893165210800A631BD261E
:103356009931410140084201BF0041013F08420145
:10336600BE0041013E084201BD0041013D08420147
:10337600BC0012303C06033003193D06CA3003195F
:103386003E06DE3003193F060319DC2902303C06EF
:10339600033003193D06CA3003193E06DE30031911
:1033A6003F060319DC29FF304101C100FF30C2008E
:1033B60008004101C101C20108004101B001B1018B
:1033C60040016B084101A30040016A084101A200C7
:1033D600400169084101A100400168084101A000BF
:1033E60040016D084101A50040016C084101A4009F
:1033F6000030A9000030A8000030A7000230A60067
:10340600B230AB002B08AA009931072141013208DE
:10341600AB00AC013308AD00AE012D08AE00AD0126
:103426002B082D07B0002C082E3DB10031084001B5
:10343600E900410130084001E80008004101280880
:103446004001E8006808E900410129084001E80058
:103456006808EA0041012A084001E8006808EB0014
:1034660041012B084001E8006808EC0041012308EF
:103476004001CA00410122084001C900410121085A
:103486004001C800410120084001C700410125084C
:103496004001CC00410124084001CB000030D0009F
:1034A6000030CF000030CE000430CD006930D100AE
:1034B6000030D2000230D3008030D400893165213B
:1034C600080000304101A3000B30A2000030A1002B
:1034D6000830A0000030A7000030A6000030A5008C
:1034E6000030A400FF30A800FF30A9008030AA00F9
:1034F6000130AB009A3121229A3100304101A300FC
:103506001130A2000030A1001F30A0000030A7003B
:103516000030A6000030A5000030A400E030A8006E
:10352600FF30A9006F08083E8600023087000108B8
:103536004001ED00EE016D084101AA0040016E0850
:103546004101AB009A312122080040016B036C0453
:10355600031DCF2A0030ED001830EE00ED14ED16F5
:1035660000304101AF001130AE000030AD00043034
:10357600AC000030B3000030B2000030B1000030C3
:10358600B00040016E084101B50040016D084101DF
:10359600B400803104209A31053040016B066C047A
:1035A600031D080000304101AF001130AE000030AD
:1035B600AD000430AC000030B3000030B200003083
:1035C600B1000030B0000030B4000230B5008031E8
:1035D60004200800A53110259A317E013A134001D6
:1035E60016137E01BA13400196177E014516400157
:1035F600171600309C317D249A3109304101ED00C7
:103606001E30EC00E430890B062BEC0B062BED0B81
:10361600062B00009031DE209A31102B0930410133
:10362600ED001E30EC00E430890B172BEC0B172B4A
:10363600ED0B172B000029304101ED009630EC0010
:103646007F30890B242BEC0B242BED0B242BAA307B
:1036560098319B209A315D30F100A830F200A531F7
:103666002E259A311E2B4001ED01EE016E08803A9F
:10367600E80080306802031D422B04306D020318F7
:10368600662B410134084001E8006D08693E86005A
:1036960087016808810008304101B736B60CB50CC1
:1036A600B40C890B4F2B01304001ED070030EE3D85
:1036B6006E08803AE80080306802031D642B0430EF
:1036C6006D02031C442B41012F08A3002E08A20003
:1036D6002D08A1002C08A0003108A5003008A40080
:1036E6000030A9000030A8000030A7000430A60072
:1036F6006930AA000030AB0099313B210800400137
:103706009A010130990096019701980107309500BA
:103716003F309100EF309200F9309300FE30940074
:10372600FE307E01D9007A30CE00FF30C30007306C
:10373600E400FF30B800DA01E501C401B901CF01A8
:10374600E601BA01C501D001DB0100308B1B013057
:10375600F0008B1355307D018F00AA308F000F10BB
:1037660040019312931717307D01CB001230C5002C
:1037760015307E01A1001430A2001030A5001030D3
:103786007D01C60055308F00AA308F000F14701CC3
:10379600CE2B8B1708008B1308004001ED00053077
:1037A6006D06031DFA2B00304101A3000B30A20069
:1037B6000030A1000830A0000030A7000030A600AD
:1037C6000030A5000030A4000030AB000030AA0095
:1037D600DF30A900FF30A8000030AF000030AE0097
:1037E6000030AD004030AC0093316823080009304A
:1037F60040016D06031D080000304101A3000B3097
:10380600A2000030A1000830A0000030A700003060
:10381600A6000030A5000030A4000030AB00003048
:10382600AA00DF30A900FF30A8000030AF0000304A
:10383600AE002030AD004030AC0093316823080064
:103846004001EF0000304101AF000730AE0000300C
:10385600AD004830AC000030B3000030B20000309C
:10386600B1000030B0000030B7000030B6000030C4
:10387600B5000030B4009B3136239C310030410145
:10388600AF000730AE000030AD000030AC000030B5
:10389600B3000030B2000030B1000030B00000309C
:1038A600B7000030B6000030B5000030B4009B31E0
:1038B60036239C3140016F0803190800003041018E
:1038C600AF000730AE000030AD001430AC00003061
:1038D600B3000030B2000030B1000030B0001C3040
:1038E600B7000030B6000030B5000030B4009B31A0
:1038F60036230800F5004301901A08007508F00009
:10390600F101F035F10DF035F10D7008013EF200D0
:103916000030713DF3000030720784009830733D2B
:10392600850000088F007508F000F101F035F10DF3
:10393600F035F10D0030700784009830713D850038
:103946000008900091017508F000F101F035F10DC5
:10395600F035F10D7008023EF2000030713DF300C3
:103966000030720784009830733D850000088D0092
:103976007508F000F101F035F10DF035F10D700824
:10398600033EF2000030713DF30000307207840000
:103996009830733D85000008F400F40DF40D4001E5
:1039A60013087406FB39740693001314931043012D
:1039B6009016080073080319E52C72087104700448
:1039C600031DF62C0030F0000030F1000030F2004C
:1039D60008000130F5007508F3070130F236F10CE6
:1039E600F00C890BF12CFE30720503190F2DEC2C0F
:1039F6000130F5007508F3070130F00700300318B1
:103A06000130F107003003180130F2070130F236B9
:103A1600F10CF00C890B0A2DFF30720503191C2DD1
:103A2600FB2C0130F3020130F035F10DF20D890B5C
:103A3600172DF11B222D023073020318142D731853
:103A46002A2DFF30F0057F30F105FF30F205031017
:103A5600F30C7308F500F601F7011030F535F60D95
:103A6600F70D890B312D7508F0047608F1047708F7
:103A7600F204740803190800F217080041014D0307
:103A86004E04031D7D2D00304001EB000730EA0097
:103A96000030E9004830E8000030EF000030EE006A
:103AA6000030ED000030EC009931E0219D314001FD
:103AB60069084101D200400168084101D100003087
:103AC600A3000730A2000030A1004830A00000305B
:103AD600A7000030A6000030A5000030A400FF308B
:103AE600A800FF30A9000530AA000130AB009A31CA
:103AF60021229D3188312D209D3141013E08D00083
:103B06003D08CF004D034E04031DA22D0030A30037
:103B16000730A2000030A1004830A0000030A70006
:103B26000030A6000030A5000030A4005208A9000D
:103B36005108A8000030AA00AB009A3121224101A9
:103B46005008CE004F08CD00080040012008F000C4
:103B56002108F100F201F3012208A400A501A60143
:103B6600A7012708F7002608F6002508F50024080F
:103B7600F400A731D1279D3173084001AD007208CA
:103B8600AC007108AB007008AA0003302306031DC1
:103B9600EF2D0030F3000030F2000030F100B530B8
:103BA600F0002D08F7002C08F6002B08F5002A086F
:103BB600F400A731D1279D3173084001AD0072088A
:103BC600AC007108AB007008AA000730AD36AC0C2B
:103BD600AB0CAA0C890BE92DFF302A05A40007308F
:103BE6002B05A5002408003EA8000430253DA900A9
:103BF6000B30AD36AC0CAB0CAA0C890BFC2D083087
:103C06002902003003192802031C112E0130AA07CD
:103C16000030AB3D0030AC3D0030AD3D2B08A1007F
:103C26002A08A000080000304101BA000030B9009F
:103C36000030B8000030B70040016B084101A30016
:103C460040016A084101A200400169084101A10042
:103C5600400168084101A00040016D084101A5002E
:103C660040016C084101A4000030A9000030A80002
:103C76000030A7000430A600B330AB002B08AA0022
:103C8600993107219E3103304101BB000030BC0051
:103C9600BC1B7B2E3B08B33E860087010108AB00A8
:103CA600AC01AD01AE013708AF003808B0003908E5
:103CB600B1003A08B2000830AF35B00DB10DB20D03
:103CC600890B5F2E2F08AB073008AC3D3108AD3DA0
:103CD6003208AE3D2E08BA002D08B9002C08B800EF
:103CE6002B08B700FF30BB07FF30BC3DBC1F4D2E75
:103CF6003A084001EB00410139084001EA00410160
:103D060038084001E900410137084001E800080091
:103D16004101C6004608053E8600013087001600B0
:103D26000104031DB22E0030AF000730AE00003094
:103D3600AD001C30AC000030B3000030B2000030E3
:103D4600B1000030B0004608860001308700010847
:103D5600C3004308B400A531F3259E31E72E053094
:103D66004101C3004308C50000304001EB000130AB
:103D7600EA000030E9001430E8000030EF000030BF
:103D8600EE000030ED000030EC00A6319C269E319E
:103D960001390319D32E09304101C3004308C50078
:103DA60041014608053E860001308700403FBD00C0
:103DB600413FBE004508C300C4014308BF00440894
:103DC600C000913170219E3100304101AF000130B9
:103DD600AE000030AD000C30AC000030B300003057
:103DE600B2000030B1000030B000460A8600013053
:103DF6008700403FB400413FB500423FB600433F15
:103E0600B7009B313623080000304101C400003062
:103E1600C3000030C2000030C1000030AF000B30DC
:103E2600AE000030AD000830AC000030B30000300A
:103E3600B2000030B1000030B0000130B4000030F4
:103E4600B500803104209F3100304101AF000B30B6
:103E5600AE000030AD000430AC000030B3000030DE
:103E6600B2000030B1000030B0003E08B5003D0899
:103E7600B400803104209F3100304101AF000B3087
:103E8600AE000030AD000830AC000030B3000030AA
:103E9600B2000030B1000030B0000230B400003093
:103EA600B500803104209F3100304001EB000B301B
:103EB600EA000030E9001030E8000030EF00003082
:103EC600EE000030ED000030EC009E311626400179
:103ED6006B084101C40040016A084101C30040016A
:103EE60069084101C200400168084101C100440857
:103EF600C0004308BF004208BE004108BD000800DC
:103F0600410138083B07BD0039083C3DBE0004307E
:103F16003E02003003193D020318080000303C023F
:103F2600803003193B020318B12F0030A300143070
:103F3600A2000030A1000030A0003C08A5003B080C
:103F4600A4003808A6003908A700A801A9013A0864
:103F5600AA000230AB0099313B2108000030410134
:103F6600AF001F30AE000030AD000430AC000030B2
:103F7600B3000030B2000030B1000030B0000030B5
:103F8600B7000030B6000030B5001430B4009B31E5
:103F960036239F3100304101AF001F30AE000030A4
:103FA600AD000830AC000030B3000030B200003085
:103FB600B1000030B0003B08B4003C08B500B601C3
:103FC600B7019B3136239F3100304101A3001D30DC
:103FD600A2000030A1000030A0000030A400A5001F
:103FE6003808A6003908A700A801A9013A08AA00BE
:0A3FF6000230AB0099313B210800B6
:104952007108A431B52408004F019601970198010E
:1049620099019A019B010800F0004E010F1EB62C1E
:10497200700842019A000800603051018D008F01D9
:1049820091010630930092010800093042019F0014
:1049920090309D0024309E0044309B009C01080012
:1049A200F000700843018C004E010F1CD52C0F1033
:1049B20043010C0808006400800101310130FE024D
:1049C2000030FF3B7F087E0403190034DD2CFE001B
:1049D20012001E000130FE020030FF3B7F087E0401
:1049E20003190034E92CF100F0013A307102031886
:1049F200002D30307102031C002DF001F00A700C02
:104A02000800093402340234093409340134003410
:104A120000340034E9340334003401340034A43166
:104A2200AD24A5319B318223A531A431BD24A5310A
:104A3200A431C624A531A731A627080001340034C9
:104A4200003400345334D634F534C8343434FE34AC
:104A5200FE34FE34FE3400340034710884007208DF
:104A6200850012000319080071088400720885008D
:104A72000008A431B524A5310130F1070030F23D20
:104A82002E2D4001BE01A930BF002430C0003630B7
:104A9200BC003C08BD003508A1003408A0003D3030
:104AA200BC003C08A2003E308C31BE24080000301D
:104AB2004001B400A830B5004408B7004308B6006E
:104AC2004208B9004108B8004608BB004508BA00D0
:104AD200A5314225A5316C2D08007208F600710837
:104AE200F5000130F3020030F43B730A0319740A33
:104AF2000319080075088600760887000108A431AA
:104B0200D124A5310130F5070030F63D722D400168
:104B120017120030F3000030F2000030F1000130D3
:104B2200F000A7315327A531400117160030F300DA
:104B32000030F2000030F1000230F000A7315327BC
:104B42000800F401F501701CAA2D7208F40773081D
:104B5200F53D0130F235F30D890BAB2D0130F13605
:104B6200F00C890BB02D70087104031DA42D75087B
:104B7200F1007408F0000800400196132208F100C9
:104B82000030F2002108F4002008F300A5316E2560
:104B9200A53140012808F2002708F1002408F4009A
:104BA2002308F300A6317F26400196170800400132
:104BB20096132208F1000030F2002108F4002008C8
:104BC200F300A5316E25A53140012808F20027081F
:104BD200F1002408F4002308F300A5316E254001FA
:104BE2009617080041012F08A3002E08A2002D08E5
:104BF200A1002C08A0003108A5003008A400003054
:104C0200A9000030A8000030A7000130A600B4308F
:104C1200AA000030AB0099313B2108004001E900B5
:104C220000304101AF000030AE000030AD0028304E
:104C3200AC000030B3000030B2000030B1000130EF
:104C4200B00040016908E80068084101B400A531DC
:104C5200F325080000304101AF000730AE000030FC
:104C6200AD000430AC000030B3000030B2000030C0
:104C7200B1000030B0000030B7000030B6000030A4
:104C8200B5000030B4009B313623080000304101EA
:104C9200AF000E30AE000030AD000030AC0000308E
:104CA200B3000030B2000030B1000030B00040016B
:104CB2006C084101B50040016B084101B40080312C
:104CC2000420080000304101AF000130AE00003086
:104CD200AD000430AC000030B3000030B200003050
:104CE200B1000030B00040016C084101B500400144
:104CF2006B084101B4008031042008007208F700FB
:104D02007108F6000130F3020030F43B730A031914
:104D1200740A031908000030A431D124A631F50029
:104D22007608860077088700750881000130F6074B
:104D32000030F73D832E40016B08CA006A08C900A3
:104D42006908C8006808C7006D08CC006C08CB0071
:104D52000030D0000030CF000030CE000130CD0056
:104D6200A030D1000030D2000030D300D40089310D
:104D7200652141012008080000304001EB000030AD
:104D8200EA000030E9000030E8000030EF000030B7
:104D9200EE000030ED000030EC009E31162640019E
:104DA2006B084101C00040016A084101BF00400197
:104DB20069084101BE00400168084101BD000800C8
:104DC200003438340034CA34DE3400340034003461
:104DD2000034003400340034003400340034003431
:104DE2000034003400340034003400340034003421
:104DF2000034003400340034003400340034003411
:104E02000034003400340034400196132208F100CB
:104E12000030F2002108F4002008F300A5316E25CD
:104E2200A73140012808F2002708F1002408F40005
:104E32002308F300A5316E25A7312930F100003097
:104E4200F2000130F3000030F400A5316E2540017C
:104E5200961708008E30FC007C08FD00FF307B05B1
:104E620003193F2F0130FB36FA0CF90CF80C890BB1
:104E7200342F0130FC007C08FD072F2F7808F0004A
:104E82007908F1007A08F2007D08FC007C08F30042
:104E9200F4019C31DD247008F8007108F9007208F1
:104EA200FA0008000030F8000030F7000030F60089
:104EB2000030F50073087802031D692F720877022B
:104EC200031D692F71087602031D692F7008750290
:104ED200031808000B30F4006230890B6E2FF40BBC
:104EE2006E2F00320130F5070030F63D0030F73DFD
:104EF2000030F83D5B2FF701F8017808803AF500A1
:104F02007308803A7502031D882F7208770203180E
:104F1200A42F7708700786007808713D8700010882
:104F22007406F5007508F6007608F03E86008701E3
:104F32002E30873D0108F5007508F4000130F707AF
:104F42000030F83D7E2F7408080000308B1B0130C2
:104F5200F0008B1355307D018F00AA308F000F10A7
:104F62001230C5001030C60014307E01A200153088
:104F7200A100803043018F00900101308D0040017B
:104F8200131113144301901255307D018F00AA3082
:104F92008F000F14701CCF2F8B1708008B13080083
:104FA2000030FB000030FA000030F9000030F80059
:104FB200701CE32F7408F8077508F93D7608FA3D6E
:104FC2007708FB3D0130F435F50DF60DF70D890B31
:104FD200E42F0130F336F20CF10CF00C890BEB2FBD
:104FE2007308720471047004031DD92F7B08F30047
:104FF2007A08F2007908F1007808F00008004134DC
:105002007334733465347234743469346F346E3487
:1050120020346634613469346C34653464343A342F
:1050220020342534733420346C3469346E3465345E
:105032002034253464343A34203422342534733411
:1050420022340A3400340A340D34753469346E342F
:105052007434363434345F346E3475346D343A34E7
:105062002034253430343434583425343034343414
:1050720058342534303434345834253430343434CC
:10508200583400346D346F346434653420343D3424
:105092003D342034443457343334303430343034B3
:1050A2005F345334503449345F34573452345F34AC
:1050B20042344934543400340A340D345034723496
:1050C2006F346734723461346D3420347234753421
:1050D2006E346E3469346E3467342E342E342E348A
:1050E20000347234653467345F346F346634663446
:1050F20073346534743420343C343D3420343034D9
:105102007834373446340034303431343234333442
:105112003434353436343734383439344134423423
:10512200433444344534463400340A340D34433471
:105132004F344E344634493447345F345334553453
:105142004334433445345334533400347234653475
:1051520067345F34663469346C34653420343C34EB
:105162003D342034303478343134463400346C34B5
:1051720065346E3467347434683420343C342034FB
:1051820030347834333431343034303400340A3407
:105192000D3443344F344E344634493447345F344B
:1051A2004534523452344F34523400340A340D34BC
:1051B200723465347434753472346E345F34453409
:1051C200723472346F347234003400340434A834CC
:1051D20005340034083450340B3400341034A13414
:1051E20016340034203464346534633461345F34FB
:1051F2006434653476346934633465342E3463340C
:105202000034763461346C343A342034253430340A
:1052120034345834253430343434583400340A3475
:105222000D34443457344D345F344534523452349F
:105232004F3452340034013400340A3400346434BC
:105242000034E8340334103427340A340D3464341F
:1052520077345F346D34613469346E3400347634BB
:1052620061346C343A342034253430343234583496
:105272000034763461346C343A342034253430349A
:105282003434583400340A340D34443457344D34F1
:105292005F344F344B340034013400341034003462
:1052A200003401340034103428346E3475346C34D4
:0652B2006C3429340034C5
:020000040001F9
:0A000E008C3FFF379F3FFF1FFF3FAD
:00000001FF
