:1000000080311928323400347E14803140017F0859
:10001000F0004E01961A8C1E14288C12A0314D202F
:100020008B134101E401E40A70084001FF007E10D7
:10003000090080311B28A03119208031FC003630A6
:100040008400A0308500D930860000308700003061
:10005000FF000730A0318D20803142018031022025
:100060008031EB00803103208031EC00C03084000F
:10007000A2308500A0308600013087000030FF00EC
:100080002330A0318D208031E3308400A230850000
:1000900020308600023087000030FF002430A0317D
:1000A0008D208031F03084002E3085000030FE003D
:1000B0000130FF00A031812080314101E001E101E8
:1000C000E201E301E401E501203084000130850014
:1000D0003830FE000030FF00A03181208031C33075
:1000E0008400013085002030FE000030FF00A03188
:1000F0008120803144308400023085001530FE00BC
:100100000030FF00A03181208031A0308400023017
:1001100085002E30FE000030FF00A03181207E10CF
:1001200040019B31C02B4401ED006D088600013079
:10013000870001084201D80058084401EC00E201A0
:10014000E20A6D08043E8600013087001930010282
:100150000318B3286D08033E86000130870019306C
:100160000102031CE20162084201D8005808440160
:10017000D9006D08073E860001308700010303198E
:10018000C428DB01DC01C8281030DB000030DC00B3
:100190005B084201D80058084401DA00DD01DE01A5
:1001A000F4282030D8284030D8284830D82880304B
:1001B000EA000030F2280030EA000130F228003076
:1001C000EA000230F2280030EA000430F228003061
:1001D000EA000630F2280030EA000830F228003049
:1001E000EA001030EB0015296D0A86000130870007
:1001F0000108013A0319D328033A0319E328063A00
:100200000319D128013A0319D728033A0319E7281B
:10021000013A0319D5280E3A0319DB28033A0319CA
:10022000EB28073A0319DF28EF287C08103E8600E8
:10023000023087001F3081054131FF3081056D0894
:10024000073E86000130870001084201D8007C0883
:100250000C3E860002308700580881000130D8002B
:100260000030D90044016D080C3E86000130870043
:100270000108023E890A42013F29D835D90D890B70
:100280003D2958084401E800420159084401E900A9
:1002900068084201D800440169084201D900DA0126
:1002A000DB010330D835D90DDA0DDB0D890B52296E
:1002B0005B084001A30042015A084001A20042012C
:1002C00059084001A100420158084001A000A43192
:1002D0004324803140012008A7002108A8002208FB
:1002E000A9006630A4006630A5003F30A600873123
:1002F0004927803140012408B4002508B5002608AC
:10030000B6009E31612680317C08123E86000230A4
:10031000870040013408C03F3508C13F44016D08E3
:100320000B3E86000130870001084201D8007C089E
:10033000153E8600023087005808810000304001D9
:10034000E2000030E1000030E0001030DF0000305B
:10035000E6000030E5000030E4000030E300FF304C
:10036000EA00FC30E9004F30E800CF30E7004401FC
:100370005A084201D800D901DA01DB0144016D08B5
:10038000083E86000130870001084201DC0004308D
:10039000DC35FF3E031DC8295C352039DD00DE0158
:1003A000DF01E00144016D080B3E8600013087004B
:1003B00001080B394201E100E201610EF039E2006F
:1003C000E1016108E3006208E400E501E60144019F
:1003D0006D080D3E86000130870001084201E700EC
:1003E000E801E901EA011030E735E80DE90DEA0D11
:1003F000890BF4296708E3046808E4046908E50444
:100400006A08E6046308DD046408DE046508DF04A6
:100410006608E00458085D044001EB0042015908F9
:100420005E044001EC0042015A085F044001ED0007
:1004300042015B0860044001EE0093317223803179
:10044000440159080319C12A7C08103E8600023075
:100450008700603081044131003081040030400168
:10046000E2000B30E1000030E0000830DF00003037
:10047000E6000030E5000030E4000030E30000302A
:10048000EA000030E900E730E800FF30E700003024
:10049000EE000030ED000C30EC000030EB0093314A
:1004A0007223803100304101A3000E30A2000030E1
:1004B000A1000C30A0000030A7000030A6000030E2
:1004C000A5000030A4000030AB000030AA000330CB
:1004D000A9000630A8009831CD20803100304101BC
:1004E000A3000E30A2000030A1000E30A0000030AA
:1004F000A7000030A6000030A5000030A4000030A6
:10050000AB000030AA000030A9000030A8009831EC
:10051000CD20803100304101A3000E30A200003018
:10052000A1001230A0000030A7000030A60000306B
:10053000A5000030A4000030AB000C30AA005A30F7
:10054000A9000A30A8009831CD2080310030410147
:10055000A3000E30A2000030A1001630A000003031
:10056000A7000030A6000030A5000030A4007D30B8
:100570004201D80058084101A800A33179238031F5
:10058000B62B44016D080B3E860001308700010840
:1005900003195B2B6D080D3E8600013087000103B7
:1005A0000319DA2A6D080D3E860001308700010824
:1005B000031DF82A6D080C3E8600013087000108F3
:1005C0004201D800D901D835D90D723058078400BE
:1005D000A830593D8500003F4001A400013FA5001F
:1005E00010304201DA005A084001A6000330152BF2
:1005F0006D080C3E86000130870001084201D800DA
:10060000D901D835D90D723058078400A830593D2A
:100610008500003F4001A400013FA50010304201C9
:10062000DA005A084001A60004304201DB005B08F2
:100630004001A7009C3193248031400125084401EA
:10064000E000400124084401DF0069084201D900AC
:10065000440168084201D800D835D90DD835D90DE4
:10066000D835D90D58084401EA0742015908440118
:10067000EB3D00304001E2000E30E1000030E000D0
:100680001230DF000030E6000030E5000030E4000A
:100690000230E3008030E700FF30E8007F304401A3
:1006A0005F054001E9000030440160054001EA00B7
:1006B000A431C824803144016B08803A4201D8003B
:1006C00081305802031D672B003044016A02031C6D
:1006D000922B7C08103E8600023087002030810477
:1006E00041310030810400304001E2000B30E10074
:1006F0000030E0000830DF000030E6000030E500A8
:100700000030E4000030E3000030EA000030E9008F
:10071000E730E800FF30E7000030EE000030ED0089
:100720000430B02B00304001E2000B30E10000301B
:10073000E0000830DF000030E6000030E500003067
:10074000E4000030E3000030EA000030E900E73068
:10075000E800FF30E7000030EE000030ED0014301C
:10076000EC000030EB009331722380310030400107
:10077000E2000630E1000030E0000030DF00003031
:10078000E6000030E5000030E4000030E300FC301B
:100790004201D80058084001E70044016D08860076
:1007A000013087000130423F4001E800A331A0231F
:1007B000803100304101A3000230A2000030A100CE
:1007C0000030A0000030A7000030A6000030A500D7
:1007D0000030A40044016808FF3E4201D8005808D8
:1007E0004101A800A3317923803144016D0A8600BC
:1007F0000130870007300106031D002C0830012C52
:100800000030A1319B21803144016D080B3E8600F0
:1008100001308700033001054201D800033058063B
:10082000031D2B2C00304101A3000630A200003034
:10083000A1000C30A0000030A7000030A60000305E
:10084000A5000030A400AF30AB005F30AA00353007
:10085000A900CC30432C00304101A3000630A20097
:100860000030A1000C30A0000030A7000030A6002E
:100870000030A5000030A400AF30AB005F30AA000C
:100880005830A9004C30A8009831CD20803100307C
:100890004101A3000130A2000030A1001430A000EB
:1008A0000030A7000030A6000030A5000030A400F2
:1008B0009D3101258031410123084401E6004101B9
:1008C00022084401E500410121084401E4004101FE
:1008D00020084401E3000030E305E030E405003087
:1008E000E5050030E60509306C0603196314003095
:1008F0004201D8001F30D9000030DA000030DB00A0
:1009000044016D08043E8600013087000108420161
:10091000DC00DD01DE01DF010830DC35DD0DDE0D40
:10092000DF0D890B8D2C5C08D8055D08D9055E08A4
:10093000DA055F08DB0558084401E3044201590861
:100940004401E40442015A084401E50442015B0801
:100950004401E6046D08033E86000130870001086B
:100960004201D8000230D835FF3E031DB32C583564
:10097000F839D900DA01DB01DC0159084401E3044C
:1009800042015A084401E40442015B084401E504C1
:1009900042015C084401E6046D08053E8600013012
:1009A0008700013506394201D800D901DA01DB019F
:1009B00058084401E304420159084401E404420197
:1009C0005A084401E50442015B084401E604003092
:1009D0004101A3000130A2000030A1001430A000AA
:1009E0000030A7000030A6000030A5000030A400B1
:1009F000440166084101AB00440165084101AA00B9
:100A0000440164084101A900440163084101A800B0
:100A10009831CD20803100304001E2000030E1000B
:100A20000030E0002430DF000030E6000030E50058
:100A30000030E4000030E3000030EA000030E9005C
:100A40000B30E800FF30E70044016D0A86000130FA
:100A5000870001084201D800D901DA01DB010C301E
:100A6000D835D90DDA0DDB0D890B302D44016D0819
:100A7000063E86000130870001084201DC00DD01EE
:100A8000DE01DF010A30DC35DD0DDE0DDF0D890B07
:100A9000432D58085C044001EB00420159085D04F5
:100AA0004001EC0042015A085E044001ED004201A1
:100AB0005B085F044001EE009331722380314401F2
:100AC0006D08093E86000130870016000104031DF1
:100AD000722D6D08093E8600013087008130C03FCD
:100AE0000030C13F00304101A3000630A2000030B9
:100AF000A1000030A0000030A7000030A6000030A8
:100B0000A5000230A40044016D08093E86000130B2
:100B10008700403F4101A800413FA90098319A2039
:100B20008031093044016C06031DE72D003041017E
:100B3000A3000730A2000030A1001C30A00000304C
:100B4000A7000030A6000030A5000030A4001C3033
:100B5000AB000130AA000030A9003430A800983161
:100B6000CD20803100304101A3000930A2000030C7
:100B7000A1000030A0000030A7000030A600003027
:100B8000A5000030A4003C30A8000F30A900983127
:100B90009A20803100304101A3000730A2000030CC
:100BA000A1001030A0000030A7000030A6000030E7
:100BB000A5000030A4000830AB00B530AA00A83072
:100BC000A9003330A8009831CD2080311B2E003091
:100BD0004101A3000730A2000030A1001C30A0009A
:100BE0000030A7000030A6000030A5000030A400AF
:100BF0001C30AB000730AA001130A9003430A80027
:100C00009831CD20803100304101A3000930A2008D
:100C10000030A1000030A0000030A7000030A60086
:100C20000030A5000030A4003C30A8001F30A9000F
:100C300098319A20803100304101A3000730A20092
:100C40000030A1005030A0000030A7000030A60006
:100C50000030A5000130A40014304201D80058082B
:100C60004101A800A3317923803100304101A30064
:100C70000730A2000030A1001830A0000030A7000B
:100C80000030A6000030A5000230A4000E30420162
:100C9000D80058084101A800A331792380310030E1
:100CA0004101A3000930A2000030A1000830A000DB
:100CB0000030A7000030A6000030A5000030A400DE
:100CC00081304201D80058084101A800A33179239E
:100CD000803100304101A3000030A2000030A100AB
:100CE0004430A0000030A7000030A6000030A5006E
:100CF0000030A40002304201D80058084101A80089
:100D0000A3317923803101304101AD000030AE00C4
:100D10009631122680314401E101E10AE7010630F3
:100D200067020318C22E0030F4000030F3000030D8
:100D3000F2000130F100A331F02380310030400196
:100D4000E2000030E1000030E0004430DF0000301D
:100D5000E6000030E5000030E4000030E300A2319E
:100D6000A022803102390319B82E4401E101C22EBC
:100D700001304201D80058084401E70706306702F5
:100D8000031C932E61080319CB2EFF304101D000C4
:100D9000FF30D100080044016D08043E8600013098
:100DA000870009300102031C172F6D08043E8600DE
:100DB00001308700193001020318172F7C08093E03
:100DC0008600023087000103031DEB2E6C08A7315B
:100DD0005C278031FA2E44016C084201D800D90109
:100DE00058084101B200420159084101B3008B315A
:100DF0003823803100304001E2000330E100003050
:100E0000E0001830DF000030E6000030E500003080
:100E1000E4000030E300FF30E7008130E8000030FC
:100E2000E9006430EA00A431C8248031322F003058
:100E30004001E2000330E1000030E0001830DF0044
:100E40000030E6000030E5000030E4000030E30050
:100E5000FE304201D80058084001E700E801A33104
:100E6000A023803101304101C8000030C9009B310E
:100E70005723410149084401DE004101480844016B
:100E8000DD005E084101D10044015D084101D00050
:100E9000080040012408AA002508AB002608AC0081
:100EA00003102B0D2C0DAD002D08AE002E08031DD8
:100EB000602F0030A4000030A5000030A60008001C
:100EC0002708AA002808AB002908AC0003102B0D46
:100ED0002C0DAD002D08B3003308031D762F003014
:100EE000A4000030A5000030A600080033087B3EB7
:100EF000AA002A08AE072408AA002508AB00260885
:100F0000AC001030AC36AB0CAA0C890B822F2A082F
:100F1000AD002D08B3002708AA002808AB00290857
:100F2000AC001030AC36AB0CAA0C890B922F2A08FF
:100F3000AD002D08B3068030AA002A08B305A51716
:100F4000A817FF30A705FF30A8050030A90500301D
:100F5000AF000030B0000030B1000730AA002A080E
:100F6000B200241CB92F2708AF072808B03D290874
:100F7000B13D0130A636A50CA40C890BBA2F013067
:100F8000A735A80DA90D890BC02F0130B202031D92
:100F9000B12F0930AA002A08B200241CD52F270837
:100FA000AF072808B03D2908B13D0130A636A50C91
:100FB000A40C890BD62F0130B136B00CAF0C890BC5
:100FC000DC2F0130B202031DCD2F2F08F1003008B5
:100FD000F2003108F3002E08AA002A08F4003308B2
:100FE000AB002B08F5009A318C2271084001A40057
:100FF0007208A5007308A6000800A1311521080099
:101000004001AB00A401AA01A901A501A6012B087A
:101010008600013087000108A2000530A236890B46
:101020000E2822080739A3002308A4002B088600F5
:10103000013087000108A2000330A236890B1D2869
:1010400022080339A3002308AA002B0886000130D8
:1010500087000108A2000230A236890B2C28220842
:101060000139A3002308A9002B088600013087005E
:1010700001360139A2002208A5002B0886000130A4
:10108000870001080139A2002208A6002903031DD8
:101090006E284101DC01DC0A40012A0303195428AF
:1010A00002302A06031D5B2841015D03031D7928D8
:1010B00040019910652803302A06031D6728410165
:1010C0005D03031D79284001991499117928410184
:1010D0005D03031D79284001991078280230A20091
:1010E00022084101DC005D03031D792840019914A9
:1010F000991540012B08033E860001308700010846
:101100007F39A200A3012208F1002308F200143065
:10111000F3000030F400A131802188317108003ED5
:101120004001A7000930723DA8002808FA002708EE
:10113000F900A33153234001A20022084101E3003A
:1011400008004101C101C2010030C6000030C500E5
:101150000030C4000030C3000030BF000230BE00C9
:101160000030BD000130BC000030A3000430A200FC
:101170000030A1000C30A0000030A7000030A60015
:101180000030A5000030A4003F08AB003E08AA00D4
:101190003D08A9003C08A8009831CD2088310030D6
:1011A0004001E2000430E1000030E0000C30DF00DC
:1011B0000030E6000030E5000030E4000030E300DD
:1011C000FF30EB006B08E7001030EC006C08E80023
:1011D000A331A02388314101C001C00AC7010330F7
:1011E0004702031822290030F4000030F3000030D9
:1011F000F2000130F100A331F023883100304001CA
:10120000E2000430E1000030E0002030DF00003078
:10121000E6000030E5000030E4000030E300A231D9
:10122000A0228831013A031D18294101C001222959
:1012300001304001EB006B084101C7070330470252
:10124000031CF328400803192929FF30C100FF308F
:10125000C2000030A3000430A2000030A1000C3016
:10126000A0000030A7000030A6000030A50000302C
:10127000A400A801A3317923883100304101A300E3
:101280000430A2000030A1002030A0000030A700F0
:101290000030A6000030A5000030A400A801A80A74
:1012A000A3317923883100304001E2000430E100AD
:1012B0000030E0000C30DF000030E6000030E500D8
:1012C0000030E4000230E300FF30EB006B08E70081
:1012D000E801E80AA331A023883100304101A300CE
:1012E0000430A2000030A1001430A0000030A7009C
:1012F0000030A6000030A5000030A4009D3101257B
:10130000883141012308C6002208C5002108C40015
:101310002008C300430A031D9A29440A031D9A2981
:10132000450A1F3003194606031D9A29FF30C100E4
:10133000FF30C2000030A3000430A2000030A10042
:101340001C30A0000030A7000030A6000030A5002F
:101350000030A4009D310125883141012308C600D9
:101360002208C5002108C4002008C300430A031D49
:10137000C629440A031DC629450A1F30031946061B
:10138000031DC629FF30C100FF30C2004208BB0068
:101390004108BA0008004101C200BE01BF01C001FE
:1013A000C101421C4219D829C219D829421EC62A95
:1013B000421CEE29C21CE52900304001E200003049
:1013C000E1000030E0000D302D2A00304001E20045
:1013D0000030E1000030E00003302D2AC21D042A55
:1013E000C21CFB2900304001E2000030E100003067
:1013F000E0000F302D2A00304001E2000030E10013
:101400000030E00007302D2A421E1A2AC21C112A81
:1014100000304001E2000030E1000030E0000E301A
:101420002D2A00304001E2000030E1000030E000F1
:1014300005302D2AC21C252A00304001E200003070
:10144000E1000030E00010302D2A00304001E200C1
:101450000030E1000030E0000930DF000030E30040
:10146000E4000030E8000030E7000030E600003023
:10147000E5000030E9000030EA00A2318022893125
:1014800000304001E2000030E1000030E000443074
:10149000DF000030E6000030E5000030E4000330FB
:1014A000E300A231A02289314001EB00EC016B087E
:1014B0004101C00040016C084101C100C019A62AC9
:1014C0000030A3000F30A2000030A1003030A00097
:1014D0000030A7000030A6000030A5000030A400B6
:1014E0009D310125893141012308BD002208BC003E
:1014F0002108BB002008BA000D303C063A043B042A
:101500003D04031DA32A00304001E2000030E10049
:101510000030E0000030DF000030E300E400003085
:10152000E8000030E7000030E6000030E500003061
:10153000E9000030EA00A2318022FF304101BE0004
:10154000FF30BF000800BE01BF01080000304001AD
:10155000E2000030E1000030E0000030DF00003049
:10156000E300E4000030E8000030E7000030E6006F
:101570000030E5000030E9000030EA00A2318022AE
:10158000FF304101BE00FF30BF000800C21E002B2B
:10159000C21CE52A00304001E2000030E1000030CA
:1015A000E0001130DF000030E300E4000030E8002C
:1015B0000030E7000030E6000030E5000030E900D0
:1015C0000030EA00A2318022080000304001E20031
:1015D0000030E1000030E0000B30DF000030E300BD
:1015E000E4000030E8000030E7000030E6000030A2
:1015F000E5000030E9000030EA00A2318022080056
:10160000C21C1D2B00304001E2000030E100003020
:10161000E0000C30DF000030E300E4000030E800C0
:101620000030E7000030E6000030E5000030E9005F
:101630000030EA00A2318022080000304001E200C0
:101640000030E1000030E0000130DF000030E30056
:10165000E4000030E8000030E7000030E600003031
:10166000E5000030E9000030EA00A23180220800E5
:1016700000304101CF000030CE000030CD000030FE
:10168000CC00053032063304031D7E2B0030B7003A
:101690000030B600C030B500FD30B4000030BB00F3
:1016A0000030BA00C430B9003E30B8000030BF008E
:1016B0000030BE00C630BD00BE30BC000030C300EC
:1016C0000030C200C730C1007E30C0000030C7000B
:1016D0000030C600CF30C5003630C4000030CB002B
:1016E0000030CA00CF30C900B530C8000030CF008C
:1016F0000030CE00CF30CD00F530B52B0030B70034
:101700000030B600A830B500FE30B4000030BB0099
:101710000030BA00AC30B9003630B8000030BF003D
:101720000030BE00A530BD00FE30BC000030C3005C
:101730000030C200AF30C1003E30C0000030C700F2
:101740000030C600AF30C5007D30C4000030CB0093
:101750000030CA00AF30C900B530C8000030CF003B
:101760000030CE00AF30CD00B530CC000030A3004B
:101770000330A2000030A1003830A0000030A700E4
:101780000030A6000030A5000030A4003708AB00F0
:101790003608AA003508A9003408A8009831CD20E1
:1017A0008B3100304101A3000330A2000030A100C2
:1017B0003C30A0000030A7000030A6000030A5009B
:1017C0000030A4003B08AB003A08AA003908A90081
:1017D0003808A8009831CD208B3100304101A3009A
:1017E0000330A2000030A1004030A0000030A7006C
:1017F0000030A6000030A5000030A4003F08AB0078
:101800003E08AA003D08A9003C08A8009831CD2058
:101810008B3100304101A3000330A2000030A10051
:101820004430A0000030A7000030A6000030A50022
:101830000030A4004308AB004208AA004108A900F8
:101840004008A8009831CD208B3100304101A30021
:101850000330A2000030A1004830A0000030A700F3
:101860000030A6000030A5000030A4004708AB00FF
:101870004608AA004508A9004408A8009831CD20D0
:101880008B3100304101A3000330A2000030A100E1
:101890004C30A0000030A7000030A6000030A500AA
:1018A0000030A4004B08AB004A08AA004908A90070
:1018B0004808A8009831CD208B3100304101A300A9
:1018C0000330A2000030A1005030A0000030A7007B
:1018D0000030A6000030A5000030A4004F08AB0087
:1018E0004E08AA004D08A9004C08A8009831CD2048
:1018F0008B3100304101A3000330A2000030A10071
:101900001C30A0000030A7000030A6000030A50069
:101910000030A4001030AB000030AA000230A90053
:101920004030A8009831CD208B3100304101A30018
:101930000330A2000030A1002030A0000030A7003A
:101940000030A6000030A5000030A4001B30AB0022
:101950006D30AA00A430A9008930A8009831CD20AC
:1019600008004001DD01DE013E08CC003F08CD004B
:101970004008CE004108CF004208D0004308D10003
:10198000D201D3015008CC075108CD3D5208CE3DBD
:101990005308CF3D1030CF36CE0CCD0CCC0C890B7C
:1019A000CB2C1F304C05D40000304D05D5003E082F
:1019B0004207CC003F08433DCD007F304C05D900A5
:1019C00000304D05DA000030550220300319540272
:1019D000031CF92CDE30B8000030B9008030BA00AA
:1019E000A830BB005130BC00A830BD00A031CB20D6
:1019F0008C31003040015A02803003195902031C17
:101A0000102DDF30B8000030B9008030BA00A830A7
:101A1000BB003E30BC00A830BD00A031CB208C31D3
:101A200040014708031D1B2D4608031D1B2D3130A7
:101A30004502031C2A2DE030B8000030B900803088
:101A4000BA00A830BB006230BC00A830BD00A03195
:101A5000CB208C31803040014B064A040319572DAE
:101A60004A084B040319572D4A03803003194B06CB
:101A70000319572D02304A06803003194B0603190B
:101A8000572D03304A06803003194B060319572D92
:101A9000E530B8000030B9008030BA00A830BB0093
:101AA0000430BC009830BD00A031CB208C31400107
:101AB0005A08CD005908CC00CC35CD0DCC35CD0D14
:101AC0005508CF005408CE000930CE35CF0D890B14
:101AD000652D4C084E04D6004D084F04D70056081B
:101AE0004A04CC0057084B04CD004D08CE004E08E8
:101AF000DB004A0803395604CC004C08DC004708D8
:101B0000460445044404031DA02D80304B064A04BE
:101B10000319992DF130B8000030B9008030BA00B7
:101B2000A830BB002430BC00A830BD00A031CB20C1
:101B30008C3140013E358138CC004C08DB00AD2DA6
:101B400059085A04031DAF2D80304B064A0403196F
:101B5000AD2D4A084B04031DAF2D0130B12D5B178D
:101B60000230DD000030DE002D2ED8017C08143E4E
:101B700086000230870001080319FC2D5B30F1005C
:101B80000030F2005E08F4005D08F300F501A431B6
:101B900019248C314001CC004C08D8004908F200CF
:101BA0004808F1004508F4004408F3005808CC0048
:101BB0004C08F500A43119248C314001CD004D08AA
:101BC000D8005E08A1005D08A0005B30CC004C0886
:101BD000A2004708A6004608A5004508A40044083E
:101BE000A3004908A8004808A7005808CD004D08E0
:101BF000A900A3310723080040015E08A1005D0889
:101C0000A0005B30CC004C08A2004708A6004608A4
:101C1000A5004508A4004408A3004908A8004808F6
:101C2000A700A1314A21080040015E08A1005D081B
:101C3000A0005B30CC004C08A2004708A600460874
:101C4000A5004508A4004408A3004908A8004808C6
:101C5000A700A1312F2108002C2E40014B08003A8B
:101C60000319362E803A03193B2E2C2E4A08003ACF
:101C70000319142E2C2E4A08003A0319B52D013AE7
:101C80000319B52D033A0319B52D013A0319B52DE2
:101C90002C2E08007C080F3E860002308700810150
:101CA0007C08103E8600023087000230C03F0030C2
:101CB000C13F7C08143E86000230870081017C0809
:101CC000153E86000230870081017C080A3E8600AE
:101CD0000230870081017C080B3E860002308700BD
:101CE00081017C08223E8600023087000030C03F20
:101CF000C13F7C08243E8600023087000030C03F90
:101D0000C13F7C08263E8600023087000030C03F7D
:101D1000C13F7C08283E8600023087000030C03F6B
:101D2000C13F7C082C3E8600023087000030C03F57
:101D3000C13F7C082A3E8600023087000030C03F49
:101D4000C13F0030F4000030F3000030F2000230F8
:101D5000F100A331F0238E31A53191258E3141015F
:101D60003E083F040319B92EFF30C200FF30C30004
:101D70000800A431F8248E31003A0319B92E04303A
:101D80004101BA000030BB009D3170258E31410108
:101D90003D08CC003C08CB003B08CA003A08C9000B
:101DA0000530BA000030BB009D3170258E314101F5
:101DB0003D08D0003C08CF003B08CE003A08CD00DB
:101DC0000A30BA000030BB009D3170258E314101D0
:101DD0003A08C4003B08C5003C08C6003D08C700DF
:101DE0001030C736C60CC50CC40C890BF12E440844
:101DF0001F39C8007C08083E86000230870048086A
:101E000081004C084B044A0449040319182F500858
:101E10004F044E044D040319182F7C08083E860019
:101E20000230870001080319182FA631CA268E3107
:101E300020304101BA000030BB009D3170258E3149
:101E4000403041013A06023003193B0610300319B5
:101E50003D063C04031D342F7C08093E86000230F9
:101E600087008101810A3A2F7C08093E86000230F2
:101E700087008101421E502F0630BA000030BB009F
:101E80009D3170258E317C0886000230870041012B
:101E90003A08C03F3B08C13F3C08C23F3D08C33F32
:101EA000C21E672F0730BA000030BB009D3170257D
:101EB0008E317C08043E86000230870041013A08DA
:101EC000C03F3B08C13F3C08C23F3D08C33F421FE3
:101ED0007A2F0830BA000030BB009D3170258E315A
:101EE00041013A08C4007C080A3E8600023087009F
:101EF00044088100C21F8D2F0930BA000030BB009A
:101F00009D3170258E3141013A08C4007C080B3E9A
:101F1000860002308700440881007C080B3E860062
:101F2000023087000108031D9E2F8530C4007C0805
:101F30000B3E860002308700440881007C080A3E80
:101F40008600023087000108031DAF2F7430C400E3
:101F50007C080A3E860002308700440881001F305A
:101F6000BA000030BB009D3170258E3141013A0826
:101F7000C4007C080D3E86000230870044088100C2
:101F80001E30BA000030BB009D3170258E314101FA
:101F90003A087F39C4007C080E3E86000230870074
:101FA000440881007C080E3E86000230870001084C
:101FB000031DE32F2E30C4007C080E3E8600023045
:101FC0008700440881000030A3000930A2000030DF
:101FD000A1001430A0000030A7000030A60000309F
:101FE000A5000030A4007C08860002308700023083
:101FF0004E3FA800A33179234101C201C30108006B
:1020000000304001A3000030A2000030A1000030E9
:10201000A000711C142875084001A0077608A13D96
:102020007708A23D7808A33D0130F535F60DF70D90
:10203000F80D890B15280130F436F30CF20CF10C75
:10204000890B1C287408730472047104031D092889
:1020500040012308F4002208F3002108F2002008C0
:10206000F10008004101320835074001EB00410151
:102070003308363D4001EC0004306C020030031997
:102080006B0203180800003041013602803003194A
:10209000350203186F2800304001E2001430E100DF
:1020A0000030E0000030DF00410136084001E4006C
:1020B000410135084001E300410132084001E500DB
:1020C000410133084001E600E701E801410134081D
:1020D0004001E9000230EA00A2318022080000300D
:1020E0004101A3001F30A2000030A1000430A00075
:1020F0000030A7000030A6000030A5000030A4008A
:102100000030AB000030AA000030A9001430A80055
:102110009831CD20903100304101A3001F30A20042
:102120000030A1000830A0000030A7000030A60059
:102130000030A5000030A4003508A8003608A9002A
:10214000AA01AB019831CD20903100304001E2006E
:102150001D30E1000030E0000030DF000030E3001F
:10216000E400410132084001E5004101330840012B
:10217000E600E701E801410134084001E9000230CE
:10218000EA00A2318022080001304001ED00003059
:10219000EE00A6310426903141013908B2003A0818
:1021A000B300890D893B8909B400B500B6019131AE
:1021B000F921903141013908AD003A08AE00890D8E
:1021C000893B8909AF00B00099312121903100305D
:1021D0004101A3000830A2000030A1001C30A00083
:1021E0000030A7000030A6000030A5000030A40099
:1021F000FF303705A8000F303805A90098319A2024
:10220000903100304001E2000830E1000030E00091
:102210001030DF000030E6000030E5000030E40060
:102220000030E300FF304101BB003B084001E70004
:1022300003304101BC003C084001E800A331A02369
:10224000903100304001E2000830E1000030E00051
:102250001030DF000030E6000030E5000030E40020
:102260000030E300A231A02290310139031D212961
:10227000A131B721903100309931D2219031053010
:102280004001ED000030EE00A63104269031003010
:102290004001E2000730E1000030E0001C30DF00C8
:1022A0000030E6000030E5000030E4000030E300DC
:1022B000A231A0220800F2012730F3000030F40020
:1022C00009304001A3002308F500D430A731AD2721
:1022D00091317F304001A3002308F1001430A400A5
:1022E0002408F2002708A031222091314001A500E6
:1022F0002508A700F101F2012808A0312220913120
:102300004001A3002308A8000D30A3002308F1001A
:10231000F2012908A031222091314001A4002408B3
:10232000A9006030A3002308F1004030A400240875
:10233000F2002A08A031222091314001A500250891
:10234000AA007F30A3002308F1001030A400240865
:10235000F2002B08A031222091314001A500250870
:10236000AB000F30A3002308F1000330A4002408C1
:10237000F2002C08A031222091314001A50025084F
:10238000AC00F101F2012D08A03122209131400171
:10239000A3002308AD004630A3002308F100043059
:1023A000A4002408F2002E08A0312220913140011F
:1023B000A5002508AE000330A3002308F100F201B8
:1023C0002F08A031222091314001A4002408AF0041
:1023D000F2012730A3002308F3000930A4002408E9
:1023E000F400D430A4319B244001A5002508A600A8
:1023F000080000304001E2000730E1000030E0005A
:102400004830DF000030E6000030E5000030E40036
:102410000030E300FF30EA00FF30E900FF30E80061
:10242000FF30E7000830EE000030ED000830EC002F
:102430000030EB0093317223913100304001E20013
:102440000730E1000030E0004830DF000030E600F7
:102450000030E5000030E4000030E300FF30EA0027
:10246000FF30E900FF30E800FF30E7000030EE0009
:102470006030ED000030EC006030EB0093317223EF
:102480009131053041013206330434043504031D13
:10249000682A00304001E2000730E1000030E0002F
:1024A0000030DF000030E6000030E5000030E400DE
:1024B0000030E300FF30EA00FF30E900FF30E800C1
:1024C000FF30E7000230EE000030ED003C30862A9D
:1024D00000304001E2000730E1000030E000003051
:1024E000DF000030E6000030E5000030E40000309E
:1024F000E300FF30EA00FF30E900FF30E800FF3082
:10250000E7000230EE000030ED001C30EC0000303F
:10251000EB00933172239131410136080319080011
:102520000030A3000730A2000030A1001430A0004A
:102530000030A7000030A6000030A5000030A40045
:102540000130AB000130AA001130A9000030A80012
:102550009831CD20080005304101D0005008D4004A
:102560007C08083E86000230870001080319BB2A58
:10257000A631CA26923100304101A3000730A200E3
:102580000030A1005030A0000030A7000030A600AD
:102590000030A5000130A4001430D0005008A8007D
:1025A000A3317923923100304101A3001F30A200F2
:1025B0000030A1000C30A0000030A7000030A600C1
:1025C0000030A5000030A4000030AB000030AA00AD
:1025D0000030A9001830A8009831CD209231003089
:1025E0004101A3001F30A2000030A1001030A00064
:1025F0000030A7000030A6000030A5000030A40085
:102600000030AB000030AA000030A900E830A8007C
:102610009831CD2092319A31F0229231003041012F
:10262000A3000130A2000030A1001430A00000304F
:10263000A7000030A6000030A5000030A400A6319D
:102640008726923141012108D6002008D50056087E
:10265000D1005508D000D136D00CD136D00CD136AF
:10266000D00CF8305005D20000305105D3000030B6
:102670005302093003195202031C08005608D10006
:102680005508D000D136D00CD136D00CD136D00C74
:10269000F8305005D20000305105D300003053020D
:1026A00019300319520203180800551C5B2B09301E
:1026B000D0005008D4007C08093E86000230870014
:1026C0000103031D672B5408A7315C270800410153
:1026D0005408D000D1015008B2005108B3008B312A
:1026E00038230800400167084101A0002008A50028
:1026F000400167084101A000400168084101A100B4
:10270000400169084101A20040016A084101A3009B
:102710000830A336A20CA10CA00C890B892B200831
:10272000A4002408A600400167084101A000400160
:1027300068084101A100400169084101A20040016F
:102740006A084101A3001030A336A20CA10CA00C12
:10275000890BA42B2008A4002408A70040016708C7
:102760004101A000400168084101A1004001690841
:102770004101A20040016A084101A3001830A336BC
:10278000A20CA10CA00C890BBF2B2008A4002408CC
:10279000A80040016B084101A0002008A9004001E9
:1027A0006B084101A00040016C084101A1004001FB
:1027B0006D084101A20040016E084101A3000830EC
:1027C000A336A20CA10CA00C890BE02B2008A400BE
:1027D0002408AA0040016B084101A00040016C08D8
:1027E0004101A10040016D084101A20040016E08B5
:1027F0004101A3001030A336A20CA10CA00C890B40
:10280000FB2B2008A4002408AB0040016B08410109
:10281000A00040016C084101A10040016D08410188
:10282000A20040016E084101A3001830A336A20C9B
:10283000A10CA00C890B162C2008A4002408AC00C5
:1028400040016208C1006108C0006008BF005F0865
:10285000BE006408C3006308C2000030C700003037
:10286000C6000030C5000830C400A530C8000030E4
:10287000C9000330CA008030CB008C31B12408007D
:1028800026304001AC002C08B20040012508AD0004
:102890002408AC00A40A0319A50A2C0884002D08FA
:1028A00085000008AE002E08B7003708031908009D
:1028B000253037060319612C3708A0311D209431CB
:1028C000452C4001B0018C2C320886008701403F26
:1028D000B300413FB4000230AC002C08B20733080B
:1028E0003404031D772C9830B300A830B4003308AB
:1028F00084003408850012000319452C3308840035
:10290000340885000008A0311D20943101304001B9
:10291000B3070030B43D772C2508AD002408AC0087
:10292000A40A0319A50A2C0884002D0885000008B4
:10293000B700003A0319232D643A0319A62C0D3A67
:102940000319A62C1A3A0319642C452C3208860068
:102950008701403FB500413FB6000230AC002C0873
:10296000B207B61FBC2C0330AC002C08B004B5096C
:10297000B609B50A0319B60AB701B70A0530370612
:102980000319E12C3708AC00AD01AC35AD0D8E302C
:102990002C078400A8302D3D8500003FAE00013F8C
:1029A000AF002F083602031DD72C2E083502031C5A
:1029B000E12C0130AC002C08B70705303706031DA9
:1029C000C22C300803390319E92C2D30A0311D2009
:1029D000943140013708AC002C08B100FF304001B1
:1029E000AC002C08B107310A0319452C0A30A000AD
:1029F0000030A1003108AC00AD01AC35AD0D8E301A
:102A00002C078400A8302D3D8500003FF100013FD8
:102A1000F2003608F4003508F300A531282594317A
:102A200072084001A3007108A200A4316E24943101
:102A300040012008303EAE002E08B7003708A03114
:102A40001D209431EE2C080000304101300280300E
:102A500003192F0203188B2D3108B200B301B40102
:102A6000B5010B30B235B30DB40DB50D890B322D58
:102A70002F08B6003008B700B801B9011030B635DC
:102A8000B70DB80DB90D890B3F2D2D08BA002E08D2
:102A9000BB00BC01BD013A08B6043B08B7043C08C2
:102AA000B8043D08B90432083604C00033083704BE
:102AB000C10034083804C20035083904C3000030AE
:102AC0004001E2000030E1000030E0002430DF008F
:102AD0000030E6000030E5000030E4000030E300A4
:102AE000FC30EA000030E900F430E8000030E70094
:102AF000410143084001EE00410142084001ED0060
:102B0000410141084001EC00410140084001EB0057
:102B100093317223080041013108B200B301B401BE
:102B2000B5010B30B235B30DB40DB50D890B922D37
:102B30002F08803EB6000030303DB7003608B800A0
:102B40003708B900BA01BB011030B835B90DBA0D5C
:102B5000BB0D890BA52D2D08BC002E08BD00BE01A4
:102B6000BF013C08B8043D08B9043E08BA043F0858
:102B7000BB0432083804C00033083904C1003408EB
:102B80003A04C20035083B04C30000304001E200B3
:102B90000030E1000030E0002430DF000030E600CB
:102BA0000030E5000030E4000030E300FC30EA00D3
:102BB0000030E900F430E8000030E700410143084C
:102BC0004001EE00410142084001ED004101410891
:102BD0004001EC00410140084001EB0093317223B9
:102BE000953100304001E2000830E1000030E000A3
:102BF0000030DF000030E6000030E5000030E40087
:102C00000030E300A231A0224101B200B301B401BF
:102C1000B5013508C3003408C2003308C1003208CA
:102C2000C000080041012D032E04031D3B2E05307A
:102C30004001ED000030EE00A63104269631003050
:102C40004001E2001130E1000030E0000830DF0018
:102C50000030E6000030E5000030E4000130E30021
:102C6000FF304101AF002F084001E700E801E80A0A
:102C7000A331A0230800023041012D062E04031DBC
:102C8000A82E00304001E2001130E1000030E000E9
:102C90000430DF000030E6000030E5000030E400E2
:102CA0000030E300FF304101AF002F084001E70092
:102CB00003304101B00030084001E800A331A023F7
:102CC000963100304001E2001130E1000030E000B8
:102CD0000830DF000030E6000030E5000030E4009E
:102CE0000030E3000030EA000030E900FE30E80088
:102CF000FF30E7000030EE008030ED000030EC00E7
:102D00000030EB0093317223963100304001E20035
:102D10001130E1000030E0000830DF000030E60054
:102D20000030E5000030E4000230E3007F30410174
:102D3000AF002F084001E700E801A331A02396313E
:102D400005304001ED000030EE00A63104260800F9
:102D500000304001E2001130E1000030E0000430BA
:102D6000DF000030E6000030E5000030E400003015
:102D7000E300FF304101AF002F084001E700E80108
:102D8000E80AA331A023963100304001E20011305F
:102D9000E1000030E0000830DF000030E6000030E5
:102DA000E5000030E4000030E3000030EA000030CD
:102DB000E900FE30E800FF30E7000030EE00803030
:102DC000ED000030EC000030EB00933172239631BF
:102DD00000304001E2001130E1000030E000083036
:102DE000DF000030E6000030E5000030E400023093
:102DF000E3007F304101AF002F084001E700E80108
:102E0000A331A0230800A0311A2097317208410194
:102E1000BC007108BB0002303A06031D472F00308A
:102E2000A3000030A2000030A1003C30A000003020
:102E3000A7000030A6000030A5000030A40035082F
:102E4000AB003408AA003308A9003208A800983162
:102E5000CD20973100304101A3000030A2000030A6
:102E6000A1004030A0000030A7000030A6000030D4
:102E7000A5000030A4003908AB003808AA003708C4
:102E8000A9003608A8009831CD209731F82F4101CC
:102E90003A03031DA02F00304001E2000030E100A2
:102EA0000030E0003C30DF000030E6000030E5009C
:102EB0000030E4000030E300FF30EA00FF30E900BA
:102EC000FF30E800FF30E700410135084001EE0027
:102ED000410134084001ED00410133084001EC009C
:102EE000410132084001EB009331722397310030E9
:102EF0004001E2000030E1000030E0004030DF003F
:102F00000030E6000030E5000030E4000030E3006F
:102F1000FF30EA00FF30E900FF30E800FF30E70053
:102F2000410139084001EE00410138084001ED003F
:102F3000410137084001EC00410136084001F42FFF
:102F400000304001E2000030E1000030E0003C30A1
:102F5000DF000030E6000030E5000030E400003023
:102F6000E300410132094001E7004101330940011A
:102F7000E800410134094001E900410135094001FF
:102F8000EA000030EE000030ED000030EC000030D0
:102F9000EB0093317223973100304001E2000030A2
:102FA000E1000030E0004030DF000030E60000309B
:102FB000E5000030E4000030E30041013609400143
:102FC000E700410137094001E800410138094001AB
:102FD000E900410139094001EA000030EE0000300B
:102FE000ED000030EC000030EB009331722397319C
:102FF00041013C08F2003B08F100A0311820080014
:1030000000344034013400346D346F34643465343A
:1030100020343D343D342034443457343334303458
:10302000303430345F345334503449345F3457349F
:1030300052345F3442344934543420347C347C3448
:1030400020346D346F346434653420343D343D3481
:1030500020344434573433343034303430345F34F3
:103060005334503449345F34523444345F3442343E
:103070004934543420347C347C3420346D346F34FF
:103080006434653420343D343D3420344434573482
:1030900033343034303430345F3453345034493482
:1030A0005F3441344E3444345F344F3452345F34EF
:1030B000383420347C347C3420346D346F346434C0
:1030C000653420343D343D34203444345734333473
:1030D0003034303430345F345334503449345F3416
:1030E00041344E3444345F344F3452345F343134DD
:1030F000363420347C347C3420346D346F34643482
:10310000653420343D343D34203444345734333432
:103110003034303430345F345334503449345F34D5
:1031200041344E3444345F344F3452345F3433349A
:103130003234003441012808FB007B084001EB00D9
:1031400041012908FB007B084001EC0041012308F4
:103150004001E200410122084001E1004101210853
:103160004001E000410120084001DF004101250845
:103170004001E400410124084001E3000030E80080
:103180000030E7000030E6000230E5006B30E90077
:103190000030EA00A231802208004101B001B101F3
:1031A0003108803AFB0080307B02031DD9280430AF
:1031B00030020318FA2841012808FB003008AC3E11
:1031C000860087017B0881000830AB36AA0CA90C69
:1031D000A80C890BE5280130B0070030B13D31085B
:1031E000803AFB0080307B02031DF8280430300257
:1031F000031CDB28410123084001E20041012208B1
:103200004001E100410121084001E00041012008A6
:103210004001DF00410125084001E400410124088C
:103220004001E3000030E8000030E7000030E60035
:103230000430E500AC30E9000030EA00A231802221
:103240000800053041012D062E042F043004031D13
:103250004D2900304001E2000730E1000030E0007D
:103260000430DF000030E6000030E5000030E4000C
:103270000030E300FF30EA00FF30E900FF30E800F3
:10328000FF30E7000230EE000030ED003C30EC0093
:103290000030EB00933172230800093041012D0604
:1032A0002E042F043004031D080000304001E2000A
:1032B0000730E1000030E0000430DF000030E600BD
:1032C0000030E5000030E4000030E300FF30EA00A9
:1032D000FF30E900FF30E800FF30E7000230EE0089
:1032E0000030ED001C30EC000030EB009331722315
:1032F000080040019A019901960197019801073051
:10330000950007309100EF309200DF309300F030ED
:103310009400F0307E01D900CE01FE30C3000730AA
:10332000E4000730B800DA01E501C401B901183042
:10333000CF00E601BA01C501D001DB0100308B1BD3
:103340000130FA008B1355307D018F00AA308F00B9
:103350000F1040019312931717307D01CB001030EE
:103360007E01A50055307D018F00AA308F000F141B
:103370007A1CBC298B17BD298B1340011910131718
:103380009910991196110030F4000030F3000130CB
:10339000F2002C30F100A331F0234001991499156B
:1033A000961508004001EB0000304101A3000730F2
:1033B000A2000030A1004830A0000030A70000307B
:1033C000A6000030A5000030A4000030AB000030A3
:1033D000AA000030A9000030A8009831CD20993112
:1033E00000304101A3000730A2000030A1000030EE
:1033F000A0000030A7000030A6000030A50000307B
:10340000A4000030AB000030AA000030A90000305A
:10341000A8009831CD20993140016B0803190800AC
:1034200000304101A3000730A2000030A100143099
:10343000A0000030A7000030A6000030A50000303A
:10344000A4001C30AB000030AA000030A9000030FE
:10345000A8009831CD200800F6004301901A08001A
:103460007608F100F201F135F20DF135F20D710837
:10347000013EF3000030723DF40000307307840019
:103480009830743D850000088F007608F100F20145
:10349000F135F20DF135F20D0030710784009830EE
:1034A000723D85000008900091017608F100F2015C
:1034B000F135F20DF135F20D7108023EF3000030E6
:1034C000723DF4000030730784009830743D85002D
:1034D00000088D007608F100F201F135F20DF135AA
:1034E000F20D7108033EF3000030723DF40000302D
:1034F000730784009830743D85000008F500F50DD1
:10350000F50D400113087506FB3975069300131479
:10351000931043019016080074080319942A730845
:1035200072047104031DA52A0030F1000030F2007E
:103530000030F30008000130F6007608F40701308F
:10354000F336F20CF10C890BA02AFE307305031937
:10355000BE2A9B2A0130F6007608F4070130F107F5
:10356000003003180130F207003003180130F30770
:103570000130F336F20CF10C890BB92AFF307305D8
:103580000319CB2AAA2A0130F4020130F135F20DD9
:10359000F30D890BC62AF21BD12A023074020318DC
:1035A000C32A7418D92AFF30F1057F30F205FF30A5
:1035B000F3050310F40C7408F600F701F80110305D
:1035C000F635F70DF80D890BE02A7608F104770837
:1035D000F2047808F304750803190800F3170800CB
:1035E000392B00304001E2000B30E1000030E000F8
:1035F0000830DF000030E6000030E5000030E40075
:103600000030E3000030EA000030E900E730E80075
:10361000FF30E7000030EE000030ED000430EC0039
:103620000030EB0093317223080000304001E200CB
:103630000B30E1000030E0000830DF000030E60031
:103640000030E5000030E4000030E3000030EA0024
:103650000030E900E730E800FF30E7000030EE001E
:103660000030ED000C30EC000030EB0093317223A1
:1036700008007C08103E860002308700403F410170
:10368000AD00413FAE00E0302D05AF0000302E050B
:10369000B0003008003A03194E2B562B2F08203A61
:1036A0000319F12A403A0319152B562B0800410142
:1036B00048034904031D902B0030A3000730A200EB
:1036C0000030A1004830A0000030A7000030A60064
:1036D0000030A5000030A400A63187269B314101AF
:1036E0002108CD002008CC0000304001E200073066
:1036F000E1000030E0004830DF000030E60000303C
:10370000E5000030E4000030E300FF30E700FF3068
:10371000E8000530E9000130EA00A431C8249B31FB
:103720008831A1209B3141013B08CB003A08CA00F7
:1037300048034904031DBA2B00304001E200073062
:10374000E1000030E0004830DF000030E6000030EB
:10375000E5000030E4000030E30041014D08400185
:10376000E80041014C084001E7000030E900EA00B0
:10377000A431C82441014B08C9004A08C800080008
:10378000A03175209B31640002309E31E8269B31C8
:1037900091315B219B3103304101D8000830D700C3
:1037A0007730890BD12BD70BD12BD80BD12B7E01A6
:1037B0003A13400116137E01BA13400196177E0199
:1037C00045164001171601309E31E8269B31153011
:1037D0004101D700C630890BEB2BD70BEB2B000038
:1037E0008B170B17A031B6209B3164009C31292424
:1037F0009B319F3174279B3101309E31E8269B31EC
:10380000A7310E279B31A5315C259B3140010D1C52
:10381000062C2C304201D4070130D53D0030D63D76
:103820000030D73D8B1741015F03031DF92B0000CA
:103830000000000000000000000000000000000088
:103840000000630000000000000000000000000015
:10385000F92BA031FB209C3100304101C200C30094
:103860008E314A269C314101420A031D3B2C430AFA
:10387000031D3B2C3A2CA630803193209C31BC3068
:103880009D31E5259C3101304001ED000030EE0016
:1038900031304101D20052084001EF00A6314526E7
:1038A0009C3101304101A0000030A100A531C825A4
:1038B0009C3100304101B5008030B4000030B300CD
:1038C0000030B2000030B9000030B8000030B7005E
:1038D0000030B600BA01973103279C310130400116
:1038E000ED004030EE00A131D3219C310130400188
:1038F000ED004030EE00A131EF219C31B430840066
:103900000130850008304101D20052080319080037
:103910000530203E86000230870012001E00410163
:10392000D20B8D2C080040012408F1002508F2007C
:10393000F301F4012608A800A901AA01AB012B0894
:10394000F8002A08F7002908F6002808F500903149
:1039500000209C3174084001B1007308B000720867
:10396000AF007108AE0003302706031DDA2C0030CB
:10397000F4000030F3000030F200B530F1003108FF
:10398000F8003008F7002F08F6002E08F5009031F7
:1039900000209C3174084001B1007308B000720827
:1039A000AF007108AE000730B136B00CAF0CAE0CF2
:1039B000890BD42CFF302E05A80007302F05A90055
:1039C0002808003EAC000430293DAD000B30B13674
:1039D000B00CAF0CAE0C890BE72C08302D02003078
:1039E00003192C02031CFC2C0130AE070030AF3D44
:1039F0000030B03D0030B13D2F08A5002E08A400D6
:103A0000080000304101B7000030B6000030B500BA
:103A10000030B40023084001E200410122084001C7
:103A2000E100410121084001E0004101200840017E
:103A3000DF00410125084001E40041012408400164
:103A4000E3000030E8000030E7000030E60004301A
:103A5000E500B0304101A80028084001E900A2318A
:103A600061229D3103304101B8000030B900B91B1B
:103A7000672D3808B03E860087010108A800A9011B
:103A8000AA01AB013408AC003508AD003608AE0021
:103A90003708AF000830AC35AD0DAE0DAF0D890B5A
:103AA0004B2D2C08A8072D08A93D2E08AA3D2F084C
:103AB000AB3D2B08B7002A08B6002908B500280836
:103AC000B400FF30B807FF30B93DB91F392D3708B2
:103AD000A3003608A2003508A1003408A0000800A1
:103AE00000304101C1000030C0000030BF00003094
:103AF000BE000030A3000B30A2000030A10008304F
:103B0000A0000030A7000030A6000030A500003063
:103B1000A4000130A8000030A90098319A209D31FE
:103B200000304101A3000B30A2000030A10004309E
:103B3000A0000030A7000030A6000030A500003033
:103B4000A4003B08A9003A08A80098319A209D31AA
:103B500000304101A3000B30A2000030A10008306A
:103B6000A0000030A7000030A6000030A500003003
:103B7000A4000230A8000030A90098319A209D319D
:103B800000304101A3000B30A2000030A100103032
:103B9000A0000030A7000030A6000030A5000030D3
:103BA000A4009D31012541012308C1002208C00065
:103BB0002108BF002008BE004108BD004008BC002D
:103BC0003F08BB003E08BA0008004101C0004008A1
:103BD000053E86000130870016000104031D0C2EEF
:103BE0000030A3000730A2000030A1001C30A0006C
:103BF0000030A7000030A6000030A5000030A4006F
:103C000040088600013087000108BD003D08A8007B
:103C1000A33179239D31412E05304101BD003D087E
:103C2000BF0000304001E2000130E1000030E00060
:103C30001430DF000030E6000030E5000030E40022
:103C40000030E300A231A0229D31013903192D2E4D
:103C500009304101BD003D08BF0041014008053E5B
:103C6000860001308700403FB700413FB8003F0861
:103C7000BD00BE013D08B9003E08BA009031C42025
:103C80009D3100304101A3000130A2000030A100AD
:103C90000C30A0000030A7000030A6000030A500C6
:103CA0000030A400400A860001308700403FA80091
:103CB000413FA900423FAA00433FAB009831CD20CD
:103CC000080040013408B8003508B9003608BA00C9
:103CD0000310390D3A0DBB003B08C1004108031D1C
:103CE0007A2E0030B7000030B6000030B50000304A
:103CF000B40008003408B8003508B9003608BA0026
:103D00001730BA36B90CB80C890B812E3808BB00B5
:103D10003B08BC00B517FF30B405FF30B5050030D7
:103D2000B6053408BD003508BE003608BF00C00126
:103D30008E30C102C11FB82E4108803A8F3E031851
:103D4000AA2E0030B7000030B6000030B5000030B9
:103D5000B40008000130C036BF0CBE0CBD0C890B8E
:103D6000AB2E0130B8003808C1070319D12EAA2E96
:103D700018304102031CCE2E0030B7000030B600D0
:103D80000030B5000030B40008000130BD35BE0D74
:103D9000BF0DC00D890BC62E0130C1024108031DA5
:103DA000C52E3C080319DF2EBD09BE09BF09C00995
:103DB000BD0A0319BE0A0319BF0A0319C00A400845
:103DC000B7003F08B6003E08B5003D08B400080043
:103DD000F9004101620879060319080000308B1BC5
:103DE0000130F8008B1355307D018F00AA308F0011
:103DF0000F107903031D3A2F4101E201E20A0F304F
:103E00007E01A3000F30A40043018F0190019201B5
:103E10008D014E010F10191043018C018E011230DB
:103E20007D01C50015307E01A1001430A2001030C4
:103E30007D01C600803043018F00900101308D006C
:103E4000400113111314430190121530F700C630CE
:103E5000890B282FF70B282F003200309A312C22A3
:103E60009E311530F700C630890B342FF70B342FF5
:103E70000032682F02307906031D682F0230F700E8
:103E800077084101E2000F307E01A1000F30A2004F
:103E900043018F01900192018D014E010F10191005
:103EA00043018C018E0114307E01A3001530A40063
:103EB00013307D01C5001430C600A03199209E3119
:103EC0001530F700C630890B632FF70B632F0032D4
:103ED00055307D018F00AA308F000F14781C722F8F
:103EE0008B1708008B13080000308B1B013040013A
:103EF000B20003304201EB070030EC3D00306C02B1
:103F0000323003196B02031C0800EB01EC01013095
:103F10004001B00030084101DB0702309E31E82645
:103F20009F3100308B1B01304001B2008B130630F3
:103F300041015B02031CD42FDB0102304001B000C1
:103F40003008F200D430A331C8239F314001B100C2
:103F500031084201CA004A1CB92F91315B219F31BF
:103F600034304001B000F130890BB42FB00BB42FC6
:103F7000003242014A083F3980384001B000300821
:103F80004201CA0002304001B0003008F200420194
:103F90004A084001B1003108F300D430A2310B22AD
:103FA0009F31A3312D239F310030F100F2000A3000
:103FB000F3000030F4004A30A13165219F31410106
:103FC0005E084001B0003008F2004A30F3000130D2
:103FD000F4000A30B1003108F500D430A731AD2724
:103FE0009F314001321CF62F8B17F72F8B130A30AD
:103FF0004001B0003008A1004A308831002008009C
:104030000800A034F101F2010800F2007208A0317A
:1040400045200800F300710973057204080043015C
:104050009114911C0800292843011114111C080017
:104060002E2843011115111D080033281E34003479
:104070001E34023401340B3401344F019601970190
:10408000980199019A019B010800F1004E010F1E51
:104090004628710842019A00080041016108400168
:1040A0009D004101600840019C0008006030510102
:1040B0008D008F0191010630930092010800F100FC
:1040C000710843018C004E010F1C63280F1043013F
:1040D0000C080800F100710843018C000F196E28CC
:1040E000110E890C890C01390800013050018C0037
:1040F000A0315620A031A0313D20A0319931792145
:1041000008006400800101310130FE020030FF3BF5
:104110007F087E04031900348228FE0012001E006E
:104120000130FE020030FF3B7F087E04031900349B
:104130008E28803043018F00283090000830920094
:104140004F308D004E010F1019100800F10043018F
:104150009115710C031C9112031891160F1CAE28B7
:1041600091111116111AB2280C08080001304001F3
:104170009E0097309F0024309D009C011D08410146
:10418000E10040011C084101E0004E018C1296162E
:1041900040019E17080000304001A400A830A5008F
:1041A0003B08A7003A08A6003908A9003808A8006B
:1041B0003D08AB003C08AA0094314024A031DF2820
:1041C00008007308F7007208F6000130F4020030AE
:1041D000F53B740A0319750A03190800760886006E
:1041E000770887000108A0315F20A0310130F60771
:1041F0000030F73DE528400117120030F400003090
:10420000F3000030F2000130F100A331F023A031BF
:10421000400117160030F4000030F3000030F200C7
:104220000230F100A331F0230800400116170030DE
:10423000F4000030F3000030F2000130F100A3314F
:10424000F023A131400116130030F4000030F300D8
:104250000030F2000230F100A331F02308004001E9
:1042600096132208F2000030F3002108F500200820
:10427000F400A031E120A13140012808F300270813
:10428000F2002408F5002308F400A231272240019F
:1042900096170800400196132208F2000030F30040
:1042A0002108F5002008F400A031E120A1314001EF
:1042B0002808F3002708F2002408F5002308F4007A
:1042C000A031E120400196170800F6007608F500BD
:1042D0007508F7000130F3020030F43B730A03194C
:1042E000740A031908007108F50077088600013088
:1042F0008700750881000130F5007508F7076A2905
:10430000F501F601711C88297308F5077408F63D5C
:104310000130F335F40D890B89290130F236F10CA7
:10432000890B8E2971087204031D82297608F20018
:104330007508F10008004001EB0000304101A300C6
:104340000030A2000030A1002830A0000030A700FB
:104350000030A6000030A5000130A40040016B0829
:10436000FB007B084101A800A3317923080000303D
:104370004101A3000730A2000030A1000430A000DA
:104380000030A7000030A6000030A5000030A400D7
:104390000030AB000030AA000030A9000030A800B7
:1043A0009831CD20080000304101A3000E30A2005A
:1043B0000030A1000030A0000030A7000030A600AF
:1043C0000030A5000030A40040016E084101A900A2
:1043D00040016D084101A80098319A200800003082
:1043E0004101A3000130A2000030A1000430A00070
:1043F0000030A7000030A6000030A5000030A40067
:1044000040016E084101A90040016D084101A8006A
:1044100098319A200800F500A0312C20A2317508AF
:10442000A0316A20A231F4007408F6007208A031AD
:104430006A20A231F4007408F6007308A0316A20E3
:10444000A231F4007408F600A0313120080073088E
:10445000F8007208F7000130F4020030F53B740AEE
:104460000319750A031908000030A0315F20A2313A
:10447000F60077088600780887007608810001300A
:10448000F7070030F83D2B2A00304101A30000302F
:10449000A2000030A1000030A0000030A7000030D2
:1044A000A6000030A5000030A4009D310125410187
:1044B0002308BD002208BC002108BB002008BA0068
:1044C000080040016208C1006108C0006008BF0028
:1044D0005F08BE006408C3006308C2006808C70024
:1044E0006708C6006608C5006508C4006908C800FA
:1044F0000030C9000030CA00CB008C31B124080064
:1045000040016208C1006108C0006008BF005F0888
:10451000BE006408C3006308C2006808C7006708DB
:10452000C6006608C5006508C4006A08C9006908B5
:10453000C8000030CA008030CB008C31B1240800A4
:1045400040016208C1006108C0006008BF005F0848
:10455000BE006408C3006308C2000030C70000301A
:10456000C6000030C5000130C4007B30C8000030F8
:10457000C9000030CA00CB008C31B1247B08080090
:10458000013400340134003401340034093402347D
:104590000234093409340134003400340034E9347D
:1045A0000334003401340034013400345334FE3415
:1045B000FF34D634F534C8343434FE34FE34FE349B
:1045C000FE3400340034003438340034CA34DE346D
:1045D000003400340034003400340034003400343B
:1045E000003400340034003400340034003400342B
:1045F000003400340034003400340034003400341B
:1046000000340034003400340034003400344001FD
:1046100096132208F2000030F3002108F50020086C
:10462000F400A031E120A33140012808F30027085D
:10463000F2002408F5002308F400A031E120A331A2
:104640002930F2000030F3000130F4000030F500B2
:10465000A031E1204001961708000330F7007708E9
:10466000F200D430A331C823A331F8007808FA004F
:104670006030F7007708F1004030F8007808F20069
:104680007A08A0312220A331F9007908FA0003301A
:10469000F7007708F2007A08F8007808F300D430C1
:1046A000A2310B2208000D307A02AD3003197902D5
:1046B00003185D2B4001A001772B10307A0269307E
:1046C00003197902031C662B6430732B0730F10049
:1046D0000030F2007908543EF300F2307A3DF400E5
:1046E000A53128257108FB007B084001A0002008A7
:1046F0000800410123084001E20041012208400175
:10470000E100410121084001E00041012008400191
:10471000DF00410125084001E40041012408400177
:10472000E3000030E8000030E7000030E600013030
:10473000E500A830E9000030EA00A231802208003C
:1047400040016708FB007B08E9006808FB007B0864
:10475000EA006208C1006108C0006008BF005F088D
:10476000BE006408C3006308C2000030C700003008
:10477000C6000030C5000230C4006930C8000030F7
:10478000C9000130CA008030CB008C31B124080050
:10479000F600A0312C20A3317608A0316A20A33185
:1047A000F3007308F4007208A0316A20A331F3000B
:1047B0007308F400A0312720A3317608013EA03110
:1047C0006A20A331F3007308F4000130A031A62061
:1047D000A331F3007308F500A031312075080800FB
:1047E0000030F9000030F8000030F7000030F6002B
:1047F00074087902031D062C73087802031D062C29
:1048000072087702031D062C71087602031808004F
:104810000B30F5006230890B0B2CF50B0B2C0032A2
:104820000130F6070030F73D0030F83D0030F93D2B
:10483000F82BF801F9017908803AF6007408803AFB
:104840007602031D252C730878020318412C780882
:10485000710786007908723D870001087506F60029
:104860007608F7007708F03E860087012E30873DF6
:104870000108F6007608F5000130F8070030F93D30
:104880001B2C750808008E30F9007908FA00FF30FB
:10489000400123050319592C01304001A336A20C15
:1048A000A10CA00C890B4D2C0130F9007908FA07F6
:1048B000472C2008F1002108F2002208F3007A08B2
:1048C000F9007908F400F5019A318C227108400151
:1048D000A0007208A1007308A2000800400120088F
:1048E00021040319962CFA01FA0AA11B812C01302C
:1048F000A035A10D890B782C0130F9007908FA0751
:10490000752C21082302031D872C20082202031C7A
:104910008D2C2008A2022108A33B0130A136A00C57
:10492000890B8E2C0130FA02031D812C2308A10073
:104930002208A0000800F700A0312C20A43177083D
:10494000A0316A20A431F5007508F8007208A03182
:104950006A20A431F5007508F800F901740879029D
:104960000318C42C79087307F500750886008701C1
:104970000108A0316A20A431F6007608F800013061
:10498000F5007508F907AE2CA03131207808080031
:1049900040016708FB007B08EB006808FB007B0810
:1049A000EC006908FB007B08ED006A08FB007B084F
:1049B000EE006208C1006108C0006008BF005F0827
:1049C000BE006408C3006308C2000030C7000030A6
:1049D000C6000030C5000430C4006B30C800003091
:1049E000C9000230CA008030CB008C31B1240800ED
:1049F00000304101A3000030A2000030A10044308B
:104A0000A0000030A7000030A6000030A500023052
:104A1000A400A6318726A43141012008AC0021085A
:104A2000AD00AE01AF011030AC35AD0DAE0DAF0D28
:104A3000890B142D2F08B3002E08B2002D08B100E9
:104A40002C08B000331C262D01300800003008006F
:104A5000F701F801710872040319572DF601F60ADF
:104A6000F21B3C2D0130F135F20D890B332D013055
:104A7000F5007508F607302D0130F735F80D890B74
:104A80003D2D72087402031D472D71087302031C2B
:104A90004E2D7108F3027208F43B77140130F236A0
:104AA000F10C890B4F2D0130F602031D3C2D7808C7
:104AB000F2007708F100080003304101D907003007
:104AC000DA3D00305A021E3003195902031C080057
:104AD000D901DA0102305C06031D8C2D1A30630205
:104AE000031C7F2D4001991496112030F1002A30CB
:104AF000890B782DF10B782D4001961508004001A7
:104B0000961599102030F1002A30890B852DF10B74
:104B1000852D40019914080040018C190800961554
:104B20000800A2314422A53141013D084201BF00E5
:104B300041013C084201BE0041013B084201BD0069
:104B400041013A084201BC0012303C06033003190F
:104B50003D06CA3003193E06DE3003193F0603192D
:104B6000C42D02303C06033003193D06CA30031938
:104B70003E06DE3003193F060319C42DFF30410104
:104B8000BE00FF30BF0008004101BE01BF010800A8
:104B90004101200821040319E92D00304001E20001
:104BA0001130E1000030E0000830DF000030E600A6
:104BB0000030E5000030E4000030E300FF30E700A3
:104BC000FF30E8000030E9000830EA00A431C824D2
:104BD000080000304001E2001130E1000030E00048
:104BE0000830DF000030E6000030E5000030E4006F
:104BF0000030E300FF30E700F730E8000030E90064
:104C0000EA00A431C824080040016D036E04031DAE
:104C1000272E00304101AA001830AB00AA14AA16B2
:104C20000030A3001130A2000030A1000430A00029
:104C30000030A7000030A6000030A5000030A4001E
:104C40002B08A9002A08A80098319A20A63105301F
:104C500040016D066E04031D080000304101A300F1
:104C60001130A2000030A1000430A0000030A700E5
:104C70000030A6000030A5000030A4000030A800DD
:104C80000230A90098319A2008007C08103E860066
:104C90000230870040016D08810441316E088104B3
:104CA00000304101A3000A30A2000030A100003012
:104CB000A0000030A7000030A6000030A5000030A2
:104CC000A4007C08103E860002308700403FA80008
:104CD000413FA90098319A20A63100304101A3003C
:104CE0000A30A2000030A1001430A0000030A7005C
:104CF0000030A6000030A5000030A40040016F087D
:104D00004101AA002A08A800A33179230800410123
:104D1000A801A90123084001E20041012208400145
:104D2000E100410121084001E0004101200840016B
:104D3000DF00410125084001E40041012408400151
:104D4000E3000030E8000030E7000030E600023009
:104D5000E500AA30EA006A08E900A23161224101B7
:104D60002A084001EA00EB0141012B084001EC0058
:104D7000ED016C08ED00EC016A086C074101A80028
:104D800040016B086D3D4101A9002908A1002808D8
:104D9000A000080000304001E2000B30E1000030CC
:104DA000E0000830DF000030E6000030E5000030B1
:104DB000E4000030E300FF30E700FF30E80080301F
:104DC000E9000130EA00A431C824A63100304001D6
:104DD000E2001130E1000030E0001F30DF00003061
:104DE000E6000030E5000030E4000030E300E03091
:104DF000E700FF30E8007C08083E860002308700AC
:104E000001084101A000A10120084001E900410181
:104E100021084001EA00A431C82408008731FD2799
:104E2000A731A431F824A731003A0319112F923188
:104E3000AB22A73101304001EF006F084401A20707
:104E4000543084000130850004304001EF006F08C9
:104E50000319342F1130203E8600023087001200E3
:104E60001E004001EF0B2F2F410163084001EF00AE
:104E70006F084401B50024304101B2000030B30096
:104E800020304001EF006F084101B4000030B50050
:104E9000B60090313220A73124304101AD000030FE
:104EA000AE000030AF00B000B10195312425A7312C
:104EB00000308931CB210800FB0005307B06031D43
:104EC000852F00304001E2000B30E1000030E000AF
:104ED0000830DF000030E6000030E5000030E4007C
:104EE0000030E3000030EA000030E900DF30E80085
:104EF000FF30E7000030EE000030ED000030EC0045
:104F00004030EB0093317223080009307B06031D0B
:104F1000080000304001E2000B30E1000030E0000A
:104F20000830DF000030E6000030E5000030E4002B
:104F30000030E3000030EA000030E900DF30E80034
:104F4000FF30E7000030EE000030ED002030EC00D4
:104F50004030EB009331722308004001A100A031E2
:104F60002C20A73140012108A0316A20A731F6008A
:104F700076084001A0007208A0316A20A731F6002F
:104F800076084001A000A0312720A7314001210868
:104F9000013EA0316A20A731F60076084001A0004A
:104FA000A201750822020318FD2F7508FF3EF600C6
:104FB000FF3003180030F700220876067704031D3F
:104FC000E32F0130E42F0030A031A620A731F600F6
:104FD00040012208F700F80177087307F900780804
:104FE000743DFA00790886007A0887007608810007
:104FF0000130F6007608A207D12FA0313120080039
:1050000041347334733465347234743469346F34B6
:105010006E3420346634613469346C3465346434FD
:105020003A3420342534733420346C3469346E348B
:1050300065342034253464343A3420342234253421
:10504000733422340A3400346D346F34643465347C
:1050500020343D343D3420344434573433343034F8
:10506000303430345F345334503449345F3457343F
:1050700052345F3442344934543400347234653429
:1050800067345F346F346634663473346534743433
:1050900020343C343D342034303478343734463492
:1050A00000347234653467345F34663469346C3488
:1050B000653420343C343D34203430347834313459
:1050C000463400346C3465346E3467347434683478
:1050D00020343C3420343034783433343134303478
:1050E0003034003400340434A83405340034083437
:1050F00050340B3400341034A134163400342034CE
:1051000064346534633461345F34643465347634D4
:105110006934633465342E3463340034013400342C
:105120000A34003464340034E8340334103427344F
:0E51300028346E3475346C346C3429340034F9
:020000040001F9
:0A000E008C3FFF37EB07FF1FFF3F99
:00000001FF
