:10000000803102288731972FFE0012001E00013038
:10001000FE020030FF3B7F087E04031900340528F0
:100020004001CC00C501CB01CA01C601C7014C0883
:100030008600013087000108A0000530A036890B3A
:100040001E2820080739A1002108C5004C08860099
:10005000013087000108A0000330A036890B2D284D
:1000600020080339A1002108CB004C08860001308C
:1000700087000108A0000230A036890B3C28200828
:100080000139A1002108CA004C0886000130870010
:1000900001360139A0002008C6004C088600013056
:1000A000870001080139A0002008C7004A03031D8A
:1000B000CA284B030319602802304B06031D82280F
:1000C00041016E03031DDD283E30860001308700AC
:1000D000223084000030850005304001A000160069
:1000E0001A00A00B6F2839308600013087002730B6
:1000F0008400003085000530A00016001A00A00B17
:100100007D28DD2803304B06031DA82841016E031E
:10011000031DDD2834308600013087002C30840038
:100120000030850005304001A00016001A00A00B29
:1001300095282F3086000130870031308400003050
:1001400085000530A00016001A00A00BA328DD28AA
:1001500041016E03031DDD282A308600013087002F
:10016000363084000030850005304001A0001600C4
:100170001A00A00BB72825308600013087003B30DD
:100180008400003085000530A00016001A00A00B86
:10019000C528DD2841016E03031DDD2820308600BF
:1001A0000130870040308400003085000530400178
:1001B000A00016001A00A00BD92840014C08033EED
:1001C00086000130870001087F39A000A1012008C6
:1001D000F0002108F1001430F2000030F300A131EA
:1001E0009B2180317008003E4001C8000930713DFC
:1001F000C9004908F9004808F800A331112340015B
:10020000A00020084201D90008004201EF006F0859
:1002100086000230870001084101D80058084201D9
:10022000EE00E401E40A6F08043E86000230870015
:1002300019300102031825296F08033E8600023099
:10024000870019300102031CE40164084101D80051
:1002500058084201E1006F08073E8600023087001F
:10026000010303193629DB01DC013A291030DB00D8
:100270000030DC005B084101D80058084201E20070
:10028000DD01DE01662920304A2940304A29483004
:100290004A298030EC00003064290030EC00013045
:1002A00064290030EC00023064290030EC00043096
:1002B00064290030EC00063064290030EC0008307E
:1002C00064290030EC001030ED0087296F0A8600A9
:1002D000023087000108013A03194529033A03193E
:1002E0005529063A03194329013A03194929033AC2
:1002F00003195929013A031947290E3A03194D29BF
:10030000033A03195D29073A03195129612941016B
:100310006F08103E8600023087001F308105413192
:10032000FF30810542016F08073E860002308700DA
:1003300001084101D8006F080C3E8600023087009A
:10034000580881000130D8000030D90042016F0800
:100350000C3E8600023087000108023E890A4101F6
:10036000B329D835D90D890BB12958084201EA00C3
:10037000410159084201EB006A084101D8004201DD
:100380006B084101D900DA01DB010330D835D90D02
:10039000DA0DDB0D890BC6295B08FB005A08FA0051
:1003A0005908F9005808F800A331A72381317808CB
:1003B0004001A3007908A4007A08A5006630A000D7
:1003C0006630A1003F30A20092310222813140010B
:1003D0002008B0002108B1002208B2009E31562644
:1003E000813141016F08123E8600023087004001D2
:1003F0003008C03F3108C13F42016F080B3E860004
:100400000230870001084101D8006F08153E8600C0
:1004100002308700580881000030A3000030A2009D
:100420000030A1001030A0000030A7000030A6006E
:100430000030A5000030A400FF30AB00FC30AA0063
:100440004F30A900CF30A800420162084101D80016
:10045000D901DA01DB0142016F08083E8600023053
:10046000870001084101DC000430DC35FF3E031D3C
:10047000352A5C352039DD00DE01DF01E001420173
:100480006F080B3E86000230870001080B394101DE
:10049000E100E201610EF039E200E1016108E300F0
:1004A0006208E400E501E60142016F080D3E8600A6
:1004B0000230870001084101E700E801E901EA0193
:1004C0001030E735E80DE90DEA0D890B612A670860
:1004D000E3046808E4046908E5046A08E6046308BC
:1004E000DD046408DE046508DF046608E0045808DB
:1004F0005D04AC0059085E04AD005A085F04AE000C
:100500005B086004AF009231B6228131420161087C
:100510000319252B41016F08103E86000230870029
:10052000603081044131003081040030A3000B3081
:10053000A2000030A1000830A0000030A700003069
:10054000A6000030A5000030A4000030AB00003051
:10055000AA00E730A900FF30A8000030AF0000304B
:10056000AE000C30AD000030AC009231B6228131CB
:1005700000304101AF000E30AE000030AD000C3055
:10058000AC000030B3000030B2000030B1000030E9
:10059000B0000030B7000030B6000330B5000630C0
:1005A000B400A731B427813100304101AF000E30D3
:1005B000AE000030AD000E30AC000030B3000030B3
:1005C000B2000030B1000030B0000030B7000030A1
:1005D000B6000030B5000030B400A731B427813137
:1005E00000304101AF000E30AE000030AD001230DF
:1005F000AC000030B3000030B2000030B100003079
:10060000B0000030B7000C30B6005A30B5000A30E8
:10061000B400A731B427813100304101AF000E3062
:10062000AE000030AD001630AC000030B30000303A
:10063000B2000030B1000030B0007D30D800580862
:10064000B400A231072281311A2C42016F080B3EFF
:1006500086000230870001080319BF2B6F080D3E8A
:10066000860002308700010303193E2B6F080D3E00
:100670008600023087000108031D5C2B6F080C3ECA
:1006800086000230870001084101D800D901D83521
:10069000D90D2D3058078400A930593D8500003F01
:1006A0004001A000013FA10010304101DA005A08CA
:1006B0004001A2000330792B6F080C3E8600023007
:1006C000870001084101D800D901D835D90D2D3056
:1006D00058078400A930593D8500003F4001A00023
:1006E000013FA10010304101DA005A084001A20088
:1006F00004304101DB005B084001A3009B31FE2375
:100700008131400121084201E000400120084201FE
:10071000DF006B084101D90042016A084101D8009D
:10072000D835D90DD835D90DD835D90D580842014D
:10073000EC07410159084201ED3D00304101A300A1
:100740000E30A2000030A1001230A0000030A7003F
:100750000030A6000030A5000230A4008030A800C0
:10076000FF30A9007F3042015F054101AA0000303F
:10077000420160054101AB00A631A2268131420150
:100780006D08803A4101D80081305802031DCB2BFF
:10079000003042016C02031CF62B41016F08103E31
:1007A000860002308700203081044131003081040E
:1007B0000030A3000B30A2000030A1000830A000E0
:1007C0000030A7000030A6000030A5000030A400D3
:1007D0000030AB000030AA00E730A900FF30A800CD
:1007E0000030AF000030AE000430142C0030410166
:1007F000A3000B30A2000030A1000830A0000030A0
:10080000A7000030A6000030A5000030A400003092
:10081000AB000030AA00E730A900FF30A80000308C
:10082000AF000030AE001430AD000030AC009231AB
:10083000B622813100304101A3000630A200003011
:10084000A1000030A0000030A7000030A60000305A
:10085000A5000030A400FC30D8005808A8004201D0
:100860006F088600023087000230423F4101A90034
:10087000A6312A26813100304101AF000230AE009E
:100880000030AD000030AC000030B3000030B200EA
:100890000030B1000030B00042016A08FF3E410163
:1008A000D8005808B400A2310722813142016F0AF2
:1008B00086000230870007300106031D612C0830D6
:1008C000622C0030A2312322813142016F080B3E9D
:1008D000860002308700033001054101D800033053
:1008E0005806031D8B2C0030AF000630AE000030E0
:1008F000AD000C30AC000030B3000030B20000306E
:10090000B1000030B000AF30B7005F30B600353016
:10091000B500CC30A32C00304101AF000630AE0052
:100920000030AD000C30AC000030B3000030B2003D
:100930000030B1000030B000AF30B7005F30B6001B
:100940005830B5004C30B400A731B42781310030A5
:100950004001EB000130EA000030E9001430E8000B
:100960000030EF000030EE000030ED000030EC0011
:100970009C316C24813140016B084201E800400148
:100980006A084201E700400169084201E6004001AF
:1009900068084201E5000030E505E030E60500307A
:1009A000E7050030E80509306E06031965140030CC
:1009B0004101D8001F30D9000030DA000030DB00E0
:1009C00042016F08043E86000230870001084101A1
:1009D000DC00DD01DE01DF010830DC35DD0DDE0D80
:1009E000DF0D890BED2C5C08D8055D08D9055E0884
:1009F000DA055F08DB0558084201E50441015908A2
:100A00004201E60441015A084201E70441015B0842
:100A10004201E8046F08033E8600023087000108A7
:100A20004101D8000230D835FF3E031D132D583543
:100A3000F839D900DA01DB01DC0159084201E5048B
:100A400041015A084201E60441015B084201E70402
:100A500041015C084201E8046F08053E860002304F
:100A60008700013506394101D800D901DA01DB01DF
:100A700058084201E504410159084201E6044101D8
:100A80005A084201E70441015B084201E8040030D2
:100A90004101AF000130AE000030AD001430AC00B9
:100AA0000030B3000030B2000030B1000030B000C0
:100AB000420168084101B700420167084101B600E0
:100AC000420166084101B500420165084101B400D8
:100AD000A731B427813100304101A3000030A200CA
:100AE0000030A1002430A0000030A7000030A60094
:100AF0000030A5000030A4000030AB000030AA0098
:100B00000B30A900FF30A80042016F0A86000230B6
:100B1000870001084101D800D901DA01DB010C305E
:100B2000D835D90DDA0DDB0D890B902D42016F08F8
:100B3000063E86000230870001084101DC00DD012D
:100B4000DE01DF010A30DC35DD0DDE0DDF0D890B46
:100B5000A32D58085C04AC0059085D04AD005A0888
:100B60005E04AE005B085F04AF009231B6228131B3
:100B700042016F08093E860002308700160001041A
:100B8000031DCB2D6F08093E86000230870081309F
:100B9000C03F0030C13F00304101AF000630AE0021
:100BA0000030AD000030AC000030B3000030B200C7
:100BB0000030B1000230B00042016F08093E8600EB
:100BC00002308700403F4101B400413FB500A331EE
:100BD000CF238131093042016E06031D402E0030C3
:100BE0004101AF000730AE000030AD001C30AC005A
:100BF0000030B3000030B2000030B1000030B0006F
:100C00001C30B7000130B6000030B5003430B400FD
:100C1000A731B427813100304101AF000930AE0067
:100C20000030AD000030AC000030B3000030B20046
:100C30000030B1000030B0003C30B4000F30B500DF
:100C4000A331CF23813100304101AF000730AE0026
:100C50000030AD001030AC000030B3000030B20006
:100C60000030B1000030B0000830B700B530B60039
:100C7000A830B5003330B400A731B4278131742EC9
:100C800000304101AF000730AE000030AD001C3035
:100C9000AC000030B3000030B2000030B1000030D2
:100CA000B0001C30B7000730B6001130B50034304A
:100CB000B400A731B427813100304101AF000930C1
:100CC000AE000030AD000030AC000030B3000030AA
:100CD000B2000030B1000030B0003C30B4001F3032
:100CE000B500A331CF23813100304101AF0007307F
:100CF000AE000030AD005030AC000030B30000302A
:100D0000B2000030B1000130B0001430D8005808F3
:100D1000B400A2310722813100304101AF00073019
:100D2000AE000030AD001830AC000030B300003031
:100D3000B2000030B1000230B0000E30D8005808C8
:100D4000B400A2310722813100304101AF000930E7
:100D5000AE000030AD000830AC000030B300003011
:100D6000B2000030B1000030B0008130D800580827
:100D7000B400A2310722813100304101AF000030C0
:100D8000AE000030AD004430AC000030B3000030A5
:100D9000B2000030B1000030B0000230D800580876
:100DA000B400A2310722813101304101B800003086
:100DB000B90094316B2481314201E301E30AE90176
:100DC000063069020318132F0030F3000030F200E0
:100DD0000030F1000130F000A4311F2481310030D7
:100DE0004001EB000030EA000030E9004430E80048
:100DF0000030EF000030EE000030ED000030EC007D
:100E0000A231CC22813102390319092F4201E301B9
:100E1000132F01304101D80058084201E90706307C
:100E20006902031CE42E630803191C2FFF304101E3
:100E3000D600FF30D700080042016F08043E86004C
:100E40000230870009300102031C672F6F08043E3F
:100E5000860002308700193001020318672F410114
:100E60006F08093E8600023087000103031D3E2FF4
:100E700042016E0899316F2181314A2F42016E087B
:100E80004101D800D9015808B8005908B900963175
:100E90008726813100304101A3000330A2000030D9
:100EA000A1001830A0000030A7000030A6000030DC
:100EB000A5000030A400FF30A8008130A900003058
:100EC000AA006430AB00A631A2268131802F003009
:100ED0004101A3000330A2000030A1001830A0009F
:100EE0000030A7000030A6000030A5000030A400AC
:100EF000FE30D8005808A800A901A6312A26813161
:100F000001304101CD000030CE009B3197234101DB
:100F10004E084201DE0041014D084201DD005E083D
:100F20004101D70042015D084101D600080041019E
:100F3000883101208731EF0081308400A3308500A3
:100F400020308600013087000030FF0026308031DD
:100F5000042087311E308400A1308500DA308600FD
:100F6000013087000030FF000F30803104208731CE
:100F700026308400A53085002030860002308700AE
:100F80000030FF003230803104208731F03084009F
:100F90002E3085000030FE000130FF00A031F72028
:100FA0008731EE0146308400013085001530FE00A7
:100FB0000030FF00A031F7208731A03084000130DD
:100FC00085003A30FE000030FF00A031F720873165
:100FD00052308400023085001D30FE000030FF00DA
:100FE000A031F7208731A0308400023085002E30F8
:100FF000FE000030FF00A031F720400199311E298A
:10100200A0344101C700C301C401C501C601471C88
:1010120047190F28C7190F28471EFC28471C2428E8
:10102200C71C1B280030A3000030A2000030A10022
:101032000D30602800304101A3000030A2000030D2
:10104200A10003306028C71D3928C71C3028003092
:10105200A3000030A2000030A1000F306028003051
:101062004101A3000030A2000030A1000730602837
:10107200471E4E28C71C45280030A3000030A2009E
:101082000030A1000E30602800304101A300003082
:10109200A2000030A10005306028C71C582800308B
:1010A200A3000030A2000030A10010306028003000
:1010B2004101A3000030A2000030A1000930A000CD
:1010C2000030A400A5000030A9000030A8000030C4
:1010D200A7000030A6000030AA000030AB00A53106
:1010E200F325883100304001EB000030EA00003087
:1010F200E9004430E8000030EF000030EE0000303C
:10110200ED000330EC00A231CC2288314101BD0058
:10111200BE013D08C5003E08C600C519DD280030E5
:101122004001EB000F30EA000030E9003030E80007
:101132000030EF000030EE000030ED000030EC0037
:101142009C316C24883140016B084101C20040018E
:101152006A084101C100400169084101C000400123
:1011620068084101BF000D3041063F0440044204BB
:10117200031DDA280030A3000030A2000030A100D5
:101182000030A0000030A400A5000030A90000300B
:10119200A8000030A7000030A6000030AA000030EE
:1011A200AB00A531F325FF304101C300FF30C4007D
:1011B2000800C301C40108000030A3000030A200EF
:1011C2000030A1000030A0000030A400A5000030D3
:1011D200A9000030A8000030A7000030A6000030AF
:1011E200AA000030AB00A531F325FF304101C30056
:1011F200FF30C4000800C71E3529C71C1A29003059
:10120200A3000030A2000030A1001130A000003085
:10121200A400A5000030A9000030A8000030A700FB
:101222000030A6000030AA000030AB00A531F32543
:10123200080000304101A3000030A2000030A100EC
:101242000B30A0000030A400A5000030A90000303F
:10125200A8000030A7000030A6000030AA0000302D
:10126200AB00A531F3250800C71C51290030A300AB
:101272000030A2000030A1000C30A0000030A40019
:10128200A5000030A9000030A8000030A7000030FF
:10129200A6000030AA000030AB00A531F3250800FB
:1012A20000304101A3000030A2000030A100013053
:1012B200A0000030A400A5000030A9000030A80062
:1012C2000030A7000030A6000030AA000030AB00BA
:1012D200A531F32508004001E601E7014708D500E2
:1012E2004808D6004908D7004A08D8004B08D90058
:1012F2004C08DA00DB01DC015908D5075A08D63D53
:101302005B08D73D5C08D83D1030D836D70CD60CD8
:10131200D50C890B86291F305505DD000030560596
:10132200DE0047084B07D50048084C3DD6007F3009
:101332005505E20000305605E30000305E02203021
:1013420003195D02031CB429DE30C1000030C20063
:101352003B30C300A930C400FD30C500A830C60030
:10136200903103208931003040016302803003193B
:101372006202031CCB29DF30C1000030C2003B30C7
:10138200C300A930C400B630C500A830C6009031F1
:101392000320893140015008031DD6294F08031D3F
:1013A200D62931304E02031CE529E030C10000305D
:1013B200C2003B30C300A930C4000E30C500A930C2
:1013C200C600903103208931803040015406530415
:1013D2000319122A530854040319122A53038030A2
:1013E200031954060319122A0230530680300319D6
:1013F20054060319122A0330530680300319540687
:101402000319122AE530C1000030C2003B30C3008C
:10141200A930C4000430C5009830C60090310320C2
:10142200893140016308D6006208D500D535D60D52
:10143200D535D60D5E08D8005D08D7000930D735FE
:10144200D80D890B202A55085704DF005608580486
:10145200E0005F085304D50060085404D600560823
:10146200D7005708E400530803395F04D500550834
:10147200E50050084F044E044D04031D5B2A8030E2
:10148200540653040319542AF130C1000030C2003B
:101492003B30C300A930C4006030C500A830C6008C
:1014A200903103208931400147358138D5005508F4
:1014B200E400682A62086304031D6A2A8030540625
:1014C20053040319682A53085404031D6A2A01307D
:1014D2006C2A64170230E6000030E700EA2AE101D4
:1014E20041016F08143E860002308700010803198B
:1014F200B92A6430F0000030F10040016708F300BF
:101502006608F200F401A431482489314001D50073
:101512005508E1005208F1005108F0004E08F300AE
:101522004D08F2006108D5005508F400A4314824A2
:1015320089314001D6005608E1006708A10066081B
:10154200A0006430D5005508A2005008A6004F083C
:10155200A5004E08A4004D08A3005208A800510897
:10156200A7006108D6005608A900A3313523080058
:1015720040016708A1006608A0006430D500550844
:10158200A2005008A6004F08A5004E08A4004D086E
:10159200A3005208A8005108A700A131D1210800D8
:1015A20040016708A1006608A0006430D500550814
:1015B200A2005008A6004F08A5004E08A4004D083E
:1015C200A3005208A8005108A700A131B6210800C3
:1015D200E92A40015408003A0319F32A803A031910
:1015E200F82AE92A5308003A0319D12AE92A5308AA
:1015F200003A0319702A013A0319702A033A0319AF
:10160200702A013A0319702AE92A080041016F0879
:101612000F3E86000230870081016F08103E86006F
:10162200023087000230C03F0030C13F6F08143ED5
:1016320086000230870081016F08153E8600023065
:10164200870081016F080A3E86000230870081010F
:101652006F080B3E86000230870081016F08223E30
:101662008600023087000030C03FC13F6F08243E31
:101672008600023087000030C03FC13F6F08263E1F
:101682008600023087000030C03FC13F6F08283E0D
:101692008600023087000030C03FC13F6F082C3EF9
:1016A2008600023087000030C03FC13F6F082A3EEB
:1016B2008600023087000030C03FC13F0030F30097
:1016C2000030F2000030F1000230F000A4311F249B
:1016D2008B3198319B208B3141014108420403191F
:1016E200772BFF30C500FF30C6000800A531582512
:1016F2008B31003A0319772B04304101BD000030D1
:10170200BE009D315D258B3141014008CF003F086D
:10171200CE003E08CD003D08CC000530BD000030B3
:10172200BE009D315D258B3141014008D3003F0849
:10173200D2003E08D1003D08D0000A30BD00003082
:10174200BE009D315D258B3141013D08C7003E0839
:10175200C8003F08C9004008CA001030CA36C90C88
:10176200C80CC70C890BAF2B47081F39CB006F0879
:10177200083E8600023087004B0881004F084E0465
:101782004D044C040319D62B53085204510450043F
:101792000319D62B6F08083E860002308700010825
:1017A2000319D62BA631E5268B3120304101BD002D
:1017B2000030BE009D315D258B31403041013D0638
:1017C200023003193E061030031940063F04031D80
:1017D200F22B6F08093E8600023087008101810AE0
:1017E200F82B6F08093E8600023087008101451EF2
:1017F2000E2C0630BD000030BE009D315D258B31C0
:1018020041016F088600023087003D08C03F3E0854
:10181200C13F3F08C23F4008C33FC51E252C0730C9
:10182200BD000030BE009D315D258B3141016F0846
:10183200043E8600023087003D08C03F3E08C13F9B
:101842003F08C23F4008C33F451F382C0830BD0047
:101852000030BE009D315D258B3141013D08C7003E
:101862006F080A3E86000230870047088100C51FC4
:101872004B2C0930BD000030BE009D315D258B31FF
:1018820041013D08C7006F080B3E86000230870009
:10189200470881006F080B3E86000230870001086E
:1018A200031D5C2C8530C7006F080B3E860002309A
:1018B2008700470881006F080A3E860002308700D1
:1018C2000108031D6D2C7430C7006F080A3E8600A4
:1018D20002308700470881001F30BD000030BE0083
:1018E2009D315D258B3141013D08C7006F080D3EDA
:1018F200860002308700470881001E30BD0000309C
:10190200BE009D315D258B3141013D087F39C70005
:101912006F080E3E860002308700470881006F087C
:101922000E3E8600023087000108031DA12C2E30D6
:10193200C7006F080E3E860002308700470881000C
:101942000030AF000930AE000030AD001430AC0002
:101952000030B3000030B2000030B1000030B000FF
:101962006F0886000230870002304E3FB400A23179
:1019720007224101C501C60108004001B300400130
:101982002108A4002008A300A00A0319A10A230821
:101992008400240885000008A5002508B20032084A
:1019A2000319FC2F253032060319FE2C330A860058
:1019B2008701160001040319EB2C3208A300230847
:1019C200F100330A86008701413F8A00403F0A0046
:1019D2008C31C02C40013208A300330886008701F5
:1019E200010886008701230881000130A300330823
:1019F2008600870123088107C02CB001B101AF0125
:101A0200072D2F150130A0070030A13D20088400CA
:101A1200210885000008303A0319022D102D2008F4
:101A22008400210885000008A13110218C31031C9B
:101A3200F42D4001B001B1010A30F0000030F10094
:101A420040013108F3003008F200A1319B218C31B2
:101A520071084001B1007008B0002008840021081C
:101A620085000008D03EA300FF3003180030A40018
:101A72002308B0072408B13D0130A0070030A13D82
:101A820020088400210885000008A13110218C3132
:101A9200031CF42D1D2D4001AF17152E22088600C0
:101AA200870101088400850102308107003FAB00F5
:101AB200013FAC002B082C04031D632DA730AB00A3
:101AC200A930AC00A901AA012B08290784002C081F
:101AD2002A3D850012000319732D0130A907003039
:101AE200AA3D652D31082A02031D792D30082902ED
:101AF2000318802D2908B0022A08B13B822DB001BB
:101B0200B101FF304001B007FF30B13D300A031987
:101B1200310A0319E92D330A8600870116000104F0
:101B22000319A02D2030A3002308F100330A8600F8
:101B32008701413F8A00403F0A008D31822D2030CB
:101B42004001A3003308860087010108860087014F
:101B5200230881000130A30033088600870123088F
:101B62008107822D330A86008701160001040319BA
:101B7200D02D2B0884002C0885000008A300230820
:101B8200F100330A86008701413F8A00403F0A0084
:101B92008D3101304001AB070030AC3DE92D2B08FF
:101BA20084002C0885000008A30033088600870102
:101BB200010886008701230881000130AB0700304D
:101BC200AC3D0130A300330886008701230881075A
:101BD2000130A9020030AA3B290A031DB32D2A0AAB
:101BE2000319C02CB32D40012108A4002008A30032
:101BF200A00A0319A10A230884002408850000080A
:101C0200B200003A0319FC2F583A03194C2D3C3A02
:101C12000319152E0D3A0319152E1A3A03194F2DD1
:101C22000B3A03194C2DC02C4001AF1B302E220859
:101C32008600870101088400850102308107003F88
:101C4200AD00013FAE00AE1F812E0330A30023087A
:101C5200AF04AD09AE09AD0A0319AE0A812E2208FE
:101C62008600870101088400850102308107003F58
:101C7200AD00013FAE00812EB201B20A053032063C
:101C820003198A2E3208A300A401A335A40D6E30D5
:101C920023078400A930243D8500003FA500013FB1
:101CA200A60026082E02031D582E25082D02031C0D
:101CB2008A2E0130A3002308B2073F2EB201B20AD6
:101CC2000430320603198A2E3208A300A401A33578
:101CD200A40D9F3023078400A930243D8500003FD6
:101CE200A500013FA60026082E02031D7A2E250814
:101CF2002D02031C8A2E0130A3002308B207612E95
:101D02002F088039003A03193D2E803A03195F2EBD
:101D12008A2E300831040319962E2F08033903192D
:101D2200962EFF30B007FF30B13D3208A300A40168
:101D3200A31BA4032408803AA5003108803A250297
:101D4200031DA52E300823020318B22E40013208CB
:101D5200A300A401A31BA4032308B0022408B13BDF
:101D6200B52E4001B001B1012F1D122F2F080339EA
:101D72000319E12E330A86008701160001040319B4
:101D8200CF2E2D30A3002308F100330A86008701ED
:101D9200413F8A00403F0A008E31E12E2D30400142
:101DA200A300330886008701010886008701230803
:101DB20081000130A30033088600870123088107D0
:101DC20040013008310403196F2F330A860087015E
:101DD200160001040319FA2E3030A3002308F10083
:101DE200330A86008701413F8A00403F0A008E3154
:101DF2000C2F30304001A300330886008701010810
:101E020086008701230881000130A3003308860081
:101E1200870123088107FF304001B007FF30B13D41
:101E2200E22E300831040319452F330A8600870158
:101E32001600010403192A2F2030A3002308F10001
:101E4200330A86008701413F8A00403F0A008F31F2
:101E52003C2F20304001A30033088600870101088F
:101E620086008701230881000130A3003308860021
:101E7200870123088107FF304001B007FF30B13DE1
:101E820030083104031D162F2F08033903196F2F51
:101E9200330A860087011600010403195D2F2D30D5
:101EA200A3002308F100330A86008701413F8A001C
:101EB200403F0A008F316F2F2D304001A3003308BD
:101EC200860087010108860087012308810001300E
:101ED200A3003308860087012308810740013208E6
:101EE200A3002308A800F32F0A30F8000030F900FD
:101EF2002808A300A401A335A40D6E302307840093
:101F0200A930243D8500003FF000013FF1002E087A
:101F1200F3002D08F200A5318B258C317108FB00EE
:101F22007008FA00A43172248C317808303E4001E6
:101F3200A5002508C22F2808A300A401A335A40DDB
:101F42009F3023078400A930243D8500003FF00024
:101F5200013FF1002E08F3002D08F200A5318B2578
:101F62008C3170080F394001A5002508A700270809
:101F7200DB3E8400A8300318013E85000008A30060
:101F82002308B200CD2F2F088039003A0319752F8C
:101F9200803A03199C2FCD2F330A86008701160041
:101FA20001040319E12F3208A3002308F100330AC8
:101FB20086008701413F8A00403F0A008F31F32F9C
:101FC20040013208A3003308860087010108860019
:101FD2008701230881000130A300330886008701AE
:101FE20023088107FF304001A3002308A807280A1D
:0E1FF2000319C02CC42F4001A001A10108005A
:1020060000304001B400A830B5004408B7004308CA
:10201600B6004208B9004108B8004608BB004508AA
:10202600BA00A1315121903117280800F800420169
:10203600580878060319080000308B1B0130F7009A
:102046008B1355307D018F00AA308F000F10780357
:10205600031D7228A330F100A830F200A1313D2102
:1020660090314201D801D80A0F307E01A3000F300B
:10207600A40043018F01900192018D014E010F10C2
:10208600191043018C018E0112307D01C5001530F7
:102096007E01A1001430A20010307D01C600803000
:1020A60043018F00900101308D004001131113147C
:1020B600430190121530F600C630890B6028F60BE6
:1020C6006028003200309A31722290311530F600C5
:1020D600C630890B6C28F60B6C280032A728023014
:1020E6007806031DA7289030F100A830F200A13130
:1020F6003D2190310230F60076084201D8000F30BB
:102106007E01A1000F30A20043018F0190019201D0
:102116008D014E010F10191043018C018E011430F0
:102126007E01A3001530A40013307D01C5001430D4
:10213600C600A131032190311530F600C630890B57
:10214600A228F60BA228003255307D018F00AA3056
:102156008F000F14771CB1288B1708008B1308000B
:10216600F1012430F2000030F30009304001A000F4
:102176002008F400D4309831D22090317F304001CD
:10218600A0002008F0001430A1002108F100240866
:10219600A0319D2090314001A2002208A400F00148
:1021A600F1012508A0319D2090314001A0002008B2
:1021B600A5000D30A0002008F000F1012608A0318E
:1021C6009D2090314001A1002108A6006030A000AA
:1021D6002008F0004030A1002108F1002708A031B6
:1021E6009D2090314001A2002208A7007F30A00068
:1021F6002008F0001030A1002108F1002808A031C5
:102206009D2090314001A2002208A8000F30A000B6
:102216002008F0000330A1002108F1002908A031B0
:102226009D2090314001A2002208A900F001F10191
:102236002A08A0319D2090314001A0002008AA0064
:102246004630A0002008F0000430A1002108F1006B
:102256002B08A0319D2090314001A2002208AB003E
:102266000330A0002008F000F1012C08A0319D20C9
:1022760090314001A1002108AC00F1012430A000FA
:102286002008F2000930A1002108F300D430A4315F
:10229600CA244001A2002208A30008000030410120
:1022A600A3000730A2000030A1004830A000003093
:1022B600A7000030A6000030A5000030A400FF30C3
:1022C600AB00FF30AA00FF30A900FF30A80008309D
:1022D600AF000030AE000830AD000030AC009231E7
:1022E600B622913100304101A3000730A200003030
:1022F600A1004830A0000030A7000030A600003042
:10230600A5000030A400FF30AB00FF30AA00FF306C
:10231600A900FF30A8000030AF006030AE000030EA
:10232600AD006030AC009231B622913105304101EA
:10233600380639043A043B04031DBF290030A300C4
:102346000730A2000030A1000030A0000030A70036
:102356000030A6000030A5000030A400FF30AB001E
:10236600FF30AA00FF30A900FF30A8000230AF00FE
:102376000030AE003C30DD2900304101A3000730BB
:10238600A2000030A1000030A0000030A7000030FD
:10239600A6000030A5000030A400FF30AB00FF30DF
:1023A600AA00FF30A900FF30A8000230AF000030BD
:1023B600AE001C30AD000030AC009231B622913137
:1023C60041013C08031908000030AF000730AE0099
:1023D6000030AD001430AC000030B3000030B20065
:1023E6000030B1000030B0000130B7000130B60057
:1023F6001130B5000030B400A731B4270800400101
:102406002008A6002108A7002208A8000310270D0F
:10241600280DA9002908AA002A08031D192A003038
:10242600A0000030A1000030A20008002308A6008A
:102436002408A7002508A8000310270D280DA900C9
:102446002908AF002F08031D2F2A0030A0000030F6
:10245600A1000030A20008002F087B3EA600260837
:10246600AA072008A6002108A7002208A800103005
:10247600A836A70CA60C890B3B2A2608A900290812
:10248600AF002308A6002408A7002508A8001030DE
:10249600A836A70CA60C890B4B2A2608A9002908E2
:1024A600AF068030A6002608AF05A117A417FF3097
:1024B600A305FF30A4050030A5050030AB000030B1
:1024C600AC000030AD000730A6002608AE00201C88
:1024D600722A2308AB072408AC3D2508AD3D013020
:1024E600A236A10CA00C890B732A0130A335A40DCA
:1024F600A50D890B792A0130AE02031D6A2A09301F
:10250600A6002608AE00201C8E2A2308AB07240846
:10251600AC3D2508AD3D0130A236A10CA00C890BBF
:102526008F2A0130AD36AC0CAB0C890B952A0130E5
:10253600AE02031D862A2B08F0002C08F1002D0898
:10254600F2002A08A6002608F3002F08A70027088D
:10255600F4009B31332370084001A0007108A100EC
:102566007208A2000800410128084001E800680836
:102576004101B00028084001E80041012908400156
:10258600E90041012A084001EA0041012B08400107
:10259600EB000830EB36EA0CE90CE80C890BCD2A87
:1025A6006808EC006C084101B10028084001E80009
:1025B600410129084001E90041012A084001EA00D9
:1025C60041012B084001EB001030EB36EA0CE90C18
:1025D600E80C890BE82A6808EC006C084101B20097
:1025E60028084001E800410129084001E9004101AD
:1025F6002A084001EA0041012B084001EB0018308F
:10260600EB36EA0CE90CE80C890B032B6808EC00A6
:102616006C084101B3002C084001E800680841013C
:10262600B4002C084001E80041012D084001E900F2
:1026360041012E084001EA0041012F084001EB004C
:102646000830EB36EA0CE90CE80C890B242B6808F9
:10265600EC006C084101B5002C084001E80041017E
:102666002D084001E90041012E084001EA00410120
:102676002F084001EB001030EB36EA0CE90CE80CB1
:10268600890B3F2B6808EC006C084101B6002C084A
:102696004001E80041012D084001E90041012E08F2
:1026A6004001EA0041012F084001EB001830EB36EB
:1026B600EA0CE90CE80C890B5A2B6808EC006C084C
:1026C6004101B70023084001CA0041012208400128
:1026D600C900410121084001C8004101200840010C
:1026E600C700410125084001CC00410124084001F2
:1026F600CB000030D0000030CF000030CE000830D4
:10270600CD00B030D1000030D2000330D30080308D
:10271600D40089316C210800003041013B02803031
:1027260003193A020318ED2B3C08BD00BE01BF0198
:10273600C0010B30BD35BE0DBF0DC00D890B9D2BE5
:102746003A08C1003B08C200C301C4011030C135BC
:10275600C20DC30DC40D890BAA2B3808C500390854
:10276600C600C701C8014508C1044608C204470897
:10277600C3044808C4043D084104CB003E08420493
:10278600CC003F084304CD0040084404CE0000308E
:10279600A3000030A2000030A1002430A0000030C9
:1027A600A7000030A6000030A5000030A400FC30D1
:1027B600AB000030AA00F430A9000030A8004E0893
:1027C600AF004D08AE004C08AD004B08AC0092318E
:1027D600B622080041013C08BD00BE01BF01C00190
:1027E6000B30BD35BE0DBF0DC00D890BF42B3A085D
:1027F600803EC10000303B3DC2004108C300420894
:10280600C400C501C6011030C335C40DC50DC60DC3
:10281600890B072C3808C7003908C800C901CA0146
:102826004708C3044808C4044908C5044A08C6043E
:102836003D084304CB003E084404CC003F08450451
:10284600CD0040084604CE000030A3000030A200B0
:102856000030A1002430A0000030A7000030A60000
:102866000030A5000030A400FC30AB000030AA0008
:10287600F430A9000030A8004E08AF004D08AE00A5
:102886004C08AD004B08AC009231B62293310030B3
:102896004001EB000830EA000030E9000030E800B3
:1028A6000030EF000030EE000030ED000030EC00AC
:1028B600A231CC224101BD00BE01BF01C0014008CA
:1028C600CE003F08CD003E08CC003D08CB000800F6
:1028D600410138033904031D922C05304001EB00F9
:1028E6000030EC00A7312927943100304101A300C4
:1028F6001130A2000030A1000830A0000030A7006F
:102906000030A6000030A5000130A400FF30BA0058
:102916003A08A800A901A90AA6312A260800023009
:10292600410138063904031DF82C0030A30011308C
:10293600A2000030A1000430A0000030A700003043
:10294600A6000030A5000030A400FF30BA003A0807
:10295600A8000330BB003B08A900A6312A26943103
:1029660000304101A3001130A2000030A100083060
:10297600A0000030A7000030A6000030A5000030FF
:10298600A4000030AB000030AA00FE30A900FF30E2
:10299600A8000030AF008030AE000030AD0000303F
:1029A600AC009231B622943100304101A3001130BF
:1029B600A2000030A1000830A0000030A7000030BF
:1029C600A6000030A5000230A4007F30BA003A0805
:1029D600A800A901A6312A26943105304001EB0052
:1029E6000030EC00A7312927080000304101A30080
:1029F6001130A2000030A1000430A0000030A70072
:102A06000030A6000030A5000030A400FF30BA0058
:102A16003A08A800A901A90AA6312A26943100304D
:102A26004101A3001130A2000030A1000830A0002F
:102A36000030A7000030A6000030A5000030A4003A
:102A46000030AB000030AA00FE30A900FF30A8001D
:102A56000030AF008030AE000030AD000030AC007A
:102A66009231B622943100304101A3001130A20008
:102A76000030A1000830A0000030A7000030A600FA
:102A86000030A5000230A4007F30BA003A08A80042
:102A9600A901A6312A2608004101C601C701003056
:102AA600CB000030CA000030C9000030C80000303A
:102AB600C4000230C3000030C2000130C100003043
:102AC600AF000430AE000030AD000C30AC0000307A
:102AD600B3000030B2000030B1000030B00044084E
:102AE600B7004308B6004208B5004108B400A73154
:102AF600B427953100304101A3000430A200003014
:102B0600A1000C30A0000030A7000030A600003065
:102B1600A5000030A400FF30BF003F08A800103019
:102B2600C0004008A900A6312A2695314101C501F9
:102B3600C50ACC0103304C020318CF2D0030F30038
:102B46000030F2000030F1000130F000A4311F2403
:102B5600953100304001EB000430EA000030E90016
:102B66002030E8000030EF000030EE000030ED00CD
:102B76000030EC00A231CC229531013A031DC62D5E
:102B86004101C501CF2D01304101BF003F08CC07EF
:102B960003304C02031CA12D45080319D62DFF3026
:102BA600C600FF30C7000030AF000430AE00003072
:102BB600AD000C30AC000030B3000030B200003085
:102BC600B1000030B000B401A231072295310030C7
:102BD6004101AF000430AE000030AD002030AC0043
:102BE6000030B3000030B2000030B1000030B00059
:102BF600B401B40AA2310722953100304101A30085
:102C06000430A2000030A1000C30A0000030A70064
:102C16000030A6000030A5000230A400FF30BF003F
:102C26003F08A800A901A90AA6312A269531003035
:102C36004001EB000430EA000030E9001430E800FF
:102C46000030EF000030EE000030ED000030EC0008
:102C56009C316C24953140016B084101CB00400149
:102C66006A084101CA00400169084101C9004001E2
:102C760068084101C800480A031D4E2E490A031D73
:102C86004E2E4A0A1F3003194B06031D4E2EFF30E7
:102C9600C600FF30C70000304001EB000430EA00F8
:102CA6000030E9001C30E8000030EF000030EE0094
:102CB6000030ED000030EC009C316C249531400171
:102CC6006B084101CB0040016A084101CA0040017E
:102CD60069084101C900400168084101C800480A65
:102CE600031D822E490A031D822E4A0A1F3003192C
:102CF6004B06031D822EFF30C600FF30C700470873
:102D0600BE004608BD00080000304101D500003075
:102D1600D4000030D3000030D20005303806390424
:102D2600031DCD2E0030BD000030BC00C030BB00FE
:102D3600FD30BA000030C1000030C000C430BF0012
:102D46003E30BE000030C5000030C400C630C300AF
:102D5600BE30C2000030C9000030C800C730C7000E
:102D66007E30C6000030CD000030CC00CF30CB0026
:102D76003630CA000030D1000030D000CF30CF004E
:102D8600B530CE000030D5000030D400CF30D300AF
:102D9600F530042F0030BD000030BC00A830BB0069
:102DA600FE30BA000030C1000030C000AC30BF00B9
:102DB6003630BE000030C5000030C400A530C30068
:102DC600FE30C2000030C9000030C800AF30C70076
:102DD6003E30C6000030CD000030CC00AF30CB0016
:102DE6007D30CA000030D1000030D000AF30CF00B7
:102DF600B530CE000030D5000030D400AF30D3005F
:102E0600B530D2000030AF000330AE000030AD0068
:102E16003830AC000030B3000030B2000030B100F2
:102E26000030B0003D08B7003C08B6003B08B500CE
:102E36003A08B400A731B427963100304101AF00FB
:102E46000330AE000030AD003C30AC000030B300C3
:102E56000030B2000030B1000030B0004108B700C9
:102E66004008B6003F08B5003E08B400A731B427B5
:102E7600963100304101AF000330AE000030AD00A6
:102E86004030AC000030B3000030B2000030B1007A
:102E96000030B0004508B7004408B6004308B50046
:102EA6004208B400A731B427963100304101AF0083
:102EB6000330AE000030AD004430AC000030B3004B
:102EC6000030B2000030B1000030B0004908B70051
:102ED6004808B6004708B5004608B400A731B4272D
:102EE600963100304101AF000330AE000030AD0036
:102EF6004830AC000030B3000030B2000030B10002
:102F06000030B0004D08B7004C08B6004B08B500BD
:102F16004A08B400A731B427963100304101AF000A
:102F26000330AE000030AD004C30AC000030B300D2
:102F36000030B2000030B1000030B0005108B700D8
:102F46005008B6004F08B5004E08B400A731B427A4
:102F5600963100304101AF000330AE000030AD00C5
:102F66005030AC000030B3000030B2000030B10089
:102F76000030B0005508B7005408B6005308B50035
:102F86005208B400A731B427963100304101AF0092
:102F96000330AE000030AD001C30AC000030B30092
:102FA6000030B2000030B1000030B0001030B70081
:102FB6000030B6000230B5004030B400A731B42767
:102FC600963100304101AF000330AE000030AD0055
:102FD6002030AC000030B3000030B2000030B10049
:102FE6000030B0001B30B7006D30B600A430B5001D
:102FF6008930B400A731B4270800003440340134C6
:1030060000346D346F346434653420343D343D34DB
:1030160020344434573433343034303430345F342D
:103026005334503449345F34573452345F34423465
:103036004934543420347C347C3420346D346F3439
:103046006434653420343D343D34203444345734BC
:1030560033343034303430345F34533450344934BC
:103066005F34523444345F34423449345434203467
:103076007C347C3420346D346F34643465342034CD
:103086003D343D34203444345734333430343034D2
:1030960030345F345334503449345F3441344E3421
:1030A60044345F344F3452345F34383420347C3403
:1030B6007C3420346D346F346434653420343D34CC
:1030C6003D3420344434573433343034303430349F
:1030D6005F345334503449345F3441344E344434CD
:1030E6005F344F3452345F343134363420347C34D8
:1030F6007C3420346D346F346434653420343D348C
:103106003D3420344434573433343034303430345E
:103116005F345334503449345F3441344E3444348C
:0E3126005F344F3452345F343334323400346B
:10313600A231ED229831410140084201CD00410102
:103146003F084201CC0041013E084201CB0041014B
:103156003D084201CA0012304A06033003194B06E5
:10316600CA3003194C06DE3003194D060319CE2862
:1031760002304A06033003194B06CA3003194C06BF
:10318600DE3003194D060319CE28FF304101C10078
:10319600FF30C20008004101C101C2010800FB0066
:1031A600A031A72098317B08A031E0209831F500A6
:1031B6007508FA007108A031E0209831F50075080D
:1031C600FA00A031A22098317B08013EA031E02010
:1031D6009831F5007508FA00FC0174087C020318A2
:1031E6001B297408FF3EF500FF3003180030F60077
:1031F6007C0875067604031D022901300329003078
:10320600A1312D219831F5007C08F600F7017608EA
:103216007207F8007708733DF90078088600790888
:103226008700750881000130F5007508FC07F02855
:10323600A031AC200800A031EB2099317A30F100A2
:10324600A830F200A1313D21993102309031192088
:1032560099319031B320993103304101ED000830A6
:10326600EC007730890B3529EC0B3529ED0B352928
:103276007E013A13400116137E01BA1340019617D8
:103286007E014516400117160130903119209931FB
:1032960015304101EC00C630890B4F29EC0B4F2944
:1032A60000009A31D22299319E31DD2699310130C2
:1032B600903119209931A4319E2499310D30410164
:1032C600ED002D30EC00D730890B6729EC0B672910
:1032D600ED0B6729003257294001ED0005306D06D8
:1032E600031D992900304101A3000B30A2000030D4
:1032F600A1000830A0000030A7000030A600003072
:10330600A5000030A4000030AB000030AA00DF307A
:10331600A900FF30A8000030AF000030AE0000303A
:10332600AD004030AC009231B622080009304001B1
:103336006D06031D080000304101A3000B30A200FA
:103346000030A1000830A0000030A7000030A60021
:103356000030A5000030A4000030AB000030AA0009
:10336600DF30A900FF30A8000030AF000030AE000B
:103376002030AD004030AC009231B6220800053056
:103386004101380639043A043B04031DED29003097
:10339600A3000730A2000030A1000430A0000030D6
:1033A600A7000030A6000030A5000030A400FF30C2
:1033B600AB00FF30AA00FF30A900FF30A8000230A2
:1033C600AF000030AE003C30AD000030AC009231B2
:1033D600B622080009304101380639043A043B0494
:1033E600031D08000030A3000730A2000030A10032
:1033F6000430A0000030A7000030A6000030A50071
:103406000030A400FF30AB00FF30AA00FF30A90057
:10341600FF30A8000230AF000030AE001C30AD0017
:103426000030AC009231B62208004001EF000030B7
:103436004101AF000730AE000030AD004830AC00AF
:103446000030B3000030B2000030B1000030B000F0
:103456000030B7000030B6000030B5000030B400D0
:10346600A731B4279A3100304101AF000730AE00D2
:103476000030AD000030AC000030B3000030B200C8
:103486000030B1000030B0000030B7000030B600A8
:103496000030B5000030B400A731B4279A3140019E
:1034A6006F080319080000304101AF000730AE0075
:1034B6000030AD001430AC000030B3000030B20074
:1034C6000030B1000030B0001C30B7000030B6004C
:1034D6000030B5000030B400A731B4270800F5006D
:1034E6004301901A08007508F000F101F035F10D5E
:1034F600F035F10D7008013EF2000030713DF30029
:103506000030720784009830733D850000088F00F4
:103516007508F000F101F035F10DF035F10D0030D0
:10352600700784009830713D850000089000910175
:103536007508F000F101F035F10DF035F10D700868
:10354600023EF2000030713DF30000307207840045
:103556009830733D850000088D007508F000F10174
:10356600F035F10DF035F10D7008033EF200003034
:10357600713DF3000030720784009830733D85007A
:103586000008F400F40DF40D400113087406FB392D
:1035960074069300131493104301901608007830B4
:1035A600F100A930F200A1313D219A31A1318121EA
:1035B6009A3100304101C500C6008B3107239A318C
:1035C6004101450A031DF22A460A031DF22A573015
:1035D600F100A930F200A1313D219A31F12A44309F
:1035E600813105219A314101D71FFD2A1E30F10094
:1035F600A930002BEC30F100A830F200A1313D21BA
:103606009A31E2309C31E1249A3101304001EB00DD
:103616004030EC00A2315B229A3101304001EB00D0
:103626004030EC00A23177229A31DA308400013042
:10363600850008304101EB006B0803192C2B05307F
:10364600203E86000230870012001E004101EB0B6F
:10365600272B9630F100A930F200A1313D21080058
:10366600730803193B2B720871047004031D4C2B5D
:103676000030F0000030F1000030F20008000130A8
:10368600F5007508F3070130F236F10CF00C890BE2
:10369600472BFE3072050319652B422B0130F500CE
:1036A6007508F3070130F007003003180130F10701
:1036B600003003180130F2070130F236F10CF00C3D
:1036C600890B602BFF3072050319722B512B0130C9
:1036D600F3020130F035F10DF20D890B6D2BF11B64
:1036E600782B0230730203186A2B7318802BFF3075
:1036F600F0057F30F105FF30F2050310F30C730877
:10370600F500F601F7011030F535F60DF70D890BCA
:10371600872B7508F0047608F1047708F20474081C
:1037260003190800F217080041014D034E04031D5A
:10373600D32B00304001EB000730EA000030E900EF
:103746004830E8000030EF000030EE000030ED00B9
:103756000030EC00A63161269B3140016908410129
:10376600D200400168084101D1000030A3000730B3
:10377600A2000030A1004830A0000030A7000030B1
:10378600A6000030A5000030A400FF30A800FF30DE
:10379600A9000530AA000130AB00A631A2269B3154
:1037A60095314F259B3141013E08D0003D08CF00A1
:1037B6004D034E04031DF82B0030A3000730A20072
:1037C6000030A1004830A0000030A7000030A6005D
:1037D6000030A5000030A4005208A9005108A80036
:1037E6000030AA00AB00A631A22641015008CE0047
:1037F6004F08CD00080040012008F0002108F10024
:10380600F201F3012208A400A501A601A7012708D9
:10381600F7002608F6002508F5002408F400A43170
:10382600F7249B3173084001AD007208AC007108A3
:10383600AB007008AA0003302306031D452C003098
:10384600F3000030F2000030F100B530F0002D0832
:10385600F7002C08F6002B08F5002A08F400A4311E
:10386600F7249B3173084001AD007208AC00710863
:10387600AB007008AA000730AD36AC0CAB0CAA0C36
:10388600890B3F2CFF302A05A40007302B05A50025
:103896002408003EA8000430253DA9000B30AD36B3
:1038A600AC0CAB0CAA0C890B522C08302902003048
:1038B60003192802031C672C0130AA070030AB3D10
:1038C6000030AC3D0030AD3D2B08A1002A08A00019
:1038D600080000304101BA000030B9000030B800DD
:1038E6000030B70040016B084101A30040016A089F
:1038F6004101A200400169084101A1004001680898
:103906004101A00040016D084101A50040016C087D
:103916004101A4000030A9000030A8000030A70033
:103926000430A600B330AB002B08AA00A531BF2592
:103936009C3103304101BB000030BC00BC1BD12CC4
:103946003B08B33E860087010108AB00AC01AD0120
:10395600AE013708AF003808B0003908B1003A08A0
:10396600B2000830AF35B00DB10DB20D890BB52CD4
:103976002F08AB073008AC3D3108AD3D3208AE3DEF
:103986002E08BA002D08B9002C08B8002B08B7007D
:10399600FF30BB07FF30BC3DBC1FA32C3A084001DB
:1039A600EB00410139084001EA00410138084001B5
:1039B600E900410137084001E80008004101C6005E
:1039C6004608053E86000130870016000104031DE7
:1039D600082D0030AF000730AE000030AD001C30BF
:1039E600AC000030B3000030B2000030B10000304F
:1039F600B00046088600013087000108C30043086E
:103A0600B400A23107229C313D2D05304101C3008F
:103A16004308C50000304001EB000130EA000030E9
:103A2600E9001430E8000030EF000030EE0000300E
:103A3600ED000030EC00A231CC229C310139031993
:103A4600292D09304101C3004308C500410146083C
:103A5600053E860001308700403FBD00413FBE0065
:103A66004508C300C4014308BF004408C0009F3195
:103A76006D279C3100304101AF000130AE000030AF
:103A8600AD000C30AC000030B3000030B2000030A6
:103A9600B1000030B000460A860001308700403F82
:103AA600B400413FB500423FB600433FB700A731DF
:103AB600B427080000304101C4000030C3000030C4
:103AC600C2000030C1000030AF000B30AE00003045
:103AD600AD000830AC000030B3000030B20000305A
:103AE600B1000030B0000130B4000030B500A331A1
:103AF600CF239D3100304101AF000B30AE000030C6
:103B0600AD000430AC000030B3000030B20000302D
:103B1600B1000030B0003E08B5003D08B400A33146
:103B2600CF239D3100304101AF000B30AE00003095
:103B3600AD000830AC000030B3000030B2000030F9
:103B4600B1000030B0000230B4000030B500A3313F
:103B5600CF239D3100304001EB000B30EA000030EE
:103B6600E9001030E8000030EF000030EE000030D1
:103B7600ED000030EC009C316C2440016B084101E3
:103B8600C40040016A084101C300400169084101BF
:103B9600C200400168084101C1004408C000430852
:103BA600BF004208BE004108BD00080041013808B8
:103BB6003B07BD0039083C3DBE0004303E020030E4
:103BC60003193D020318080000303C028030031937
:103BD6003B020318072E0030A3001430A200003069
:103BE600A1000030A0003C08A5003B08A40038084E
:103BF600A6003908A700A801A9013A08AA000230C0
:103C0600AB00A531F325080000304101AF001F309D
:103C1600AE000030AD000430AC000030B300003020
:103C2600B2000030B1000030B0000030B700003004
:103C3600B6000030B5001430B400A731B4279D316A
:103C460000304101AF001F30AE000030AD0008303B
:103C5600AC000030B3000030B2000030B1000030DC
:103C6600B0003B08B4003C08B500B601B701A73167
:103C7600B4279D3100304101A3001D30A200003061
:103C8600A1000030A0000030A400A5003808A6005E
:103C96003908A700A801A9013A08AA000230AB001A
:103CA600A531F325080040013008B4003108B500FD
:103CB6003208B6000310350D360DB7003708BD00C3
:103CC6003D08031D6F2E0030B3000030B2000030F7
:103CD600B1000030B00008003008B4003108B5006B
:103CE6003208B6001730B636B50CB40C890B762EF2
:103CF6003408B7003708B800B117FF30B005FF30F9
:103D0600B1050030B2053008B9003108BA003208F2
:103D1600BB00BC018E30BD02BD1FAD2E3D08803AF2
:103D26008F3E03189F2E0030B3000030B2000030E3
:103D3600B1000030B00008000130BC36BB0CBA0C34
:103D4600B90C890BA02E0130B4003408BD07031945
:103D5600C62E9F2E18303D02031CC32E0030B30022
:103D66000030B2000030B1000030B0000800013071
:103D7600B935BA0DBB0DBC0D890BBB2E0130BD028A
:103D86003D08031DBA2E38080319D42EB909BA09FD
:103D9600BB09BC09B90A0319BA0A0319BB0A0319F4
:103DA600BC0A3C08B3003B08B2003A08B100390827
:103DB600B000080000308B1B01304001CF000330FB
:103DC6004201C3070030C43D003044021E300319CF
:103DD6004302031C080043304001B400A830B5007C
:103DE600A13151219E314201C301C40102309031FB
:103DF60019209E3100308B1B01304001CF008B1300
:103E06000230CD004D08F100D430A331F7239E31A6
:103E16004001CE004E084301D000501C262FC93069
:103E26004001B400A830B500A13151219E31903136
:103E3600B3209E3134304001CD00F130890B212F63
:103E4600CD0B212F0032430150083F398038400105
:103E5600CD004D084301D00002304001CD004D0891
:103E6600F100430150084001CE004E08F200D43064
:103E7600A23193229E31A3315B239E310030F000A4
:103E8600F1000A30F2000030F300D030A131EC210D
:103E96009E31420145084001CD004D08F100D03069
:103EA600F2000130F3000A30CE004E08F400D430A0
:103EB6009831D2209E3140014F1C632F8B17642FFF
:103EC6008B130A304001CD004D08FC00D030803104
:103ED6001020080001304001EB000030EC00A73153
:103EE60029279F3141013F08B8004008B900890DD4
:103EF600893B8909BA00BB00BC01913151219F3130
:103F060041013F08B8004008B900890D893B89097D
:103F1600BA00BB009931C2219F3100304101AF0088
:103F26000830AE000030AD001C30AC000030B300ED
:103F36000030B2000030B1000030B000FF303D0567
:103F4600B4000F303E05B500A331CF239F310030BA
:103F56004101A3000830A2000030A1001030A000EB
:103F66000030A7000030A6000030A5000030A400F5
:103F7600FF30C1004108A8000330C2004208A90072
:103F8600A6312A269F3100304001EB000830EA00B6
:103F96000030E9001030E8000030EF000030EE009D
:103FA6000030ED000030EC00A231CC229F31013907
:103FB600031DC62FA2313F229F3100309A311822AD
:103FC6009F3105304001EB000030EC00A731292776
:103FD6009F3100304001EB000730EA000030E90075
:103FE6001C30E8000030EF000030EE000030ED003D
:0A3FF6000030EC00A231CC220800DC
:104132007108A031B9200800F200700972057104FB
:10414200080043019114911C0800A4284301111492
:10415200111C0800A92843011115111D0800AE28E1
:104162004F0196019701980199019A019B0108005C
:10417200F0004E010F1EBA28700842019A00080092
:10418200603051018D008F01910106309300920140
:104192000800093042019F0090309D0024309E00AB
:1041A20044309B009C010800F000700843018C0021
:1041B2004E010F1CD9280F1043010C080800F00013
:1041C200700843018C000F19E428110E890C890C28
:1041D20001390800A031C120A031A031B120A031A5
:1041E200A7316E27A031A031CA20080064008001E7
:1041F20001310130FE020030FF3B7F087E040319CB
:104202000034F828803043018F00283090000830B5
:1042120092004F308D004E010F1019100800F1006E
:10422200F0013A30710203181C2930307102031C6C
:104232001C29F001F00A700C08000234003400342A
:1042420000345334D634F534C8343434FE34FE34B6
:10425200FE34FE3400340034F00043019115700C3A
:10426200031C9112031891160F1C35299111111676
:10427200111A39290C080800710884007208850097
:1042820012000319080071088400720885000008F2
:10429200A031B920A1310130F1070030F23D3D29B2
:1042A2004001BE019930BF002030C0003630BC0052
:1042B2003C08BD003508A1003408A0003D30BC0018
:1042C2003C08A2003E308C31BE2408007208F60081
:1042D2007108F5000130F3020030F43B730A031950
:1042E200740A031908007508860076088700010819
:1042F200A031D520A1310130F5070030F63D6B2900
:10430200400117120030F3000030F2000030F100DB
:104312000130F000A4311F24A131400117160030F2
:10432200F3000030F2000030F1000230F000A4315E
:104332001F240800F401F501701CA3297208F40778
:104342007308F53D0130F235F30D890BA4290130D4
:10435200F136F00C890BA92970087104031D9D29FF
:104362007508F1007408F000080040019613220855
:10437200F1000030F2002108F4002008F300A1311E
:104382006721A13140012808F2002708F100240822
:10439200F4002308F300A231AF224001961708006F
:1043A200400196132208F1000030F2002108F400C7
:1043B2002008F300A1316721A13140012808F20051
:1043C2002708F1002408F4002308F300A131672133
:1043D200400196170800F5007508F4007408F6000D
:1043E2000130F2020030F33B720A0319730A031917
:1043F20008007008F400760886000130870074080F
:1044020081000130F4007408F607F12941012F08F8
:10441200A3002E08A2002D08A1002C08A00031083C
:10442200A5003008A4000030A9000030A800003028
:10443200A7000130A600B430AA000030AB00A531BD
:10444200F32508004001E90000304101AF000030CF
:10445200AE000030AD002830AC000030B3000030B8
:10446200B2000030B1000130B00040016908E8003C
:1044720068084101B400A23107220800003041015E
:10448200AF000730AE000030AD000430AC000030A9
:10449200B3000030B2000030B1000030B000003094
:1044A200B7000030B6000030B5000030B400A731CC
:1044B200B427080000304101AF000E30AE000030DA
:1044C200AD000030AC000030B3000030B20000306C
:1044D200B1000030B00040016C084101B50040015C
:1044E2006B084101B400A331CF2308000030410121
:1044F200AF000130AE000030AD000430AC0000303F
:10450200B3000030B2000030B1000030B000400112
:104512006C084101B50040016B084101B400A331B0
:10452200CF230800F500A031A720A2317508A031E1
:10453200E020A231F3007308F4007108A031E020FA
:10454200A231F3007308F4007208A031E020A23116
:10455200F3007308F400A031AC2008007208F700E1
:104562007108F6000130F3020030F43B730A0319BC
:10457200740A031908000030A031D520A231F500D9
:104582007608860077088700750881000130F607F3
:104592000030F73DB32A40016B08CA006A08C9001F
:1045A2006908C8006808C7006D08CC006C08CB0019
:1045B2000030D0000030CF000030CE000130CD00FE
:1045C200A030D1000030D2000030D300D4008931B5
:1045D2006C2141012008080000304001EB0000304E
:1045E200EA000030E9000030E8000030EF0000305F
:1045F200EE000030ED000030EC009C316C244001F4
:104602006B084101C00040016A084101BF0040013E
:1046120069084101BE00400168084101BD0008006F
:104622000D307902AD300319780203181A2BFB0101
:10463200332B10307902693003197802031C232BC3
:104642006430302B0730F0000030F1007808543E1F
:10465200F200F230793DF300A5318B257008FA00A3
:104662007A08FB007B080800400196132208F1003B
:104672000030F2002108F4002008F300A131672184
:10468200A33140012808F2002708F1002408F400B1
:104692002308F300A1316721A3312930F100003052
:1046A200F2000130F3000030F400A1316721400133
:1046B200961708000330F6007608F100D430A331D3
:1046C200F723A331F7007708F9006030F600760887
:1046D200F0004030F7007708F1007908A0319D2002
:1046E200A331F8007808F9000330F6007608F100EB
:1046F2007908F7007708F200D430A231932208003B
:104702007F34003400340034003481340034003407
:10471200003400347F3400340034003400348234F6
:1047220000340034003400347F3400340034003468
:104732000034833400340034003400347F340034D5
:104742000034003400341E3400340B348E30FC004C
:104752007C08FD00FF307B050319BB2B0130FB36C3
:10476200FA0CF90CF80C890BB02B0130FC007C0818
:10477200FD07AB2B7808F0007908F1007A08F20007
:104782007D08FC007C08F300F4019B3133237008A0
:10479200F8007108F9007208FA00080041013408B3
:1047A2004001E8006808E900410135084001E800DD
:1047B2006808EA0041012F08A3002E08A2002D0874
:1047C200A1002C08A0003108A5003008A400003088
:1047D200A9000030A8000030A7000230A60069300E
:1047E200AA000030AB00A531F3250800F500A03186
:1047F200A720A3317508A031E020A331F20072088E
:10480200F3007108A031E020A331F2007208F30036
:10481200A031A220A3317508013EA031E020A331CE
:10482200F2007208F3000130A1312D21A331F20010
:104832007208F400A031AC20740808000030F800BF
:104842000030F7000030F6000030F50073087802FF
:10485200031D352C72087702031D352C7108760270
:10486200031D352C70087502031808000B30F40084
:104872006230890B3A2CF40B3A2C00320130F507E6
:104882000030F63D0030F73D0030F83D272CF701AF
:10489200F8017808803AF5007308803A7502031D22
:1048A200542C720877020318702C77087007860060
:1048B2007808713D870001087406F5007508F60056
:1048C2007608F03E860087012E30873D0108F5000C
:1048D2007508F4000130F7070030F83D4A2C7408DF
:1048E2000800780879040319992CFD01FD0AF91BC7
:1048F200842C0130F835F90D890B7B2C0130FC003A
:104902007C08FD07782C79087B02031D8A2C780825
:104912007A02031C902C7808FA027908FB3B0130DA
:10492200F936F80C890B912C0130FD02031D842C01
:104932007B08F9007A08F80008006330F100A9301A
:10494200F200A1313D21A43101304101CF004F08D5
:104952004401A20724304101B8000030B9002030E0
:10496200CF004F08BA000030BB00BC009D31D925F2
:10497200A43124304101B8000030B9000030BA003F
:10498200BB00BC0193318F23A43100308831022057
:104992000800F600A031A720A4317608A031E0205B
:1049A200A431F4007408F7007108A031E020A431AA
:1049B200F4007408F700F801730878020318F32C66
:1049C20078087207F4007408860087010108A03194
:1049D200E020A431F5007508F7000130F4007408F6
:1049E200F807DD2CA031AC20770808000030FB006E
:1049F2000030FA000030F9000030F800701C092D78
:104A02007408F8077508F93D7608FA3D7708FB3D0A
:104A12000130F435F50DF60DF70D890B0A2D013035
:104A2200F336F20CF10CF00C890B112D73087204A1
:104A320071047004031DFF2C7B08F3007A08F20056
:104A42007908F1007808F0000800003438340034A6
:104A5200CA34DE340034003400340034003400340C
:104A620000340034003400340034003400340034A4
:104A72000034003400340034003400340034003494
:104A82000034003400340034003400340034003484
:104A92000034093402340234093409340134003454
:104AA20000340034E934033400340134003400307B
:104AB2004001EB000030EA000030E9004430E80039
:104AC2000030EF000030EE000030ED000230EC006C
:104AD200A6316126A531400168084101B4004001B8
:104AE20069084101B500B601B7011030B435B50D02
:104AF200B60DB70D890B772D3708BB003608BA0003
:104B02003508B9003408B8003B1C892D0130080073
:104B120000300800F501F601700871040319BA2D7E
:104B2200F701F70AF11B9F2D0130F035F10D890BCA
:104B3200962D0130F4007408F707932D0130F535F6
:104B4200F60D890BA02D71087302031DAA2D7008A2
:104B52007202031CB12D7008F2027108F33B751446
:104B62000130F136F00C890BB22D0130F702031D32
:104B72009F2D7608F1007508F00008004101230816
:104B82004001CA00410122084001C9004101210837
:104B92004001C800410120084001C7004101250829
:104BA2004001CC00410124084001CB004101290809
:104BB2004001D000410128084001CF0041012708EF
:104BC2004001CE00410126084001CD0041012A08E2
:104BD2004001D1000030D2000030D300D40089312E
:104BE2006C210800410123084001CA00410122084A
:104BF2004001C900410121084001C80041012008CB
:104C02004001C700410125084001CC0041012408B0
:104C12004001CB00410129084001D0004101280890
:104C22004001CF00410127084001CE004101260882
:104C32004001CD0041012B084001D20041012A0868
:104C42004001D1000030D3008030D40089316C2182
:104C52000800410128084001E8006808E900410114
:104C620029084001E8006808EA00410123084001E0
:104C7200CA00410122084001C90041012108400146
:104C8200C800410120084001C70041012508400138
:104C9200CC00410124084001CB000030D00000309C
:104CA200CF000030CE000230CD006930D10000309C
:104CB200D2000130D3008030D40089316C21080049
:104CC2004101B001B10140016B084101A300400163
:104CD2006A084101A200400169084101A1004001A6
:104CE20068084101A00040016D084101A500400192
:104CF2006C084101A4000030A9000030A800003077
:104D0200A7000230A600B230AB002B08AA00A531E2
:104D1200BF2541013208AB00AC013308AD00AE0142
:104D22002D08AE00AD012B082D07B0002C082E3D3A
:104D3200B10031084001E900410130084001E800BA
:104D42000800410128084001E8006808E900410123
:104D520029084001E8006808EA0041012A084001E8
:104D6200E8006808EB0041012B084001E8006808F0
:104D7200EC00410123084001CA0041012208400120
:104D8200C900410121084001C80041012008400139
:104D9200C700410125084001CC004101240840011F
:104DA200CB000030D0000030CF000030CE00043005
:104DB200CD006930D1000030D2000230D300803003
:104DC200D40089316C21080000304101A3000B306E
:104DD200A2000030A1000830A0000030A70000307F
:104DE200A6000030A5000030A400FF30A800FF306C
:104DF200A9008030AA000130AB00A631A226A6315C
:104E020000304101A3001130A2000030A1001F3088
:104E1200A0000030A7000030A6000030A50000303E
:104E2200A400E030A800FF30A9006F08083E860009
:104E32000230870001084001ED00EE016D084101DA
:104E4200AA0040016E084101AB00A631A22608006B
:104E520040016B036C04031D502F0030ED0018302D
:104E6200EE00ED14ED1600304101AF001130AE003E
:104E72000030AD000430AC000030B3000030B200AE
:104E82000030B1000030B00040016E084101B500B1
:104E920040016D084101B400A331CF23A731053091
:104EA20040016B066C04031D080000304101AF0095
:104EB2001130AE000030AD000430AC000030B30061
:104EC2000030B2000030B1000030B0000030B40059
:104ED2000230B500A331CF23080040019A0101300E
:104EE2009900960197019801073095003F30910093
:104EF200EF3092009F309300FE309400FE307E012E
:104F0200D900CE01FF30C3000730E400FF30B80003
:104F1200DA01E501C401B9011830CF00E601BA0196
:104F2200C501D001DB0100308B1B0130F0008B1377
:104F320055307D018F00AA308F000F10400193126F
:104F4200931717307D01CB0010307E01A50055303C
:104F52007D018F00AA308F000F14701CB22F8B17A7
:104F620008008B1308004001ED01EE016E08803A43
:104F7200E80080306802031DC02F04306D02031860
:104F8200E42F410134084001E8006D08693E8600C3
:104F920087016808810008304101B736B60CB50CAC
:104FA200B40C890BCD2F01304001ED070030EE3DEE
:104FB2006E08803AE80080306802031DE22F043058
:104FC2006D02031CC22F41012F08A3002E08A2006C
:104FD2002D08A1002C08A0003108A5003008A4006B
:104FE2000030A9000030A8000030A7000430A6005D
:104FF2006930AA000030AB00A531F3250800413426
:105002007334733465347234743469346F346E3487
:1050120020346634613469346C34653464343A342F
:1050220020342534733420346C3469346E3465345E
:105032002034253464343A34203422342534733411
:1050420022340A3400340A340D34753469346E342F
:105052007434363434345F346E3475346D343A34E7
:105062002034253430343434583425343034343414
:1050720058342534303434345834253430343434CC
:10508200583400340A340D3470346D346934633466
:105092005F3462346134743474345F34723465342E
:1050A200613464345F3461346E3464345F34773431
:1050B200643474345F3463346C34723400346D3469
:1050C2006F346434653420343D343D342034443408
:1050D200573433343034303430345F345334503412
:1050E20049345F34573452345F344234493454348F
:1050F20000340A340D345534573442345F34543456
:10510200413447345F34443457344D3433343034CB
:10511200303430345F3450344934433400340A3448
:105122000D344D34533453345334503420347334A7
:105132006534743420346134733420344934323465
:10514200433400340A340D344D345334533453341D
:1051520050342034733465347434203461347334FD
:105162002034533450344934003472346534673453
:105172005F346F3466346634733465347434203487
:105182003C343D34203430347834373446340034BF
:105192000A340D34423451343234353438343934EB
:1051A20035345F34723465345F3469346E34693453
:1051B20074340034303431343234333434343534AA
:1051C2003634373438343934413442344334443455
:1051D2004534463400340A340D3443344F344E34AB
:1051E2004634493447345F345334553443344334BA
:1051F20045345334533400347234653467345F3485
:10520200663469346C34653420343C343D342034A3
:10521200303478343134463400346C3465346E348E
:1052220067347434683420343C3420343034783475
:10523200333431343034303400340A340D344334AE
:105242004F344E344634493447345F344534523453
:1052520052344F345234003400340434A834053408
:105262000034083450340B3400341034A134163472
:105272000034203464346534633461345F3464341C
:10528200653476346934633465342E3463340034DF
:10529200763461346C343A34203425343034343446
:1052A2005834253430343434583400340A340D340C
:1052B200443457344D345F344534523452344F34CD
:1052C200523400340A340D34443461347434613459
:1052D200533465346E3464340034013400340A3497
:1052E200003464340034E8340334103427340A348C
:1052F2000D34643477345F346D34613469346E3420
:105302000034763461346C343A3420342534303409
:10531200323458340034763461346C343A342034C4
:10532200253430343434583400340A340D3444349F
:1053320057344D345F344F344B340034013400342D
:1053420010340034003401340034103428346E3404
:0A53520075346C346C3429340034D7
:020000040001F9
:0A000E008C3FFF379F3FFF1FFF3FAD
:00000001FF
