:04000000803119280A
:100008007E14803140017F08F0004E01961A8C1E44
:1000180014288C12A031A6208B134201CE01CE0ADF
:1000280070084001FF007E10090080311B288731CD
:10003800FE278031FC00B8308400A030850067308E
:100048008600013087000030FF000930A031FA2017
:1000580080319A30840098308500CA30860001309B
:1000680087000030FF001D30A031FA2080312C308D
:100078008400A330850020308600023087000030DD
:10008800FF002430A031FA208031F03084002E3077
:1000980085000030FE000130FF00A031EE208031E5
:1000A80020308400013085003030FE000030FF0031
:1000B800A031EE208031A0308400013085002A3044
:1000C800FE000030FF00A031EE2080314430840073
:1000D800023085001530FE000030FF00A031EE2010
:1000E8008031A0308400023085002E30FE000030C0
:1000F800FF00A031EE207E1040019C31DB2C420134
:10010800E400640886000130870001084101DC0032
:100118005C084201E300D901D90A6408043E86005C
:1001280001308700193001020318A3286408033E30
:1001380086000130870019300102031CD9015908D3
:100148004101DC005C084201D0006408073E8600DB
:100158000130870001030319B428D201D301B8285C
:100168001030D2000030D30052084101DC005C0896
:100178004201D100D401D501E4282030C8284030FC
:10018800C8284830C8288030E1000030E228003014
:10019800E1000130E2280030E1000230E2280030BE
:1001A800E1000430E2280030E1000630E2280030A7
:1001B800E1000830E2280030E1001030E2000529B3
:1001C800640A8600013087000108013A0319C32830
:1001D800033A0319D328063A0319C128013A031927
:1001E800C728033A0319D728013A0319C5280E3A34
:1001F8000319CB28033A0319DB28073A0319CF2838
:10020800DF287C08103E8600023087001F308105F9
:100218004131FF3081056408073E860001308700C0
:1002280001084101DC007C080C3E86000230870092
:100238005C0881000130DC000030DD004201640808
:100248000C3E8600013087000108023E890A410100
:100258002F29DC35DD0D890B2D295C084201DF00D3
:1002680041015D084201E0005F084101DC004201F4
:1002780060084101DD00DE01DF010330DC35DD0D02
:10028800DE0DDF0D890B42295F084001A300410103
:100298005E084001A20041015D084001A100410142
:1002A8005C084001A000A431652480314001200889
:1002B800A7002108A8002208A9006630A40066301B
:1002C800A5003F30A6009231EB228031400124087E
:1002D800B4002508B5002608B6009E314C268031AA
:1002E8007C08123E86000230870040013408C03F77
:1002F8003508C13F420164080B3E86000130870083
:1003080001084101DC007C08153E860002308700A8
:100318005C0881000030A3000030A2000030A1007A
:100328001030A0000030A7000030A6000030A50063
:100338000030A400FF30AB00FC30AA004F30A90009
:10034800CF30A800420151084101DC00DD01DE0187
:10035800DF0142016408083E860001308700010879
:100368004101E0000430E035FF3E031DB729603548
:100378002039E100E201E301E401420164080B3E97
:1003880086000130870001080B394101E500E601CC
:10039800650EF039E600E5016508E7006608E80043
:1003A800E901EA01420164080D3E86000130870038
:1003B80001084101EB00EC01ED01EE011030EB35D5
:1003C800EC0DED0DEE0D890BE3296B08E7046C08C5
:1003D800E8046D08E9046E08EA046708E10468089F
:1003E800E2046908E3046A08E4045C086104AC00F8
:1003F8005D086204AD005E086304AE005F08640433
:10040800AF0093319F238031420150080319A72A76
:100418007C08103E8600023087006030810441313C
:100428000030810400304101A3000B30A2000030ED
:10043800A1000830A0000030A7000030A60000305E
:10044800A5000030A4000030AB000030AA00E7305F
:10045800A900FF30A8000030AF000030AE000C301B
:10046800AD000030AC0093319F2380310030410152
:10047800AF000E30AE000030AD000C30AC000030E4
:10048800B3000030B2000030B1000030B0000030DE
:10049800B7000030B6000330B5000630B40098311C
:1004A800B720803100304101AF000E30AE0000307F
:1004B800AD000E30AC000030B3000030B2000030A8
:1004C800B1000030B0000030B7000030B600003096
:1004D800B5000030B4009831B720803100304101B8
:1004E800AF000E30AE000030AD001230AC0000306E
:1004F800B3000030B2000030B1000030B00000306E
:10050800B7000C30B6005A30B5000A30B400983144
:10051800B720803100304101AF000E30AE0000300E
:10052800AD001630AC000030B3000030B20000302F
:10053800B1000030B0007D30DC005C08B400A231AE
:10054800262280319C2B420164080B3E8600013034
:10055800870001080319412B64080D3E860001300D
:10056800870001030319C02A64080D3E8600013084
:1005780087000108031DDE2A64080C3E860001304E
:10058800870001084101DC00DD01DC35DD0D30307C
:100598005C078400A9305D3D8500003F4001A40050
:1005A800013FA50010304101DE005E084001A600B1
:1005B8000330FB2A64080C3E8600013087000108DE
:1005C8004101DC00DD01DC35DD0D30305C078400E5
:1005D800A9305D3D8500003F4001A400013FA50012
:1005E80010304101DE005E084001A60004304101E0
:1005F800DF005F084001A7009B31F82380314001EC
:1006080025084201D700400124084201D6006008AD
:100618004101DD0042015F084101DC00DC35DD0DF0
:10062800DC35DD0DDC35DD0D5C084201E1074101FB
:100638005D084201E23D00304101A3000E30A200F6
:100648000030A1001230A0000030A7000030A60042
:100658000030A5000230A4008030A800FF30A900B7
:100668007F30420156054101AA000030420157057A
:100678004101AB00A7316C27803142016208803A02
:100688004101DC0081305C02031D4D2B003042012A
:100698006102031C782B7C08103E8600023087001C
:1006A8002030810441310030810400304101A30031
:1006B8000B30A2000030A1000830A0000030A700D5
:1006C8000030A6000030A5000030A4000030AB00C8
:1006D8000030AA00E730A900FF30A8000030AF00C2
:1006E8000030AE000430962B00304101A3000B30DF
:1006F800A2000030A1000830A0000030A7000030A0
:10070800A6000030A5000030A4000030AB00003087
:10071800AA00E730A900FF30A8000030AF00003081
:10072800AE001430AD000030AC0093319F2380310F
:1007380000304101A3000630A2000030A1000030C3
:10074800A0000030A7000030A6000030A50000304F
:10075800A400FC30DC005C08A800420164088600A4
:10076800013087000130423F4101A900A6314326EC
:10077800803100304101AF000230AE000030AD00E2
:100788000030AC000030B3000030B2000030B100DF
:100798000030B00042015F08FF3E4101DC005C0808
:1007A800B400A231262280314201640A8600013059
:1007B800870007300106031DE32B0830E42B0030C7
:1007C800A23142228031420164080B3E860001308A
:1007D8008700033001054101DC0003305C06031D7E
:1007E8000D2C0030AF000630AE000030AD000C30EC
:1007F800AC000030B3000030B2000030B10000306F
:10080800B000AF30B7005F30B6003530B500CC303F
:10081800252C00304101AF000630AE000030AD009D
:100828000C30AC000030B3000030B2000030B10032
:100838000030B000AF30B7005F30B6005830B500B8
:100848004C30B4009831B720803100304101AE00FF
:100858000130AD000030AC001430AB000030B20005
:100868000030B1000030B0000030AF009A31CF2224
:10087800803141012E084201DD0041012D0842016D
:10088800DC0041012C084201DB0041012B08420138
:10089800DA000030DA05E030DB050030DC05003036
:1008A800DD050930630603195A1400304101DC00E4
:1008B8001F30DD000030DE000030DF004201640838
:1008C800043E86000130870001084101E000E10193
:1008D800E201E3010830E035E10DE20DE30D890B9B
:1008E8006F2C6008DC056108DD056208DE05630819
:1008F800DF055C084201DA0441015D084201DB04BE
:1009080041015E084201DC0441015F084201DD0447
:100918006408033E86000130870001084101DC00BD
:100928000230DC35FF3E031D952C5C35F839DD00BF
:10093800DE01DF01E0015D084201DA0441015E08E1
:100948004201DB0441015F084201DC044101600807
:100958004201DD046408053E860001308700013548
:1009680006394101DC00DD01DE01DF015C084201DE
:10097800DA0441015D084201DB0441015E084201DD
:10098800DC0441015F084201DD0400304101AF0091
:100998000130AE000030AD001430AC000030B300C0
:1009A8000030B2000030B1000030B00042015D08F4
:1009B8004101B70042015C084101B60042015B08F1
:1009C8004101B50042015A084101B4009831B720ED
:1009D800803100304101A3000030A2000030A100A6
:1009E8002430A0000030A7000030A6000030A50089
:1009F8000030A4000030AB000030AA000B30A90082
:100A0800FF30A8004201640A86000130870001080F
:100A18004101DC00DD01DE01DF010C30DC35DD0DDC
:100A2800DE0DDF0D890B122D42016408063E86009B
:100A38000130870001084101E000E101E201E30122
:100A48000A30E035E10DE20DE30D890B252D5C0838
:100A58006004AC005D086104AD005E086204AE008D
:100A68005F086304AF0093319F238031420164081B
:100A7800093E86000130870016000104031D4D2D34
:100A88006408093E8600013087008130C03F00308D
:100A9800C13F00304101AF000630AE000030AD006C
:100AA8000030AC000030B3000030B2000030B100BC
:100AB8000230B00042016408093E86000130870018
:100AC800403F4101B400413FB500A331C22380310A
:100AD800093042016306031DC22D00304101AF00F9
:100AE8000730AE000030AD001C30AC000030B30061
:100AF8000030B2000030B1000030B0001C30B70048
:100B08000130B6000030B5003430B4009831B72059
:100B1800803100304101AF000930AE000030AD0037
:100B28000030AC000030B3000030B2000030B1003B
:100B38000030B0003C30B4000F30B500A331C22300
:100B4800803100304101AF000730AE000030AD0009
:100B58001030AC000030B3000030B2000030B100FB
:100B68000030B0000830B700B530B600A830B50086
:100B78003330B4009831B7208031F62D0030410170
:100B8800AF000730AE000030AD001C30AC000030C4
:100B9800B3000030B2000030B1000030B0001C30AB
:100BA800B7000730B6001130B5003430B4009831C2
:100BB800B720803100304101AF000930AE0000306D
:100BC800AD000030AC000030B3000030B20000309F
:100BD800B1000030B0003C30B4001F30B500A33184
:100BE800C223803100304101AF000730AE00003031
:100BF800AD005030AC000030B3000030B20000301F
:100C0800B1000130B0001430DC005C08B400A2313F
:100C18002622803100304101AF000730AE0000309D
:100C2800AD001830AC000030B3000030B200003026
:100C3800B1000230B0000E30DC005C08B400A23114
:100C48002622803100304101AF000930AE0000306B
:100C5800AD000830AC000030B3000030B200003006
:100C6800B1000030B0008130DC005C08B400A23173
:100C78002622803100304101AF000030AE00003044
:100C8800AD004430AC000030B3000030B20000309A
:100C9800B1000030B0000230DC005C08B400A231C2
:100CA8002622803101304101B8000030B900873177
:100CB8001A2780314201D801D80ADE0106305E02C7
:100CC8000318952E0030F4000030F3000030F200D5
:100CD8000130F100A4311224803100304101A30019
:100CE8000030A2000030A1004430A0000030A7006E
:100CF8000030A6000030A5000030A400A4319024E4
:100D08008031023903198B2E4201D801952E01300A
:100D18004101DC005C084201DE0706305E02031C6C
:100D2800662E580803199E2EFF304101DA00FF3065
:100D3800DB00080042016408043E86000130870099
:100D480009300102031CEA2E6408043E86000130C3
:100D58008700193001020318EA2E7C08093E860034
:100D6800023087000103031DBE2E6308A731AF2799
:100D78008031CD2E420163084101DC00DD015C08B1
:100D88004001EC0041015D084001ED0096318426E8
:100D9800803100304101A3000330A2000030A100DF
:100DA8001830A0000030A7000030A6000030A500D1
:100DB8000030A400FF30A8008130A9000030AA004C
:100DC8006430AB00A7316C278031032F003041011C
:100DD800A3000330A2000030A1001830A0000030AA
:100DE800A7000030A6000030A5000030A400FE30A7
:100DF800DC005C08A800A901A63143268031013037
:100E08004101D3000030D4009B3131234101540803
:100E18004201D500410153084201D400550841015F
:100E2800DB00420154084101DA000800410138039F
:100E38003904031D412F05304001EE000030EF005A
:100E4800A7312B27873100304101A3001130A200C0
:100E58000030A1000830A0000030A7000030A60034
:100E68000030A5000130A400FF30BA003A08A800FD
:100E7800A901A90AA6314326080002304101380613
:100E88003904031DA72F0030A3001130A200003041
:100E9800A1000430A0000030A7000030A6000030F8
:100EA800A5000030A400FF30BA003A08A8000330BB
:100EB800BB003B08A900A631432687310030410119
:100EC800A3001130A2000030A1000830A0000030BB
:100ED800A7000030A6000030A5000030A4000030B4
:100EE800AB000030AA00FE30A900FF30A800003097
:100EF800AF008030AE000030AD000030AC00933160
:100F08009F23873100304101A3001130A200003037
:100F1800A1000830A0000030A7000030A600003073
:100F2800A5000230A4007F30BA003A08A800A90141
:100F3800A6314326873105304001EE000030EF002E
:100F4800A7312B27080000304101A3001130A2006F
:100F58000030A1000430A0000030A7000030A60037
:100F68000030A5000030A400FF30BA003A08A800FD
:100F7800A901A90AA6314326873100304101A300FF
:100F88001130A2000030A1000830A0000030A700F6
:100F98000030A6000030A5000030A4000030AB00EF
:100FA8000030AA00FE30A900FF30A8000030AF00D2
:100FB8008030AE000030AD000030AC0093319F238C
:100FC800873100304101A3001130A2000030A10098
:100FD8000830A0000030A7000030A6000030A500AF
:100FE8000230A4007F30BA003A08A800A901A6314F
:060FF80043260800A034AE
:10100000F1004E010F1E0128710842019A000800EC
:101010004101CD00C901CA01CB01CC014D1C4D19C4
:101020001528CD1915284D1EFD284D1C2A28CD1C2C
:1010300021280030A3000030A2000030A1000D30B4
:10104000662800304101A3000030A2000030A1005A
:1010500003306628CD1D3F28CD1C36280030A30064
:101060000030A2000030A1000F306628003041019E
:10107000A3000030A2000030A100073066284D1EFA
:101080005428CD1C4B280030A3000030A2000030B3
:10109000A1000E30662800304101A3000030A200FC
:1010A0000030A10005306628CD1C5E280030A3006A
:1010B0000030A2000030A10010306628003041014D
:1010C000A3000030A2000030A1000930A0000030D1
:1010D000A400A5000030A9000030A8000030A7003F
:1010E0000030A6000030AA000030AB00A6310C266C
:1010F000883100304101A3000030A2000030A1007F
:101100004430A0000030A7000030A6000030A50049
:101110000330A400A431902488314001EC00ED019B
:101120006C084101CB0040016D084101CC00CB1996
:10113000DE280030AE000F30AD000030AC003030A3
:10114000AB000030B2000030B1000030B000003021
:10115000AF009A31CF22883141012E08C8002D08F6
:10116000C7002C08C6002B08C5000D3047064504F3
:1011700046044804031DDB280030A3000030A20011
:101180000030A1000030A0000030A400A500003015
:10119000A9000030A8000030A7000030A6000030F1
:1011A000AA000030AB00A6310C26FF304101C90077
:1011B000FF30CA000800C901CA0108000030A300BE
:1011C0000030A2000030A1000030A0000030A400D8
:1011D000A5000030A9000030A8000030A7000030B2
:1011E000A6000030AA000030AB00A6310C26FF306C
:1011F0004101C900FF30CA000800CD1E3629CD1CB0
:101200001B290030A3000030A2000030A1001130E3
:10121000A0000030A400A5000030A9000030A80004
:101220000030A7000030A6000030AA000030AB005C
:10123000A6310C26080000304101A3000030A200B6
:101240000030A1000B30A0000030A400A500003049
:10125000A9000030A8000030A7000030A600003030
:10126000AA000030AB00A6310C260800CD1C522984
:101270000030A3000030A2000030A1000C30A0001C
:101280000030A400A5000030A9000030A800003004
:10129000A7000030A6000030AA000030AB00A63145
:1012A0000C26080000304101A3000030A2000030ED
:1012B000A1000130A0000030A400A5000030A9006A
:1012C0000030A8000030A7000030A6000030AA00BF
:1012D0000030AB00A6310C2608004001E901EA010C
:1012E0004A08D8004B08D9004C08DA004D08DB004A
:1012F0004E08DC004F08DD00DE01DF015C08D80786
:101300005D08D93D5E08DA3D5F08DB3D1030DB3615
:10131000DA0CD90CD80C890B87291F305805E0004E
:1013200000305905E1004A084E07D8004B084F3DF0
:10133000D9007F305805E50000305905E60000303F
:101340006102203003196002031CB529DE30C4009D
:101350000030C5003E30C600A930C700F130C800DB
:10136000A830C900A13170218931003040016602E6
:10137000803003196502031CCC29DF30C400003023
:10138000C5003E30C600A930C7009930C800A8305B
:10139000C900A1317021893140015308031DD729AB
:1013A0005208031DD72931305102031CE629E030D1
:1013B000C4000030C5003E30C600A930C70002306E
:1013C000C800A930C900A1317021893180304001A5
:1013D000570656040319132A560857040319132AEB
:1013E00056038030031957060319132A0230560694
:1013F0008030031957060319132A0330560680302C
:10140000031957060319132AE530C4000030C5003C
:101410003E30C600A930C7000430C8009830C9006B
:10142000A1317021893140016608D9006508D800D2
:10143000D835D90DD835D90D6108DB006008DA0040
:101440000930DA35DB0D890B212A58085A04E200ED
:1014500059085B04E30062085604D8006308570487
:10146000D9005908DA005A08E7005608033962041F
:10147000D8005808E8005308520451045004031DD2
:101480005C2A8030570656040319552AF130C400EF
:101490000030C5003E30C600A930C7004330C80048
:1014A000A830C900A1317021893140014A35813805
:1014B000D8005808E700692A65086604031D6B2AEE
:1014C0008030570656040319692A56085704031D2D
:1014D0006B2A01306D2A67170230E9000030EA00FC
:1014E000E92AE4017C08143E8600023087000108E6
:1014F0000319B82A6730F1000030F2006A08F400DE
:101500006908F300F501A4313B2489314001D8007A
:101510005808E4005508F2005408F1005108F4009E
:101520005008F3006408D8005808F500A4313B24A3
:1015300089314001D9005908E4006A08A10069080E
:10154000A0006730D8005808A2005308A60052082F
:10155000A5005108A4005008A3005508A80054088D
:10156000A7006408D9005908A900A3315023080036
:1015700040016A08A1006908A0006730D800580837
:10158000A2005308A6005208A5005108A400500864
:10159000A3005508A8005408A700A131F0210800B5
:1015A00040016A08A1006908A0006730D800580807
:1015B000A2005308A6005208A5005108A400500834
:1015C000A3005508A8005408A700A131D5210800A0
:1015D000E82A40015708003A0319F22A803A031911
:1015E000F72AE82A5608003A0319D02AE82A5608AA
:1015F000003A0319712A013A0319712A033A0319AF
:10160000712A013A0319712AE82A08007C080F3E62
:1016100086000230870081017C08103E860002307F
:1016200087000230C03F0030C13F7C08143E860076
:101630000230870081017C08153E86000230870059
:1016400081017C080A3E86000230870081017C0807
:101650000B3E86000230870081017C08223E860016
:10166000023087000030C03FC13F7C08243E860026
:10167000023087000030C03FC13F7C08263E860014
:10168000023087000030C03FC13F7C08283E860002
:10169000023087000030C03FC13F7C082C3E8600EE
:1016A000023087000030C03FC13F7C082A3E8600E0
:1016B000023087000030C03FC13F0030F4000030EE
:1016C000F3000030F2000230F100A43112248B311B
:1016D000A6317A268B3140016B086C040319762BF6
:1016E000FF304101CD00FF30CE000800A53142257A
:1016F0008B31003A0319762B04304101C5000030CC
:10170000C6009C3166248B3141014808D700470848
:10171000D6004608D5004508D4000530C500003085
:10172000C6009C3166248B3141014808DB00470824
:10173000DA004608D9004508D8000A30C500003054
:10174000C6009C3166248B3141014508CF00460814
:10175000D0004708D1004808D2001030D236D10C52
:10176000D00CCF0C890BAE2B4F081F39D3007C084F
:10177000083E86000230870053088100570856044F
:10178000550454040319D52B5B085A045904580412
:101790000319D52B7C08083E86000230870001081B
:1017A0000319D52BA631EB268B3120304101C50022
:1017B0000030C6009C3166248B3140304101450623
:1017C0000230031946061030031948064704031D6A
:1017D000F12B7C08093E8600023087008101810AD6
:1017E000F72B7C08093E86000230870081014D1EE0
:1017F0000D2C0630C5000030C6009C3166248B31AC
:101800007C0886000230870041014508C03F460839
:10181000C13F4708C23F4808C33FCD1E242C0730B4
:10182000C5000030C6009C3166248B317C08043E24
:1018300086000230870041014508C03F4608C13F8D
:101840004708C23F4808C33F4D1F372C0830C5002A
:101850000030C6009C3166248B3141014508CF0021
:101860007C080A3E8600023087004F088100CD1FA9
:101870004A2C0930C5000030C6009C3166248B31EB
:1018800041014508CF007C080B3E860002308700EE
:101890004F0881007C080B3E86000230870001085B
:1018A000031D5B2C8530CF007C080B3E8600023088
:1018B00087004F0881007C080A3E860002308700BE
:1018C0000108031D6C2C7430CF007C080A3E860092
:1018D000023087004F0881001F30C5000030C6006D
:1018E0009C3166248B3141014508CF007C080D3EB8
:1018F0008600023087004F0881001E30C50000308E
:10190000C6009C3166248B31410145087F39CF00E8
:101910007C080E3E8600023087004F0881007C085C
:101920000E3E8600023087000108031DA02C2E30D9
:10193000CF007C080E3E8600023087004F088100F1
:101940000030AF000930AE000030AD001430AC0004
:101950000030B3000030B2000030B1000030B00001
:101960007C0886000230870002304E3FB400A2316E
:1019700026224101CD01CE0108004001B7004001FF
:101980002508A8002408A700A40A0319A50A270807
:101990008400280885000008A9002908B600360838
:1019A0000319FC2F253036060319FD2C370A860053
:1019B0008701160001040319EA2C3608A70027083E
:1019C000F200370A86008701413F8A00403F0A0043
:1019D0008C31BF2C40013608A700370886008701EC
:1019E000010886008701270881000130A700370819
:1019F0008600870127088107BF2CB401B501B30118
:101A0000062D33150130A4070030A53D24088400BD
:101A1000250885000008303A0319012D0F2D2408F0
:101A20008400250885000008A13113218C31031C96
:101A3000F32D4001B401B5010A30F1000030F2008D
:101A400040013508F4003408F300A131BA218C318B
:101A500072084001B5007108B4002408840025080C
:101A600085000008D03EA700FF3003180030A80012
:101A70002708B4072808B53D0130A4070030A53D6C
:101A800024088400250885000008A13113218C3129
:101A9000031CF32D1C2D4001B317142E26088600BD
:101AA000870101088400850102308107003FAF00F3
:101AB000013FB0002F083004031D622DAA30AF0093
:101AC000A930B000AD01AE012F082D078400300809
:101AD0002E3D850012000319722D0130AD07003034
:101AE000AE3D642D35082E02031D782D34082D02DD
:101AF00003187F2D2D08B4022E08B53B812DB401AB
:101B0000B501FF304001B407FF30B53D340A031979
:101B1000350A0319E82D370A8600870116000104EB
:101B200003199F2D2030A7002708F200370A8600EE
:101B30008701413F8A00403F0A008D31812D2030CE
:101B40004001A70037088600870101088600870149
:101B5000270881000130A700370886008701270881
:101B60008107812D370A86008701160001040319B9
:101B7000CF2D2F088400300885000008A700270813
:101B8000F200370A86008701413F8A00403F0A0081
:101B90008D3101304001AF070030B03DE82D2F08F6
:101BA0008400300885000008A700370886008701F8
:101BB000010886008701270881000130AF07003047
:101BC000B03D0130A700370886008701270881074C
:101BD0000130AD020030AE3B2D0A031DB22D2E0A9E
:101BE0000319BF2CB22D40012508A8002408A70026
:101BF000A40A0319A50A27088400280885000008FC
:101C0000B600003A0319FC2F583A03194B2D3C3A01
:101C10000319142E0D3A0319142E1A3A03194E2DD6
:101C20000B3A03194B2DBF2C4001B31B2F2E260856
:101C30008600870101088400850102308107003F8A
:101C4000B100013FB200B21F802E0330A700270869
:101C5000B304B109B209B10A0319B20A802E2608E9
:101C60008600870101088400850102308107003F5A
:101C7000B100013FB200802EB601B60A053036062B
:101C80000319892E3608A700A801A735A80D7130C1
:101C900027078400A930283D8500003FA900013FA7
:101CA000AA002A083202031D572E29083102031CFC
:101CB000892E0130A7002708B6073E2EB601B60AC6
:101CC000043036060319892E3608A700A801A73567
:101CD000A80DA23027078400A930283D8500003FC9
:101CE000A900013FAA002A083202031D792E290803
:101CF0003102031C892E0130A7002708B607602E89
:101D000033088039003A03193C2E803A03195E2EBD
:101D1000892E340835040319952E33080339031925
:101D2000952EFF30B407FF30B53D3608A700A80157
:101D3000A71BA8032808803AA9003508803A290281
:101D4000031DA42E340827020318B12E40013608C3
:101D5000A700A801A71BA8032708B4022808B53BC1
:101D6000B42E4001B401B501331D112F33080339DE
:101D70000319E02E370A86008701160001040319B3
:101D8000CE2E2D30A7002708F200370A86008701E3
:101D9000413F8A00403F0A008E31E02E2D30400145
:101DA000A7003708860087010108860087012708F9
:101DB00081000130A70037088600870127088107C6
:101DC00040013408350403196E2F370A8600870155
:101DD000160001040319F92E3030A7002708F2007D
:101DE000370A86008701413F8A00403F0A008E3152
:101DF0000B2F30304001A70037088600870101080B
:101E000086008701270881000130A7003708860077
:101E1000870127088107FF304001B407FF30B53D37
:101E2000E12E340835040319442F370A8600870150
:101E3000160001040319292F2030A7002708F200FB
:101E4000370A86008701413F8A00403F0A008F31F0
:101E50003B2F20304001A70037088600870101088A
:101E600086008701270881000130A7003708860017
:101E7000870127088107FF304001B407FF30B53DD7
:101E800034083504031D152F3308033903196E2F49
:101E9000370A860087011600010403195C2F2D30D4
:101EA000A7002708F200370A86008701413F8A0011
:101EB000403F0A008F316E2F2D304001A7003708B8
:101EC000860087010108860087012708810001300C
:101ED000A7003708860087012708810740013608D8
:101EE000A7002708AC00F32F0A30A0000030A100A3
:101EF0002C08A700A801A735A80D7130270784007A
:101F0000A930283D8500003FF100013FF200320872
:101F1000F4003108F300A531A4258C31720840018A
:101F2000A3007108A200A431E8248C3140012008EC
:101F3000303EA9002908C22F2C08A700A801A73508
:101F4000A80DA23027078400A930283D8500003F56
:101F5000F100013FF2003208F4003108F300A5312E
:101F6000A4258C3171080F394001A9002908AB0064
:101F70002B08BE3E8400A8300318013E85000008EF
:101F8000A7002708B600CD2F33088039003A03197F
:101F9000742F803A03199C2FCD2F370A86008701B2
:101FA000160001040319E12F3608A7002708F200E4
:101FB000370A86008701413F8A00403F0A008F317F
:101FC000F32F40013608A700370886008701010873
:101FD00086008701270881000130A70037088600A6
:101FE000870127088107FF304001A7002708AC07B9
:101FF0002C0A0319BF2CC42F4001A401A50108001D
:1020000005304101380639043A043B04031D2B28EE
:102010000030A3000730A2000030A1000430A0006F
:102020000030A7000030A6000030A5000030A4005A
:10203000FF30AB00FF30AA00FF30A900FF30A8003E
:102040000230AF000030AE003C30AD000030AC00DC
:1020500093319F23080009304101380639043A04BE
:102060003B04031D08000030A3000730A20000302D
:10207000A1000430A0000030A7000030A60000300E
:10208000A5000030A400FF30AB00FF30AA00FF30F5
:10209000A900FF30A8000230AF000030AE001C30B5
:1020A000AD000030AC0093319F230800F2012730CF
:1020B000F3000030F40009304001A3002308F500CC
:1020C000D4309931082190317F304001A30023089A
:1020D000F1001430A4002408F2002708A0318A205F
:1020E00090314001A5002508A700F101F201280860
:1020F000A0318A2090314001A3002308A8000D30B0
:10210000A3002308F100F2012908A0318A209031B0
:102110004001A4002408A9006030A3002308F100B6
:102120004030A4002408F2002A08A0318A2090310F
:102130004001A5002508AA007F30A3002308F10074
:102140001030A4002408F2002B08A0318A2090311E
:102150004001A5002508AB000F30A3002308F100C3
:102160000330A4002408F2002C08A0318A2090310A
:102170004001A5002508AC00F101F2012D08A031B5
:102180008A2090314001A3002308AD004630A3000F
:102190002308F1000430A4002408F2002E08A03126
:1021A0008A2090314001A5002508AE000330A3002D
:1021B0002308F100F2012F08A0318A20903140015C
:1021C000A4002408AF00F2012730A3002308F30085
:1021D0000930A4002408F400D430A53115254001AD
:1021E000A5002508A60008004001AB00A401AA0133
:1021F000A901A501A6012B0886000130870001086E
:10220000A2000530A236890B022922080739A30053
:102210002308A4002B088600013087000108A200D3
:102220000330A236890B112922080339A3002308A1
:10223000AA002B088600013087000108A2000230A6
:10224000A236890B202922080139A3002308A900FE
:102250002B0886000130870001360139A2002208D0
:10226000A5002B0886000130870001080139A20073
:102270002208A6002903031D62294201EC01EC0A91
:1022800040012A030319482902302A06031D4F2959
:1022900042016D03031D6D29400199105929033036
:1022A0002A06031D5B2942016D03031D6D294001B0
:1022B000991499116D2942016D03031D6D29400187
:1022C00099106C290230A20022084201EC006D0333
:1022D000031D6D2940019914991540012B08033EF7
:1022E00086000130870001087F39A200A30122087F
:1022F000F1002308F2001430F3000030F400A131A3
:10230000BA2190317108003E4001A7000930723DAA
:10231000A8002808FA002708F900A3319C234001EF
:10232000A20022084201CD00080000308B1B0130C2
:102330004001C60003304201E7070030E83D0030AD
:102340006802323003196702031C0800E701E80144
:1023500001304001C40044084201EB0702309F31C4
:102360006627913100308B1B01304001C6008B1372
:10237000063042016B02031C062A12304001B800ED
:10238000A930B900A1315A2191314201EB0102304B
:102390004001C4004408F200D430A331EA23913153
:1023A0004001C50045084301C000401CEB29AC308A
:1023B0004001B800A830B900A1315A2191319031C3
:1023C0005620913134304001C400F130890BE629A8
:1023D000C40BE6290032430140083F3980384001F0
:1023E000C40044084301C00002304001C400440856
:1023F000F200430140084001C5004508F300D43015
:10240000A231B2229131A33176239131CF304001F4
:10241000B800A830B900A1315A2191310030F10043
:10242000F2000A30F3000030F400C030A2310B2279
:10243000913142016E084001C4004408F200C030EE
:10244000F3000130F4000A30C5004508F500D4302F
:102450009931082191314001461C302A8B17312ACD
:102460008B130A304001C4004408A100C0309031F1
:10247000F420080000304101A3000730A200003022
:10248000A1004830A0000030A7000030A6000030B6
:10249000A5000030A400FF30AB00FF30AA00FF30E1
:1024A000A900FF30A8000830AF000030AE000830AF
:1024B000AD000030AC0093319F23923100304101D8
:1024C000A3000730A2000030A1004830A000003077
:1024D000A7000030A6000030A5000030A400FF30A7
:1024E000AB00FF30AA00FF30A900FF30A800003089
:1024F000AF006030AE000030AD006030AC00933112
:102500009F239231053041013E063F0440044104BF
:10251000031DA82A0030A3000730A2000030A1004C
:102520000030A0000030A7000030A6000030A50059
:102530000030A400FF30AB00FF30AA00FF30A9003C
:10254000FF30A8000230AF000030AE003C30C62A99
:1025500000304101A3000730A2000030A10000308C
:10256000A0000030A7000030A6000030A500003019
:10257000A400FF30AB00FF30AA00FF30A900FF30FD
:10258000A8000230AF000030AE001C30AD000030BB
:10259000AC0093319F239231410142080319080096
:1025A0000030AF000730AE000030AD001430AC009A
:1025B0000030B3000030B2000030B1000030B00095
:1025C0000130B7000130B6001130B5000030B40062
:1025D0009831B720080040012408AA002508AB0064
:1025E0002608AC0003102B0D2C0DAD002D08AE00FD
:1025F0002E08031D022B0030A4000030A50000307F
:10260000A60008002708AA002808AB002908AC008B
:1026100003102B0D2C0DAD002D08B3003308031D46
:10262000182B0030A4000030A5000030A6000800E0
:1026300033087B3EAA002A08AE072408AA00250812
:10264000AB002608AC001030AC36AB0CAA0C890BE2
:10265000242B2A08AD002D08B3002708AA0028085B
:10266000AB002908AC001030AC36AB0CAA0C890BBF
:10267000342B2A08AD002D08B3068030AA002A08A2
:10268000B305A517A817FF30A705FF30A805003030
:10269000A9050030AF000030B0000030B1000730B5
:1026A000AA002A08B200241C5B2B2708AF072808C1
:1026B000B03D2908B13D0130A636A50CA40C890B0C
:1026C0005C2B0130A735A80DA90D890B622B0130B9
:1026D000B202031D532B0930AA002A08B200241CA1
:1026E000772B2708AF072808B03D2908B13D0130F6
:1026F000A636A50CA40C890B782B0130B136B00C92
:10270000AF0C890B7E2B0130B202031D6F2B2F08FB
:10271000F1003008F2003108F3002E08AA002A0860
:10272000F4003308AB002B08F5009B3194237108AB
:102730004001A4007208A5007308A600080041012A
:1027400028084001EB006B084101B0002808400157
:10275000EB00410129084001EC0041012A08400139
:10276000ED0041012B084001EE000830EE36ED0C83
:10277000EC0CEB0C890BB62B6B08EF006F084101DA
:10278000B10028084001EB00410129084001EC009C
:1027900041012A084001ED0041012B084001EE00F3
:1027A0001030EE36ED0CEC0CEB0C890BD12B6B08DA
:1027B000EF006F084101B20028084001EB00410121
:1027C00029084001EC0041012A084001ED004101C7
:1027D0002B084001EE001830EE36ED0CEC0CEB0C43
:1027E000890BEC2B6B08EF006F084101B3002C083C
:1027F0004001EB006B084101B4002C084001EB00E4
:1028000041012D084001EC0041012E084001ED007E
:1028100041012F084001EE000830EE36ED0CEC0CC3
:10282000EB0C890B0D2C6B08EF006F084101B50014
:102830002C084001EB0041012D084001EC00410152
:102840002E084001ED0041012F084001EE0010303C
:10285000EE36ED0CEC0CEB0C890B282C6B08EF0022
:102860006F084101B6002C084001EB0041012D0822
:102870004001EC0041012E084001ED0041012F080C
:102880004001EE001830EE36ED0CEC0CEB0C890B31
:10289000432C6B08EF006F084101B700230840018B
:1028A000CD00410122084001CC0041012108400136
:1028B000CB00410120084001CA0041012508400128
:1028C000CF00410124084001CE000030D300003089
:1028D000D2000030D1000830D000B030D400003039
:1028E000D5000330D6008030D70089316D21080033
:1028F000003041013B02803003193A020318D62C04
:102900003C08BD00BE01BF01C0010B30BD35BE0D8E
:10291000BF0DC00D890B862C3A08C1003B08C200D0
:10292000C301C4011030C135C20DC30DC40D890BE4
:10293000932C3808C5003908C600C701C8014508EE
:10294000C1044608C2044708C3044808C4043D083B
:102950004104CB003E084204CC003F084304CD00B4
:1029600040084404CE000030A3000030A200003034
:10297000A1002430A0000030A7000030A6000030E5
:10298000A5000030A400FC30AB000030AA00F430F9
:10299000A9000030A8004E08AF004D08AE004C085A
:1029A000AD004B08AC0093319F23080041013C0867
:1029B000BD00BE01BF01C0010B30BD35BE0DBF0D56
:1029C000C00D890BDD2C3A08803EC10000303B3D34
:1029D000C2004108C3004208C400C501C60110304E
:1029E000C335C40DC50DC60D890BF02C3808C700C2
:1029F0003908C800C901CA014708C3044808C4040B
:102A00004908C5044A08C6043D084304CB003E08F3
:102A10004404CC003F084504CD0040084604CE00E5
:102A20000030A3000030A2000030A1002430A0003C
:102A30000030A7000030A6000030A5000030A40040
:102A4000FC30AB000030AA00F430A9000030A80030
:102A50004E08AF004D08AE004C08AD004B08AC006E
:102A600093319F23943100304101A3000830A2002C
:102A70000030A1000030A0000030A7000030A60008
:102A80000030A5000030A400A43190244101BD0015
:102A9000BE01BF01C0014008CE003F08CD003E0886
:102AA000CC003D08CB0008004101CC01CD01003035
:102AB000D1000030D0000030CF000030CE00003018
:102AC000CA000230C9000030C8000130C700003021
:102AD000AF000430AE000030AD000C30AC00003070
:102AE000B3000030B2000030B1000030B0004A083E
:102AF000B7004908B6004808B5004708B400983147
:102B0000B720953100304101A3000430A20000300D
:102B1000A1000C30A0000030A7000030A60000305B
:102B2000A5000030A400FF304001EE006E08410116
:102B3000A80010304001EF006F084101A900A63144
:102B4000432695314101CB01CB0AD2010330520219
:102B50000318D92D0030F4000030F3000030F200EB
:102B60000130F100A4311224953100304101A3005D
:102B70000430A2000030A1002030A0000030A700E7
:102B80000030A6000030A5000030A400A43190243D
:102B90009531013A031DCF2D4101CB01D92D0130D3
:102BA0004001EE006E084101D20703305202031CBF
:102BB000AA2D4B080319E02DFF30CC00FF30CD00CB
:102BC0000030AF000430AE000030AD000C30AC007F
:102BD0000030B3000030B2000030B1000030B0006F
:102BE000B401A2312622953100304101AF000430FA
:102BF000AE000030AD002030AC000030B30000303B
:102C0000B2000030B1000030B000B401B40AA2310B
:102C10002622953100304101A3000430A20000308B
:102C2000A1000C30A0000030A7000030A60000304A
:102C3000A5000230A400FF304001EE006E08410103
:102C4000A800A901A90AA631432695310030410107
:102C5000AE000430AD000030AC001430AB000030EA
:102C6000B2000030B1000030B0000030AF009A3147
:102C7000CF22953141012E08D1002D08D0002C081B
:102C8000CF002B08CE004E0A031D532E4F0A031D02
:102C9000532E500A1F3003195106031D532EFF30C7
:102CA000CC00FF30CD000030AE000430AD0000306D
:102CB000AC001C30AB000030B2000030B10000307E
:102CC000B0000030AF009A31CF22953141012E087B
:102CD000D1002D08D0002C08CF002B08CE004E0AC2
:102CE000031D7F2E4F0A031D7F2E500A1F3003192C
:102CF0005106031D7F2EFF30CC00FF30CD004D0864
:102D0000C6004C08C500080000304101D900003061
:102D1000D8000030D7000030D600053040016C06E6
:102D20006D04031DCC2E00304101C1000030C000F5
:102D3000C030BF00FD30BE000030C5000030C40010
:102D4000C430C3003E30C2000030C9000030C800AB
:102D5000C630C700BE30C6000030CD000030CC0009
:102D6000C730CB007E30CA000030D1000030D00028
:102D7000CF30CF003630CE000030D5000030D40048
:102D8000CF30D300B530D2000030D9000030D800A9
:102D9000CF30D700F530042F00304101C1000030A2
:102DA000C000A830BF00FE30BE000030C5000030BB
:102DB000C400AC30C3003630C2000030C90000305F
:102DC000C800A530C700FE30C6000030CD0000307E
:102DD000CC00AF30CB003E30CA000030D100003014
:102DE000D000AF30CF007D30CE000030D5000030B5
:102DF000D400AF30D300B530D2000030D90000305D
:102E0000D800AF30D700B530D6000030AF00033067
:102E1000AE000030AD003830AC000030B300003000
:102E2000B2000030B1000030B0004108B7004008E7
:102E3000B6003F08B5003E08B4009831B72096317F
:102E400000304101AF000330AE000030AD003C3037
:102E5000AC000030B3000030B2000030B1000030F0
:102E6000B0004508B7004408B6004308B500420862
:102E7000B4009831B720963100304101AF000330E3
:102E8000AE000030AD004030AC000030B300003088
:102E9000B2000030B1000030B0004908B700480867
:102EA000B6004708B5004608B4009831B7209631FF
:102EB00000304101AF000330AE000030AD004430BF
:102EC000AC000030B3000030B2000030B100003080
:102ED000B0004D08B7004C08B6004B08B5004A08D2
:102EE000B4009831B720963100304101AF00033073
:102EF000AE000030AD004830AC000030B300003010
:102F0000B2000030B1000030B0005108B7005008E6
:102F1000B6004F08B5004E08B4009831B72096317E
:102F200000304101AF000330AE000030AD004C3046
:102F3000AC000030B3000030B2000030B10000300F
:102F4000B0005508B7005408B6005308B500520841
:102F5000B4009831B720963100304101AF00033002
:102F6000AE000030AD005030AC000030B300003097
:102F7000B2000030B1000030B0005908B700580866
:102F8000B6005708B5005608B4009831B7209631FE
:102F900000304101AF000330AE000030AD001C3006
:102FA000AC000030B3000030B2000030B10000309F
:102FB000B0001030B7000030B6000230B50040302D
:102FC000B4009831B720963100304101AF00033092
:102FD000AE000030AD002030AC000030B300003057
:102FE000B2000030B1000030B0001B30B7006D30CF
:102FF000B600A430B5008930B4009831B72008007D
:1030000000344034013400346D346F34643465343A
:1030100020343D343D342034443457343334303458
:10302000303430345F345334503449345F3457349F
:1030300052345F3442344934543420347C347C3448
:1030400020346D346F346434653420343D343D3481
:1030500020344434573433343034303430345F34F3
:103060005334503449345F34523444345F3442343E
:103070004934543420347C347C3420346D346F34FF
:103080006434653420343D343D3420344434573482
:1030900033343034303430345F3453345034493482
:1030A0005F3441344E3444345F344F3452345F34EF
:1030B000383420347C347C3420346D346F346434C0
:1030C000653420343D343D34203444345734333473
:1030D0003034303430345F345334503449345F3416
:1030E00041344E3444345F344F3452345F343134DD
:1030F000363420347C347C3420346D346F34643482
:10310000653420343D343D34203444345734333432
:103110003034303430345F345334503449345F34D5
:1031200041344E3444345F344F3452345F3433349A
:10313000323400340934023402340934093401349D
:10314000003400340034E9340334003401340034F2
:1031500002340034003400345334D634F534C834E7
:103160003434FE34FE34FE34FE3400340034410185
:10317000BC01BD013D08803A4001EB0080306B028C
:10318000031DC528043041013C020318EC2841010D
:1031900034084001EB0041013C08B83E860087013D
:1031A00040016B08810008304101B736B60CB50C00
:1031B000B40C890BD4280130BC070030BD3D3D085C
:1031C000803A4001EB0080306B02031DEA28043096
:1031D00041013C02031CC72841012F08A3002E080F
:1031E000A2002D08A1002C08A0003108A50030087D
:1031F000A4000030A9000030A8000030A70004306F
:10320000A600B830AA000030AB00A6310C2608009A
:103210004001A100A0319420993140012108A03142
:10322000D7209931F60076084001A0007208A0313D
:10323000D7209931F60076084001A000A0318F20F8
:10324000993140012108013EA031D7209931F60083
:1032500076084001A000A20175082202031858292F
:103260007508FF3EF600FF3003180030F700220813
:1032700076067704031D3E2901303F290030A13135
:1032800021219931F60040012208F700F801770862
:103290007307F9007808743DFA00790886007A0807
:1032A0008700760881000130F6007608A2072C29F5
:1032B000A0319920080040019A01990196019701D7
:1032C00098010730950007309100EF3092009F3051
:1032D0009300F0309400F0307E01D900CE01FE3032
:1032E000C3000730E4000730B800DA01E501C4018B
:1032F000B9011830CF00E601BA01C501D001DB01E8
:1033000000308B1B0130FA008B1355307D018F008C
:10331000AA308F000F1040019312931717307D01D0
:10332000CB0010307E01A50055307D018F00AA3002
:103330008F000F147A1C9E298B179F298B13400135
:10334000191018179910991196110030F4000030D7
:10335000F3000130F200F430F100A43112244001F6
:1033600099149915961508004001EC0000304101B0
:10337000AF000730AE000030AD004830AC00003088
:10338000B3000030B2000030B1000030B0000030B7
:10339000B7000030B6000030B5000030B4009831FE
:1033A000B720993100304101AF000730AE00003046
:1033B000AD000030AC000030B3000030B20000308F
:1033C000B1000030B0000030B7000030B60000306F
:1033D000B5000030B4009831B720993140016C0835
:1033E0000319080000304101AF000730AE00003083
:1033F000AD001430AC000030B3000030B20000303B
:10340000B1000030B0001C30B7000030B600003012
:10341000B5000030B4009831B7200800F600430131
:10342000901A08007608F100F201F135F20DF1353D
:10343000F20D7108013EF3000030723DF4000030DF
:10344000730784009830743D850000088F0076086B
:10345000F100F201F135F20DF135F20D0030710796
:1034600084009830723D8500000890009101760834
:10347000F100F201F135F20DF135F20D7108023E65
:10348000F3000030723DF400003073078400983080
:10349000743D850000088D007608F100F201F135D9
:1034A000F20DF135F20D7108033EF3000030723D6C
:1034B000F4000030730784009830743D85000008E4
:1034C000F500F50DF50D400113087506FB3975067D
:1034D0009300131493104301901608007B30F20000
:1034E000A930F300A13131219A31A131A0219A31C3
:1034F00000304101CD00CE008B3106239A314101CD
:103500004D0A031D8E2A4E0A031D8E2A5A30F200E0
:10351000A930F300A13131219A318D2ACA3080318E
:1035200083209A314101DB1F992A2130F200A93012
:103530009C2AE030F200A830F300A13131219A3109
:10354000E0309D3150259A3101304001EE0040308D
:10355000EF00A2317A229A3101304001EE00403072
:10356000EF00A23196229A31D830840001308500D4
:1035700008304101EF006F080319C82A0530203ECA
:1035800086000230870012001E004101EF0BC32AA3
:103590009930F200A930F300A13131210800003048
:1035A0004101C2000030C1000030C0000030BF0047
:1035B0002E08A3002D08A2002C08A1002B08A000B3
:1035C0003008A5002F08A4000030A9000030A80092
:1035D0000030A7000430A600BB30B3003308AA00B7
:1035E000A531D8259A3103304101C3000030C40011
:1035F000C41B282B4308BB3E860087010108B3008B
:10360000B401B501B6013F08B7004008B800410851
:10361000B9004208BA000830B735B80DB90DBA0D77
:10362000890B0C2B3708B3073808B43D3908B53D72
:103630003A08B63D3608C2003508C1003408C0005B
:103640003308BF00FF30C307FF30C43DC41FFA2A50
:103650004208AE004108AD004008AC003F08AB0096
:103660000800410153035404031D692B0030AE00D0
:103670000730AD000030AC004830AB000030B20085
:103680000030B1000030B0000030AF00A631B126EC
:103690009B3141012C08D8002B08D7000030A30033
:1036A0000730A2000030A1004830A0000030A70081
:1036B0000030A6000030A5000030A400FF30A800B4
:1036C000FF30A9000530AA000130AB00A7316C27FC
:1036D0009B31953154259B3141014608D600450860
:1036E000D50053035404031D8E2B0030A300073074
:1036F000A2000030A1004830A0000030A700003038
:10370000A6000030A5000030A4005808A900570802
:10371000A8000030AA00AB00A7316C274101560871
:10372000D4005508D3000800740803199C2B7308B3
:1037300072047104031DAD2B0030F1000030F20063
:103740000030F30008000130F6007608F40701307D
:10375000F336F20CF10C890BA82BFE30730503191C
:10376000C62BA32B0130F6007608F4070130F107D1
:10377000003003180130F207003003180130F3075E
:103780000130F336F20CF10C890BC12BFF307305BD
:103790000319D32BB22B0130F4020130F135F20DB5
:1037A000F30D890BCE2BF21BD92B023074020318B8
:1037B000CB2B7418E12BFF30F1057F30F205FF3081
:1037C000F3050310F40C7408F600F701F80110304B
:1037D000F635F70DF80D890BE82B7608F10477081C
:1037E000F2047808F304750803190800F3170800B9
:1037F00040012408F1002508F200F301F401260835
:10380000A800A901AA01AB012B08F8002A08F700BB
:103810002908F6002808F500A53172259B317408A7
:103820004001B1007308B0007208AF007108AE002B
:1038300003302706031D3F2C0030F4000030F30056
:103840000030F200B530F1003108F8003008F70020
:103850002F08F6002E08F500A53172259B3174085B
:103860004001B1007308B0007208AF007108AE00EB
:103870000730B136B00CAF0CAE0C890B392CFF30D1
:103880002E05A80007302F05A9002808003EAC002F
:103890000430293DAD000B30B136B00CAF0CAE0C8E
:1038A000890B4C2C08302D02003003192C02031C0C
:1038B000612C0130AE070030AF3D0030B03D00302C
:1038C000B13D2F08A5002E08A400080000304101DA
:1038D000CC000030CB000030CA000030C9000030FE
:1038E000AF000B30AE000030AD000830AC0000304F
:1038F000B3000030B2000030B1000030B000013041
:10390000B4000030B500A331C2239C310030410126
:10391000AF000B30AE000030AD000430AC00003022
:10392000B3000030B2000030B1000030B0004608F3
:10393000B5004508B400A331C2239C3100304101D9
:10394000AF000B30AE000030AD000830AC000030EE
:10395000B3000030B2000030B1000030B0000230DF
:10396000B4000030B500A331C2239C3100304101C6
:10397000AE000B30AD000030AC001030AB000030BA
:10398000B2000030B1000030B0000030AF009A311A
:10399000CF2241012E08CC002D08CB002C08CA00F4
:1039A0002B08C9004C08C8004B08C7004A08C600CD
:1039B0004908C5000800A031E2209C316400A03114
:1039C000C1209C315D30F200A830F300A1313121DB
:1039D0009C3102309F3166279C31903156209C31BA
:1039E00003304201E6000830E5007730890BF62C01
:1039F000E50BF62CE60BF62C7E013A13400116136C
:103A00007E01BA13400196177E0145164001171634
:103A100001309F3166279C3115304201E500C630E8
:103A2000890B102DE50B102D00008B170B17A13102
:103A300045219C3164009A316E229C310310400173
:103A4000961E0314031C272D40019616292D4001B4
:103A50009612913195219C3101309F3166279C311E
:103A6000A431BC249C31A33108239C3140010D1C9E
:103A7000362D8B1742016F03031D1E2D0000000021
:103A80000000000000000000000000000000000036
:103A900063000000000000000000000000001E2D78
:103AA0004101CC004C08053E86000130870016001D
:103AB0000104031D772D0030AF000730AE00003049
:103AC000AD001C30AC000030B3000030B20000305C
:103AD000B1000030B0004C088600013087000108BA
:103AE000C9004908B400A23126229D31AB2D053012
:103AF0004101C9004908CB000030A3000130A200F9
:103B00000030A1001430A0000030A7000030A60053
:103B10000030A5000030A400A43190249D3101396B
:103B20000319972D09304101C9004908CB00410113
:103B30004C08053E860001308700403FC300413FEE
:103B4000C4004B08C900CA014908C5004A08C6009C
:103B50009E31D3269D3100304101AF000130AE00CF
:103B60000030AD000C30AC000030B3000030B200CB
:103B70000030B1000030B0004C0A860001308700F0
:103B8000403FB400413FB500423FB600433FB7005D
:103B90009831B720080041013E0841074001EC0080
:103BA00041013F08423D4001ED0004306D0200300C
:103BB00003196C02031808000030410142028030F2
:103BC000031941020318FD2D0030A3001430A20098
:103BD0000030A1000030A0004208A5004108A40068
:103BE0003E08A6003F08A700A801A9014008AA00B6
:103BF0000230AB00A6310C26080000304101AF00B6
:103C00001F30AE000030AD000430AC000030B30017
:103C10000030B2000030B1000030B0000030B7001A
:103C20000030B6000030B5001430B4009831B72031
:103C30009D3100304101AF001F30AE000030AD00BB
:103C40000830AC000030B3000030B2000030B100EA
:103C50000030B0004108B4004208B500B601B70119
:103C60009831B7209D3100304101A3001D30A200E2
:103C70000030A1000030A0000030A400A5003E08E4
:103C8000A6003F08A700A801A9014008AA00023029
:103C9000AB00A6310C26080040013408B8003508F6
:103CA000B9003608BA000310390D3A0DBB003B08C5
:103CB000C1004108031D652E0030B7000030B6007A
:103CC0000030B5000030B40008003408B8003508F2
:103CD000B9003608BA001730BA36B90CB80C890BDF
:103CE0006C2E3808BB003B08BC00B517FF30B4058C
:103CF000FF30B5050030B6053408BD003508BE00FC
:103D00003608BF00C0018E30C102C11FA32E41087A
:103D1000803A8F3E0318952E0030B7000030B60071
:103D20000030B5000030B40008000130C036BF0CD0
:103D3000BE0CBD0C890B962E0130B8003808C107A7
:103D40000319BC2E952E18304102031CB92E0030E9
:103D5000B7000030B6000030B5000030B4000800F5
:103D60000130BD35BE0DBF0DC00D890BB12E013028
:103D7000C1024108031DB02E3C080319CA2EBD091B
:103D8000BE09BF09C009BD0A0319BE0A0319BF0A4B
:103D90000319C00A4008B7003F08B6003E08B50046
:103DA0003D08B400080001304001EE000030EF0093
:103DB000A7312B279E3141014508BE004608BF00B0
:103DC000890D893B8909C000C100C20192313A22A4
:103DD0009E3141014508B8004608B900890D893B6C
:103DE0008909BA00BB00903100209E3100304101AA
:103DF000AF000830AE000030AD001C30AC00003029
:103E0000B3000030B2000030B1000030B000FF302D
:103E10004305B4000F304405B500A331C2239E31E1
:103E200000304101A3000830A2000030A100103092
:103E3000A0000030A7000030A6000030A500003030
:103E4000A400FF30C7004708A8000330C800480896
:103E5000A900A63143269E3100304101A30008305D
:103E6000A2000030A1001030A0000030A7000030F8
:103E7000A6000030A5000030A400A43190249E319B
:103E80000139031D2C2FA2315E229E310030993161
:103E9000B4219E3105304001EE000030EF00A73123
:103EA0002B279E3100304101A3000730A2000030D3
:103EB000A1001C30A0000030A7000030A600003098
:103EC000A5000030A400A43190240800F9004201AC
:103ED0004C0879060319080000308B1B0130F800EC
:103EE0008B1355307D018F00AA308F000F1079039E
:103EF000031DBF2F8630F200A830F300A13131211D
:103F00009F314201CC01CC0A0F307E01A3000F305B
:103F1000A40043018F01900192018D014E010F1009
:103F2000191043018C018E0112307D01C50015303E
:103F30007E01A1001430A20010307D01C600803047
:103F400043018F00900101308D00400113111314C3
:103F5000430190121530F700C630890BAD2FF70BD7
:103F6000AD2F003200309A310E229F311530F7000C
:103F7000C630890BB92FF70BB92F0032F42F02305E
:103F80007906031DF42F7330F200A830F300A1313D
:103F900031219F310230F70077084201CC000F3009
:103FA0007E01A1000F30A20043018F019001920118
:103FB0008D014E010F10191043018C018E01143038
:103FC0007E01A3001530A40013307D01C50014301C
:103FD000C600A13106219F311530F700C630890B8C
:103FE000EF2FF70BEF2F003255307D018F00AA30F5
:103FF0008F000F14781CFE2F8B1708008B130800FE
:10410C007208883100200800F300710973057204ED
:10411C00080043019114911C0800912843011114CB
:10412C00111C0800962843011115111D08009B282D
:10413C004F0196019701980199019A019B01080082
:10414C004201410840019D004201400840019C0091
:10415C000800603051018D008F01910106309300F1
:10416C0092010800323400341E3400341E34023400
:10417C0001340B340134093042019F0090309D0012
:10418C0024309E0044309B009C010800F100710813
:10419C0043018C004E010F1CD0280F1043010C085A
:1041AC000800F100710843018C000F19DB28110E77
:1041BC00890C890C01390800013050018C00A031A8
:1041CC00AF20A031A0319E20A03199315B21080095
:1041DC006400800101310130FE020030FF3B7F089A
:1041EC007E0403190034EF28FE0012001E0001307B
:1041FC00FE020030FF3B7F087E0403190034FB28CD
:10420C00803043018F0028309000083092004F30EE
:10421C008D004E010F1019100800F200F1013A3018
:10422C00720203181F2930307202031C1F29F1017E
:10423C00F10A710C0800F10043019115710C031C7B
:10424C009112031891160F1C292991111116111A8C
:10425C002D290C08080072088400730885001200D0
:10426C00031908007208840073088500000888315F
:10427C000020A1310130F2070030F33D312901302B
:10428C0040019E0097309F0024309D009C011D082A
:10429C004201C10040011C084201C0004E018C12B9
:1042AC00961640019E1708004001C1018630C200DD
:1042BC002030C3003A30FB007B08C0003908A50051
:1042CC003808A4004030FB007B08A60041308C313C
:1042DC00BD24080000304001B800A830B9004708E0
:1042EC00BB004608BA004508BD004408BC0049089C
:1042FC00BF004808BE00A1315A21A1318429080011
:10430C007308F7007208F6000130F4020030F53B38
:10431C00740A0319750A03190800760886007708D1
:10432C0087000108A031CC20A1310130F607003004
:10433C00F73D8A29400117120030F4000030F300D9
:10434C000030F2000130F100A4311224A1314001FF
:10435C0017160030F4000030F3000030F200023089
:10436C00F100A43112240800F501F601711CC229D8
:10437C007308F5077408F63D0130F335F40D890B1D
:10438C00C3290130F236F10C890BC829710872046B
:10439C00031DBC297608F2007508F10008004001E5
:1043AC0096132208F2000030F3002108F5002008D3
:1043BC00F400A1318621A13140012808F30027081F
:1043CC00F2002408F5002308F400A231CE224001AB
:1043DC0096170800400196132208F2000030F300F3
:1043EC002108F5002008F400A1318621A1314001FB
:1043FC002808F3002708F2002408F5002308F4002D
:10440C00A1318621400196170800F6007608F500C8
:10441C007508F7000130F3020030F43B730A0319FE
:10442C00740A031908007108F5007708860001303A
:10443C008700750881000130F5007508F707102A10
:10444C0041012F08A3002E08A2002D08A1002C0862
:10445C00A0003108A5003008A4000030A9000030ED
:10446C00A8000030A7000130A600B430AA0000302C
:10447C00AB00A6310C2608004001EC0000304101D5
:10448C00AF000030AE000030AD002830AC00003082
:10449C00B3000030B2000030B1000130B000400178
:1044AC006C08EB006B084101B400A2312622080015
:1044BC0000304101AF000730AE000030AD000430D9
:1044CC00AC000030B3000030B2000030B10000305E
:1044DC00B0000030B7000030B6000030B50000303E
:1044EC00B4009831B720080000304101AF000E3005
:1044FC00AE000030AD000030AC000030B300003036
:10450C00B2000030B1000030B00040016F08410132
:10451C00B50040016E084101B400A331C22308006C
:10452C0000304101AF000130AE000030AD0004306E
:10453C00AC000030B3000030B2000030B1000030ED
:10454C00B00040016F084101B50040016E08410107
:10455C00B400A331C2230800F500A0319420A2318D
:10456C007508A031D720A231F4007408F600720847
:10457C00A031D720A231F4007408F6007308A031E2
:10458C00D720A231F4007408F600A031992008005D
:10459C007308F8007208F7000130F4020030F53BA4
:1045AC00740A0319750A031908000030A031CC20D5
:1045BC00A231F6007708860078088700760881001B
:1045CC000130F7070030F83DD22A00304101AE002F
:1045DC000030AD000030AC000030AB000030B20059
:1045EC000030B1000030B0000030AF009A31CF2263
:1045FC0041012E08C8002D08C7002C08C6002B0846
:10460C00C500080003304201E9070030EA3D0030E4
:10461C006A021E3003196902031C0800E901EA0151
:10462C0002306C06031D272B400196111530F1004A
:10463C00C630890B1F2BF10B1F2B00324001961536
:10464C00080040018C190800961508000034383415
:10465C000034CA34DE340034003400340034003406
:10466C00003400340034003400340034003400349E
:10467C00003400340034003400340034003400348E
:10468C00003400340034003400340034003400347E
:10469C0000340034400196132208F2000030F3007D
:1046AC002108F5002008F400A1318621A331400136
:1046BC002808F3002708F2002408F5002308F4006A
:1046CC00A1318621A3312930F2000030F3000130F2
:1046DC00F4000030F500A131862140019617080046
:1046EC000330F7007708F200D430A331EA23A3316A
:1046FC00F8007808FA006030F7007708F1004030D5
:10470C00F8007808F2007A08A0318A20A331F90069
:10471C007908FA000330F7007708F2007A08F800FD
:10472C007808F300D430A231B22208000D307A029E
:10473C00AD30031979020318A62B4001A001C02B40
:10474C0010307A02693003197902031CAF2B6430E4
:10475C00BC2B0730F1000030F2007908543EF30016
:10476C00F2307A3DF400A531A4257108FB007B08DA
:10477C004001A00020080800410134084001EB0072
:10478C006B08EC00410135084001EB006B08ED00B3
:10479C0041012F08A3002E08A2002D08A1002C080F
:1047AC00A0003108A5003008A4000030A90000309A
:1047BC00A8000030A7000230A6006C30AA00003020
:1047CC00AB00A6310C260800F600A0319420A331D2
:1047DC007608A031D720A331F3007308F4007208D7
:1047EC00A031D720A331F3007308F400A0318F203F
:1047FC00A3317608013EA031D720A331F300730812
:10480C00F4000130A1312121A331F3007308F5002C
:10481C00A0319920750808000030F9000030F8002C
:10482C000030F7000030F60074087902031D282CC4
:10483C0073087802031D282C72087702031D282C9C
:10484C0071087602031808000B30F5006230890BF2
:10485C002D2CF50B2D2C00320130F6070030F73DD6
:10486C000030F83D0030F93D1A2CF801F9017908B7
:10487C00803AF6007408803A7602031D472C7308C0
:10488C0078020318632C7808710786007908723D4A
:10489C00870001087506F6007608F7007708F03EE9
:1048AC00860087012E30873D0108F6007608F5005A
:1048BC000130F8070030F93D3D2C750808008E30AA
:1048CC00F9007908FA00FF304001230503197B2C0D
:1048DC0001304001A336A20CA10CA00C890B6F2C4B
:1048EC000130F9007908FA07692C2008F100210839
:1048FC00F2002208F3007A08F9007908F400F501B7
:10490C009B31942371084001A0007208A100730828
:10491C00A2000800410123084001CD0041012208FA
:10492C004001CC00410121084001CB00410120088D
:10493C004001CA00410125084001CF004101240873
:10494C004001CE000030D3000030D2000030D10046
:10495C000130D0006B30D4000030D5000030D600D0
:10496C00D70089316D2140016B0808006630F200D8
:10497C00A930F300A1313121A43101304101CF0024
:10498C004F084401A20724304101BE000030BF0093
:10499C002030CF004F08C0000030C100C2009D3154
:1049AC00CB25A43124304101B8000030B9000030CF
:1049BC00BA00BB00BC0194317824A431003088319A
:1049CC00082008004001200821040319102DFA01C9
:1049DC00FA0AA11BFB2C0130A035A10D890BF22C7E
:1049EC000130F9007908FA07EF2C21082302031D86
:1049FC00012D20082202031C072D2008A2022108E9
:104A0C00A33B0130A136A00C890B082D0130FA0212
:104A1C00031DFB2C2308A1002208A0000800F700AE
:104A2C00A0319420A5317708A031D720A531F5000D
:104A3C007508F8007208A031D720A531F50075086B
:104A4C00F800F9017408790203183E2D79087307F0
:104A5C00F5007508860087010108A031D720A53123
:104A6C00F6007608F8000130F5007508F907282DD6
:104A7C00A03199207808080000304101AE000030C8
:104A8C00AD000030AC004430AB000030B200003060
:104A9C00B1000030B0000230AF00A631B126A53114
:104AAC0041012B08B7002C08B800B901BA0110302D
:104ABC00B735B80DB90DBA0D890B5E2D3A08BE008D
:104ACC003908BD003808BC003708BB003E1C702DEF
:104ADC00013008000030080000304001A300003015
:104AEC00A2000030A1000030A000711C862D7508BA
:104AFC004001A0077608A13D7708A23D7808A33DA8
:104B0C000130F535F60DF70DF80D890B872D0130B9
:104B1C00F436F30CF20CF10C890B8E2D7408730423
:104B2C0072047104031D7B2D40012308F40022083C
:104B3C00F3002108F2002008F1000800F701F80149
:104B4C00710872040319D32DF601F60AF21BB82D65
:104B5C000130F135F20D890BAF2D0130F5007508E0
:104B6C00F607AC2D0130F735F80D890BB92D72080D
:104B7C007402031DC32D71087302031CCA2D710826
:104B8C00F3027208F43B77140130F236F10C890B06
:104B9C00CB2D0130F602031DB82D7808F2007708F2
:104BAC00F1000800410123084001CD004101220819
:104BBC004001CC00410121084001CB0041012008FB
:104BCC004001CA00410125084001CF0041012408E1
:104BDC004001CE00410129084001D30041012808C1
:104BEC004001D200410127084001D10041012608B3
:104BFC004001D00041012A084001D4000030D5000A
:104C0C000030D600D70089316D21080041012308FE
:104C1C004001CD00410122084001CC004101210896
:104C2C004001CB00410120084001CA004101250888
:104C3C004001CF00410124084001CE004101290868
:104C4C004001D300410128084001D200410127084E
:104C5C004001D100410126084001D00041012B0840
:104C6C004001D50041012A084001D4000030D60093
:104C7C008030D70089316D2108004101280840019E
:104C8C00EB006B08EC00410129084001EB006B08BC
:104C9C00ED00410123084001CD00410122084001F3
:104CAC00CC00410121084001CB004101200840010A
:104CBC00CA00410125084001CF00410124084001F0
:104CCC00CE000030D3000030D2000030D1000230D2
:104CDC00D0006C30D4000030D5000130D6008030CC
:104CEC00D70089316D210800A231EB22A631410198
:104CFC0048084201BF00410147084201BE00410182
:104D0C0046084201BD00410145084201BC00123079
:104D1C003C06033003193D06CA3003193E06DE304B
:104D2C0003193F060319AD2E02303C06033003195C
:104D3C003D06CA3003193E06DE3003193F0603193F
:104D4C00AD2EFF304001EB00FF30EC0008004001BD
:104D5C00EB01EC0108004101B301B4012E08A300E2
:104D6C002D08A2002C08A1002B08A0003008A500DB
:104D7C002F08A4000030A9000030A8000030A700C4
:104D8C000230A600B5304001EB006B084101AA00CF
:104D9C00A531D825410135084001EB00EC0141015A
:104DAC0036084001ED00EE016D08EE00ED016B08D8
:104DBC006D074101B30040016C086E3D4101B40028
:104DCC003408AC003308AB00080000304101A300EC
:104DDC000B30A2000030A1000830A0000030A7006A
:104DEC000030A6000030A5000030A400FF30A80061
:104DFC00FF30A9008030AA000130AB00A7316C272E
:104E0C00A63100304101A3001130A2000030A100F6
:104E1C001F30A0000030A7000030A6000030A50015
:104E2C000030A400E030A800FF30A9007C08083E48
:104E3C008600023087000108AC00AD012C08AA00E6
:104E4C002D08AB00A7316C27080040016E036F04DE
:104E5C00031D4E2F00304101B6001830B700B614B8
:104E6C00B6160030AF001130AE000030AD0004308B
:104E7C00AC000030B3000030B2000030B1000030A4
:104E8C00B0003708B5003608B400A331C223A731EF
:104E9C00053040016E066F04031D0800003041010F
:104EAC00AF001130AE000030AD000430AC0000306B
:104EBC00B3000030B2000030B1000030B000003060
:104ECC00B4000230B500A331C22308004101280808
:104EDC004001EB006B08EC00410129084001EB009C
:104EEC006B08ED0041012A084001EB006B08EE0055
:104EFC0041012B084001EB006B08EF004101230836
:104F0C004001CD00410122084001CC0041012108A3
:104F1C004001CB00410120084001CA004101250895
:104F2C004001CF00410124084001CE000030D300E5
:104F3C000030D2000030D1000430D0006C30D400EE
:104F4C000030D5000230D6008030D70089316D2179
:104F5C0008004101B80005303806031DD82F003079
:104F6C00A3000B30A2000030A1000830A0000030DC
:104F7C00A7000030A6000030A5000030A4000030CF
:104F8C00AB000030AA00DF30A900FF30A8000030D1
:104F9C00AF000030AE000030AD004030AC009331BB
:104FAC009F230800093041013806031D080000301A
:104FBC00A3000B30A2000030A1000830A00000308C
:104FCC00A7000030A6000030A5000030A40000307F
:104FDC00AB000030AA00DF30A900FF30A800003081
:104FEC00AF000030AE002030AD004030AC0093314B
:104FFC009F23080041347334733465347234743431
:10500C0069346F346E3420346634613469346C34F2
:10501C00653464343A3420342534733420346C349D
:10502C0069346E3465342034253464343A34203495
:10503C0022342534733422340A3400340A340D34C7
:10504C00753469346E347434363434345F346E34BD
:10505C0075346D343A342034253430343434583487
:10506C0025343034343458342534303434345834D2
:10507C00253430343434583400346D346F34643463
:10508C00653420343D343D34203444345734333487
:10509C003034303430345F345334503449345F342A
:1050AC00573452345F3442344934543400340A3463
:1050BC000D345534573442345F345434413447340E
:1050CC005F34443457344D3433343034303430342A
:1050DC005F3450344934433400340A340D344D3485
:1050EC00533453345334503420347334653474345F
:1050FC002034613473342034493432344334003432
:10510C000A340D344D345334533453345034203426
:10511C007334653474342034613473342034533430
:10512C005034493400347234653467345F346F342E
:10513C006634663473346534743420343C343D3412
:10514C002034303478343734463400340A340D3457
:10515C0042345134323435343834393435345F34A4
:10516C00723465345F3469346E34693474340034A9
:10517C0030343134323433343434353436343734E7
:10518C00383439344134423443344434453446346D
:10519C0000340A340D3470346D34693463345F3444
:1051AC0062346134743474345F3472346534613411
:1051BC00643400340A340D3443344F344E344634A2
:1051CC00493447345F3453345534433443344534D1
:1051DC005334533400347234653467345F3466347A
:1051EC0069346C34653420343C343D3420343034F0
:1051FC0078343134463400346C3465346E3467346E
:10520C007434683420343C342034303478343334BF
:10521C0031343034303400340A340D3470346D345D
:10522C00693463345F347734643474345F34633496
:10523C006C34723400340A340D3443344F344E34ED
:10524C004634493447345F344534523452344F3445
:10525C005234003400340434A83405340034083497
:10526C0050340B3400341034A13416340034203450
:10527C0064346534633461345F3464346534763457
:10528C006934633465342E346334003476346134D9
:10529C006C343A3420342534303434345834253496
:1052AC0030343434583400340A340D3444345734E4
:1052BC004D345F344534523452344F34523400340C
:1052CC000A340D34443461347434613453346534E9
:1052DC006E3464340034013400340A3400346434E1
:1052EC000034E8340334103427340A340D34643475
:1052FC0077345F346D34613469346E340034763411
:10530C0061346C343A3420342534303432345834EB
:10531C000034763461346C343A34203425343034EF
:10532C003434583400340A340D34443457344D3446
:10533C005F344F344B3400340134003410340034B7
:10534C00003401340034103428346E3475346C3429
:06535C006C34293400341A
:020000040001F9
:0A000E008C3FFF37EB07FF1FFF3F99
:00000001FF
